{
  "_format": "hh-sol-artifact-1",
  "contractName": "PWNVault",
  "sourceName": "contracts/PWNVault.sol",
  "abi": [
    {
      "inputs": [],
      "stateMutability": "nonpayable",
      "type": "constructor"
    },
    {
      "anonymous": false,
      "inputs": [
        {
          "indexed": true,
          "internalType": "address",
          "name": "previousOwner",
          "type": "address"
        },
        {
          "indexed": true,
          "internalType": "address",
          "name": "newOwner",
          "type": "address"
        }
      ],
      "name": "OwnershipTransferred",
      "type": "event"
    },
    {
      "anonymous": false,
      "inputs": [
        {
          "components": [
            {
              "internalType": "address",
              "name": "assetAddress",
              "type": "address"
            },
            {
              "internalType": "enum MultiToken.Category",
              "name": "category",
              "type": "uint8"
            },
            {
              "internalType": "uint256",
              "name": "amount",
              "type": "uint256"
            },
            {
              "internalType": "uint256",
              "name": "id",
              "type": "uint256"
            }
          ],
          "indexed": false,
          "internalType": "struct MultiToken.Asset",
          "name": "asset",
          "type": "tuple"
        },
        {
          "indexed": true,
          "internalType": "address",
          "name": "origin",
          "type": "address"
        }
      ],
      "name": "VaultPull",
      "type": "event"
    },
    {
      "anonymous": false,
      "inputs": [
        {
          "components": [
            {
              "internalType": "address",
              "name": "assetAddress",
              "type": "address"
            },
            {
              "internalType": "enum MultiToken.Category",
              "name": "category",
              "type": "uint8"
            },
            {
              "internalType": "uint256",
              "name": "amount",
              "type": "uint256"
            },
            {
              "internalType": "uint256",
              "name": "id",
              "type": "uint256"
            }
          ],
          "indexed": false,
          "internalType": "struct MultiToken.Asset",
          "name": "asset",
          "type": "tuple"
        },
        {
          "indexed": true,
          "internalType": "address",
          "name": "beneficiary",
          "type": "address"
        }
      ],
      "name": "VaultPush",
      "type": "event"
    },
    {
      "anonymous": false,
      "inputs": [
        {
          "components": [
            {
              "internalType": "address",
              "name": "assetAddress",
              "type": "address"
            },
            {
              "internalType": "enum MultiToken.Category",
              "name": "category",
              "type": "uint8"
            },
            {
              "internalType": "uint256",
              "name": "amount",
              "type": "uint256"
            },
            {
              "internalType": "uint256",
              "name": "id",
              "type": "uint256"
            }
          ],
          "indexed": false,
          "internalType": "struct MultiToken.Asset",
          "name": "asset",
          "type": "tuple"
        },
        {
          "indexed": true,
          "internalType": "address",
          "name": "origin",
          "type": "address"
        },
        {
          "indexed": true,
          "internalType": "address",
          "name": "beneficiary",
          "type": "address"
        }
      ],
      "name": "VaultPushFrom",
      "type": "event"
    },
    {
      "inputs": [],
      "name": "PWN",
      "outputs": [
        {
          "internalType": "address",
          "name": "",
          "type": "address"
        }
      ],
      "stateMutability": "view",
      "type": "function"
    },
    {
      "inputs": [
        {
          "internalType": "address",
          "name": "",
          "type": "address"
        },
        {
          "internalType": "address",
          "name": "",
          "type": "address"
        },
        {
          "internalType": "uint256[]",
          "name": "",
          "type": "uint256[]"
        },
        {
          "internalType": "uint256[]",
          "name": "",
          "type": "uint256[]"
        },
        {
          "internalType": "bytes",
          "name": "",
          "type": "bytes"
        }
      ],
      "name": "onERC1155BatchReceived",
      "outputs": [
        {
          "internalType": "bytes4",
          "name": "",
          "type": "bytes4"
        }
      ],
      "stateMutability": "pure",
      "type": "function"
    },
    {
      "inputs": [
        {
          "internalType": "address",
          "name": "",
          "type": "address"
        },
        {
          "internalType": "address",
          "name": "",
          "type": "address"
        },
        {
          "internalType": "uint256",
          "name": "",
          "type": "uint256"
        },
        {
          "internalType": "uint256",
          "name": "",
          "type": "uint256"
        },
        {
          "internalType": "bytes",
          "name": "",
          "type": "bytes"
        }
      ],
      "name": "onERC1155Received",
      "outputs": [
        {
          "internalType": "bytes4",
          "name": "",
          "type": "bytes4"
        }
      ],
      "stateMutability": "pure",
      "type": "function"
    },
    {
      "inputs": [
        {
          "internalType": "address",
          "name": "",
          "type": "address"
        },
        {
          "internalType": "address",
          "name": "",
          "type": "address"
        },
        {
          "internalType": "uint256",
          "name": "",
          "type": "uint256"
        },
        {
          "internalType": "bytes",
          "name": "",
          "type": "bytes"
        }
      ],
      "name": "onERC721Received",
      "outputs": [
        {
          "internalType": "bytes4",
          "name": "",
          "type": "bytes4"
        }
      ],
      "stateMutability": "pure",
      "type": "function"
    },
    {
      "inputs": [],
      "name": "owner",
      "outputs": [
        {
          "internalType": "address",
          "name": "",
          "type": "address"
        }
      ],
      "stateMutability": "view",
      "type": "function"
    },
    {
      "inputs": [
        {
          "components": [
            {
              "internalType": "address",
              "name": "assetAddress",
              "type": "address"
            },
            {
              "internalType": "enum MultiToken.Category",
              "name": "category",
              "type": "uint8"
            },
            {
              "internalType": "uint256",
              "name": "amount",
              "type": "uint256"
            },
            {
              "internalType": "uint256",
              "name": "id",
              "type": "uint256"
            }
          ],
          "internalType": "struct MultiToken.Asset",
          "name": "_asset",
          "type": "tuple"
        },
        {
          "internalType": "address",
          "name": "_origin",
          "type": "address"
        }
      ],
      "name": "pull",
      "outputs": [
        {
          "internalType": "bool",
          "name": "",
          "type": "bool"
        }
      ],
      "stateMutability": "nonpayable",
      "type": "function"
    },
    {
      "inputs": [
        {
          "components": [
            {
              "internalType": "address",
              "name": "assetAddress",
              "type": "address"
            },
            {
              "internalType": "enum MultiToken.Category",
              "name": "category",
              "type": "uint8"
            },
            {
              "internalType": "uint256",
              "name": "amount",
              "type": "uint256"
            },
            {
              "internalType": "uint256",
              "name": "id",
              "type": "uint256"
            }
          ],
          "internalType": "struct MultiToken.Asset",
          "name": "_asset",
          "type": "tuple"
        },
        {
          "internalType": "address",
          "name": "_beneficiary",
          "type": "address"
        }
      ],
      "name": "push",
      "outputs": [
        {
          "internalType": "bool",
          "name": "",
          "type": "bool"
        }
      ],
      "stateMutability": "nonpayable",
      "type": "function"
    },
    {
      "inputs": [
        {
          "components": [
            {
              "internalType": "address",
              "name": "assetAddress",
              "type": "address"
            },
            {
              "internalType": "enum MultiToken.Category",
              "name": "category",
              "type": "uint8"
            },
            {
              "internalType": "uint256",
              "name": "amount",
              "type": "uint256"
            },
            {
              "internalType": "uint256",
              "name": "id",
              "type": "uint256"
            }
          ],
          "internalType": "struct MultiToken.Asset",
          "name": "_asset",
          "type": "tuple"
        },
        {
          "internalType": "address",
          "name": "_origin",
          "type": "address"
        },
        {
          "internalType": "address",
          "name": "_beneficiary",
          "type": "address"
        }
      ],
      "name": "pushFrom",
      "outputs": [
        {
          "internalType": "bool",
          "name": "",
          "type": "bool"
        }
      ],
      "stateMutability": "nonpayable",
      "type": "function"
    },
    {
      "inputs": [],
      "name": "renounceOwnership",
      "outputs": [],
      "stateMutability": "nonpayable",
      "type": "function"
    },
    {
      "inputs": [
        {
          "internalType": "address",
          "name": "_address",
          "type": "address"
        }
      ],
      "name": "setPWN",
      "outputs": [],
      "stateMutability": "nonpayable",
      "type": "function"
    },
    {
      "inputs": [
        {
          "internalType": "bytes4",
          "name": "interfaceId",
          "type": "bytes4"
        }
      ],
      "name": "supportsInterface",
      "outputs": [
        {
          "internalType": "bool",
          "name": "",
          "type": "bool"
        }
      ],
      "stateMutability": "pure",
      "type": "function"
    },
    {
      "inputs": [
        {
          "internalType": "address",
          "name": "newOwner",
          "type": "address"
        }
      ],
      "name": "transferOwnership",
      "outputs": [],
      "stateMutability": "nonpayable",
      "type": "function"
    }
  ],
  "bytecode": "0x608060405234801561001057600080fd5b5061001a3361001f565b61006f565b600080546001600160a01b038381166001600160a01b0319831681178455604051919092169283917f8be0079c531659141344cd1fd0a4f28419497f9722a3daafe3b4186f6b6457e09190a35050565b610e4f8061007e6000396000f3fe608060405234801561001057600080fd5b50600436106100b45760003560e01c80638da5cb5b116100715780638da5cb5b1461017457806391d7cde614610185578063bc197c8114610198578063d4f6b1d4146101ba578063f23a6e61146101cd578063f2fde38b146101ed57600080fd5b806301ffc9a7146100b9578063150b7a02146100e1578063715018a6146101195780637c95e34a14610123578063805094c7146101365780638c26ba0c14610161575b600080fd5b6100cc6100c7366004610c89565b610200565b60405190151581526020015b60405180910390f35b6101006100ef366004610b86565b630a85bd0160e11b95945050505050565b6040516001600160e01b031990911681526020016100d8565b610121610288565b005b6100cc610131366004610cb1565b6102c7565b600154610149906001600160a01b031681565b6040516001600160a01b0390911681526020016100d8565b61012161016f366004610aae565b610348565b6000546001600160a01b0316610149565b6100cc610193366004610ce4565b610394565b6101006101a6366004610acf565b63bc197c8160e01b98975050505050505050565b6100cc6101c8366004610cb1565b610421565b6101006101db366004610bf3565b63f23a6e6160e01b9695505050505050565b6101216101fb366004610aae565b610492565b60006001600160e01b031982166301ffc9a760e01b148061023157506001600160e01b03198216630704183b60e11b145b8061024c57506001600160e01b03198216630a85bd0160e11b145b8061026757506001600160e01b03198216630271189760e51b145b8061028257506001600160e01b031982166335c2b1b360e01b145b92915050565b6000546001600160a01b031633146102bb5760405162461bcd60e51b81526004016102b290610d8e565b60405180910390fd5b6102c5600061052d565b565b6001546000906001600160a01b031633146102f45760405162461bcd60e51b81526004016102b290610d5f565b6102fe838361057d565b816001600160a01b03167f1f93aaa10a96701ea3371e37145654d4fa901bed129df7ecce75ec1720ce675d846040516103379190610dc3565b60405180910390a250600192915050565b6000546001600160a01b031633146103725760405162461bcd60e51b81526004016102b290610d8e565b600180546001600160a01b0319166001600160a01b0392909216919091179055565b6001546000906001600160a01b031633146103c15760405162461bcd60e51b81526004016102b290610d5f565b6103cc84848461079e565b816001600160a01b0316836001600160a01b03167fa56c8ed66794d77281d6aea0d94c80efe86b229490ee4709f3c089f14d6d76f08660405161040f9190610dc3565b60405180910390a35060019392505050565b6001546000906001600160a01b0316331461044e5760405162461bcd60e51b81526004016102b290610d5f565b61045983833061079e565b816001600160a01b03167f7afe4d28a8b28f36043a4efb76fd76734f72ab668f4ff0cd63164bb9357b83e5846040516103379190610dc3565b6000546001600160a01b031633146104bc5760405162461bcd60e51b81526004016102b290610d8e565b6001600160a01b0381166105215760405162461bcd60e51b815260206004820152602660248201527f4f776e61626c653a206e6577206f776e657220697320746865207a65726f206160448201526564647265737360d01b60648201526084016102b2565b61052a8161052d565b50565b600080546001600160a01b038381166001600160a01b0319831681178455604051919092169283917f8be0079c531659141344cd1fd0a4f28419497f9722a3daafe3b4186f6b6457e09190a35050565b6000826020015160028111156105a357634e487b7160e01b600052602160045260246000fd5b141561063a578151604080840151905163a9059cbb60e01b81526001600160a01b03848116600483015260248201929092529082169063a9059cbb90604401602060405180830381600087803b1580156105fc57600080fd5b505af1158015610610573d6000803e3d6000fd5b505050506040513d601f19601f820116820180604052508101906106349190610c69565b50505050565b60018260200151600281111561066057634e487b7160e01b600052602160045260246000fd5b14156106dd5781516060830151604051632142170760e11b81523060048201526001600160a01b0384811660248301526044820192909252908216906342842e0e906064015b600060405180830381600087803b1580156106c057600080fd5b505af11580156106d4573d6000803e3d6000fd5b50505050505050565b60028260200151600281111561070357634e487b7160e01b600052602160045260246000fd5b1415610756578151604083015161071c57600160408401525b60608301516040808501519051637921219560e11b81526001600160a01b0384169263f242432a926106a692309288929091600401610d27565b60405162461bcd60e51b815260206004820181905260248201527f4d756c7469546f6b656e3a20556e737570706f727465642063617465676f727960448201526064016102b2565b6000836020015160028111156107c457634e487b7160e01b600052602160045260246000fd5b141561086457825160408085015190516323b872dd60e01b81526001600160a01b03858116600483015284811660248301526044820192909252908216906323b872dd90606401602060405180830381600087803b15801561082557600080fd5b505af1158015610839573d6000803e3d6000fd5b505050506040513d601f19601f8201168201806040525081019061085d9190610c69565b5050505050565b60018360200151600281111561088a57634e487b7160e01b600052602160045260246000fd5b141561090a5782516060840151604051632142170760e11b81526001600160a01b03858116600483015284811660248301526044820192909252908216906342842e0e906064015b600060405180830381600087803b1580156108ec57600080fd5b505af1158015610900573d6000803e3d6000fd5b5050505050505050565b60028360200151600281111561093057634e487b7160e01b600052602160045260246000fd5b1415610756578251604084015161094957600160408501525b60608401516040808601519051637921219560e11b81526001600160a01b0384169263f242432a926108d292889288929091600401610d27565b80356001600160a01b038116811461099a57600080fd5b919050565b60008083601f8401126109b0578182fd5b50813567ffffffffffffffff8111156109c7578182fd5b6020830191508360208260051b85010111156109e257600080fd5b9250929050565b60008083601f8401126109fa578182fd5b50813567ffffffffffffffff811115610a11578182fd5b6020830191508360208285010111156109e257600080fd5b600060808284031215610a3a578081fd5b6040516080810181811067ffffffffffffffff82111715610a6957634e487b7160e01b83526041600452602483fd5b604052905080610a7883610983565b8152602083013560038110610a8c57600080fd5b8060208301525060408301356040820152606083013560608201525092915050565b600060208284031215610abf578081fd5b610ac882610983565b9392505050565b60008060008060008060008060a0898b031215610aea578384fd5b610af389610983565b9750610b0160208a01610983565b9650604089013567ffffffffffffffff80821115610b1d578586fd5b610b298c838d0161099f565b909850965060608b0135915080821115610b41578586fd5b610b4d8c838d0161099f565b909650945060808b0135915080821115610b65578384fd5b50610b728b828c016109e9565b999c989b5096995094979396929594505050565b600080600080600060808688031215610b9d578081fd5b610ba686610983565b9450610bb460208701610983565b935060408601359250606086013567ffffffffffffffff811115610bd6578182fd5b610be2888289016109e9565b969995985093965092949392505050565b60008060008060008060a08789031215610c0b578182fd5b610c1487610983565b9550610c2260208801610983565b94506040870135935060608701359250608087013567ffffffffffffffff811115610c4b578283fd5b610c5789828a016109e9565b979a9699509497509295939492505050565b600060208284031215610c7a578081fd5b81518015158114610ac8578182fd5b600060208284031215610c9a578081fd5b81356001600160e01b031981168114610ac8578182fd5b60008060a08385031215610cc3578182fd5b610ccd8484610a29565b9150610cdb60808401610983565b90509250929050565b600080600060c08486031215610cf8578283fd5b610d028585610a29565b9250610d1060808501610983565b9150610d1e60a08501610983565b90509250925092565b6001600160a01b0394851681529290931660208301526040820152606081019190915260a06080820181905260009082015260c00190565b60208082526015908201527421b0b63632b91034b9903737ba103a343290282ba760591b604082015260600190565b6020808252818101527f4f776e61626c653a2063616c6c6572206973206e6f7420746865206f776e6572604082015260600190565b81516001600160a01b031681526020820151608082019060038110610df857634e487b7160e01b600052602160045260246000fd5b8060208401525060408301516040830152606083015160608301529291505056fea2646970667358221220a9549e79856a4870bef593342090dad5f265799bca0cd85a5b1b1ce7b3be1e4164736f6c63430008040033",
  "linkReferences": {},
  "deployedLinkReferences": {}
}