{
  "_format": "hh-sol-artifact-1",
  "contractName": "PWNVault",
  "sourceName": "contracts/PWNVault.sol",
  "abi": [
    {
      "inputs": [],
      "stateMutability": "nonpayable",
      "type": "constructor"
    },
    {
      "anonymous": false,
      "inputs": [
        {
          "indexed": true,
          "internalType": "address",
          "name": "previousOwner",
          "type": "address"
        },
        {
          "indexed": true,
          "internalType": "address",
          "name": "newOwner",
          "type": "address"
        }
      ],
      "name": "OwnershipTransferred",
      "type": "event"
    },
    {
      "anonymous": false,
      "inputs": [
        {
          "components": [
            {
              "internalType": "address",
              "name": "assetAddress",
              "type": "address"
            },
            {
              "internalType": "enum MultiToken.Category",
              "name": "category",
              "type": "uint8"
            },
            {
              "internalType": "uint256",
              "name": "amount",
              "type": "uint256"
            },
            {
              "internalType": "uint256",
              "name": "id",
              "type": "uint256"
            }
          ],
          "indexed": false,
          "internalType": "struct MultiToken.Asset",
          "name": "asset",
          "type": "tuple"
        },
        {
          "indexed": true,
          "internalType": "address",
          "name": "origin",
          "type": "address"
        }
      ],
      "name": "VaultPull",
      "type": "event"
    },
    {
      "anonymous": false,
      "inputs": [
        {
          "components": [
            {
              "internalType": "address",
              "name": "assetAddress",
              "type": "address"
            },
            {
              "internalType": "enum MultiToken.Category",
              "name": "category",
              "type": "uint8"
            },
            {
              "internalType": "uint256",
              "name": "amount",
              "type": "uint256"
            },
            {
              "internalType": "uint256",
              "name": "id",
              "type": "uint256"
            }
          ],
          "indexed": false,
          "internalType": "struct MultiToken.Asset",
          "name": "asset",
          "type": "tuple"
        },
        {
          "indexed": true,
          "internalType": "address",
          "name": "beneficiary",
          "type": "address"
        }
      ],
      "name": "VaultPush",
      "type": "event"
    },
    {
      "anonymous": false,
      "inputs": [
        {
          "components": [
            {
              "internalType": "address",
              "name": "assetAddress",
              "type": "address"
            },
            {
              "internalType": "enum MultiToken.Category",
              "name": "category",
              "type": "uint8"
            },
            {
              "internalType": "uint256",
              "name": "amount",
              "type": "uint256"
            },
            {
              "internalType": "uint256",
              "name": "id",
              "type": "uint256"
            }
          ],
          "indexed": false,
          "internalType": "struct MultiToken.Asset",
          "name": "asset",
          "type": "tuple"
        },
        {
          "indexed": true,
          "internalType": "address",
          "name": "origin",
          "type": "address"
        },
        {
          "indexed": true,
          "internalType": "address",
          "name": "beneficiary",
          "type": "address"
        }
      ],
      "name": "VaultPushFrom",
      "type": "event"
    },
    {
      "inputs": [],
      "name": "PWN",
      "outputs": [
        {
          "internalType": "address",
          "name": "",
          "type": "address"
        }
      ],
      "stateMutability": "view",
      "type": "function"
    },
    {
      "inputs": [
        {
          "internalType": "address",
          "name": "",
          "type": "address"
        },
        {
          "internalType": "address",
          "name": "",
          "type": "address"
        },
        {
          "internalType": "uint256[]",
          "name": "",
          "type": "uint256[]"
        },
        {
          "internalType": "uint256[]",
          "name": "",
          "type": "uint256[]"
        },
        {
          "internalType": "bytes",
          "name": "",
          "type": "bytes"
        }
      ],
      "name": "onERC1155BatchReceived",
      "outputs": [
        {
          "internalType": "bytes4",
          "name": "",
          "type": "bytes4"
        }
      ],
      "stateMutability": "pure",
      "type": "function"
    },
    {
      "inputs": [
        {
          "internalType": "address",
          "name": "",
          "type": "address"
        },
        {
          "internalType": "address",
          "name": "",
          "type": "address"
        },
        {
          "internalType": "uint256",
          "name": "",
          "type": "uint256"
        },
        {
          "internalType": "uint256",
          "name": "",
          "type": "uint256"
        },
        {
          "internalType": "bytes",
          "name": "",
          "type": "bytes"
        }
      ],
      "name": "onERC1155Received",
      "outputs": [
        {
          "internalType": "bytes4",
          "name": "",
          "type": "bytes4"
        }
      ],
      "stateMutability": "pure",
      "type": "function"
    },
    {
      "inputs": [
        {
          "internalType": "address",
          "name": "",
          "type": "address"
        },
        {
          "internalType": "address",
          "name": "",
          "type": "address"
        },
        {
          "internalType": "uint256",
          "name": "",
          "type": "uint256"
        },
        {
          "internalType": "bytes",
          "name": "",
          "type": "bytes"
        }
      ],
      "name": "onERC721Received",
      "outputs": [
        {
          "internalType": "bytes4",
          "name": "",
          "type": "bytes4"
        }
      ],
      "stateMutability": "pure",
      "type": "function"
    },
    {
      "inputs": [],
      "name": "owner",
      "outputs": [
        {
          "internalType": "address",
          "name": "",
          "type": "address"
        }
      ],
      "stateMutability": "view",
      "type": "function"
    },
    {
      "inputs": [
        {
          "components": [
            {
              "internalType": "address",
              "name": "assetAddress",
              "type": "address"
            },
            {
              "internalType": "enum MultiToken.Category",
              "name": "category",
              "type": "uint8"
            },
            {
              "internalType": "uint256",
              "name": "amount",
              "type": "uint256"
            },
            {
              "internalType": "uint256",
              "name": "id",
              "type": "uint256"
            }
          ],
          "internalType": "struct MultiToken.Asset",
          "name": "_asset",
          "type": "tuple"
        },
        {
          "internalType": "address",
          "name": "_origin",
          "type": "address"
        },
        {
          "internalType": "bytes",
          "name": "_permit",
          "type": "bytes"
        }
      ],
      "name": "pull",
      "outputs": [
        {
          "internalType": "bool",
          "name": "",
          "type": "bool"
        }
      ],
      "stateMutability": "nonpayable",
      "type": "function"
    },
    {
      "inputs": [
        {
          "components": [
            {
              "internalType": "address",
              "name": "assetAddress",
              "type": "address"
            },
            {
              "internalType": "enum MultiToken.Category",
              "name": "category",
              "type": "uint8"
            },
            {
              "internalType": "uint256",
              "name": "amount",
              "type": "uint256"
            },
            {
              "internalType": "uint256",
              "name": "id",
              "type": "uint256"
            }
          ],
          "internalType": "struct MultiToken.Asset",
          "name": "_asset",
          "type": "tuple"
        },
        {
          "internalType": "address",
          "name": "_beneficiary",
          "type": "address"
        }
      ],
      "name": "push",
      "outputs": [
        {
          "internalType": "bool",
          "name": "",
          "type": "bool"
        }
      ],
      "stateMutability": "nonpayable",
      "type": "function"
    },
    {
      "inputs": [
        {
          "components": [
            {
              "internalType": "address",
              "name": "assetAddress",
              "type": "address"
            },
            {
              "internalType": "enum MultiToken.Category",
              "name": "category",
              "type": "uint8"
            },
            {
              "internalType": "uint256",
              "name": "amount",
              "type": "uint256"
            },
            {
              "internalType": "uint256",
              "name": "id",
              "type": "uint256"
            }
          ],
          "internalType": "struct MultiToken.Asset",
          "name": "_asset",
          "type": "tuple"
        },
        {
          "internalType": "address",
          "name": "_origin",
          "type": "address"
        },
        {
          "internalType": "address",
          "name": "_beneficiary",
          "type": "address"
        },
        {
          "internalType": "bytes",
          "name": "_permit",
          "type": "bytes"
        }
      ],
      "name": "pushFrom",
      "outputs": [
        {
          "internalType": "bool",
          "name": "",
          "type": "bool"
        }
      ],
      "stateMutability": "nonpayable",
      "type": "function"
    },
    {
      "inputs": [],
      "name": "renounceOwnership",
      "outputs": [],
      "stateMutability": "nonpayable",
      "type": "function"
    },
    {
      "inputs": [
        {
          "internalType": "address",
          "name": "_address",
          "type": "address"
        }
      ],
      "name": "setPWN",
      "outputs": [],
      "stateMutability": "nonpayable",
      "type": "function"
    },
    {
      "inputs": [
        {
          "internalType": "bytes4",
          "name": "interfaceId",
          "type": "bytes4"
        }
      ],
      "name": "supportsInterface",
      "outputs": [
        {
          "internalType": "bool",
          "name": "",
          "type": "bool"
        }
      ],
      "stateMutability": "pure",
      "type": "function"
    },
    {
      "inputs": [
        {
          "internalType": "address",
          "name": "newOwner",
          "type": "address"
        }
      ],
      "name": "transferOwnership",
      "outputs": [],
      "stateMutability": "nonpayable",
      "type": "function"
    }
  ],
  "bytecode": "0x608060405234801561001057600080fd5b5061001a3361001f565b61006f565b600080546001600160a01b038381166001600160a01b0319831681178455604051919092169283917f8be0079c531659141344cd1fd0a4f28419497f9722a3daafe3b4186f6b6457e09190a35050565b6111ae8061007e6000396000f3fe608060405234801561001057600080fd5b50600436106100b45760003560e01c80638c26ba0c116100715780638c26ba0c146101745780638da5cb5b14610187578063bc197c8114610198578063e13b47f7146101ba578063f23a6e61146101cd578063f2fde38b146101ed57600080fd5b806301ffc9a7146100b9578063150b7a02146100e15780635080d49214610119578063715018a61461012c5780637c95e34a14610136578063805094c714610149575b600080fd5b6100cc6100c7366004610f26565b610200565b60405190151581526020015b60405180910390f35b6101006100ef366004610e23565b630a85bd0160e11b95945050505050565b6040516001600160e01b031990911681526020016100d8565b6100cc610127366004610fef565b610288565b610134610327565b005b6100cc610144366004610f4e565b61035d565b60015461015c906001600160a01b031681565b6040516001600160a01b0390911681526020016100d8565b610134610182366004610d4b565b6103de565b6000546001600160a01b031661015c565b6101006101a6366004610d6c565b63bc197c8160e01b98975050505050505050565b6100cc6101c8366004610f81565b61042a565b6101006101db366004610e90565b63f23a6e6160e01b9695505050505050565b6101346101fb366004610d4b565b6104cb565b60006001600160e01b031982166301ffc9a760e01b148061023157506001600160e01b03198216630704183b60e11b145b8061024c57506001600160e01b03198216630a85bd0160e11b145b8061026757506001600160e01b03198216630271189760e51b145b8061028257506001600160e01b0319821663305617b960e21b145b92915050565b6001546000906001600160a01b031633146102be5760405162461bcd60e51b81526004016102b590611084565b60405180910390fd5b8151156102d1576102d184843085610566565b6102dc848430610755565b826001600160a01b03167f7afe4d28a8b28f36043a4efb76fd76734f72ab668f4ff0cd63164bb9357b83e58560405161031591906110e8565b60405180910390a25060019392505050565b6000546001600160a01b031633146103515760405162461bcd60e51b81526004016102b5906110b3565b61035b6000610982565b565b6001546000906001600160a01b0316331461038a5760405162461bcd60e51b81526004016102b590611084565b61039483836109d2565b816001600160a01b03167f1f93aaa10a96701ea3371e37145654d4fa901bed129df7ecce75ec1720ce675d846040516103cd91906110e8565b60405180910390a250600192915050565b6000546001600160a01b031633146104085760405162461bcd60e51b81526004016102b5906110b3565b600180546001600160a01b0319166001600160a01b0392909216919091179055565b6001546000906001600160a01b031633146104575760405162461bcd60e51b81526004016102b590611084565b81511561046a5761046a85853085610566565b610475858585610755565b826001600160a01b0316846001600160a01b03167fa56c8ed66794d77281d6aea0d94c80efe86b229490ee4709f3c089f14d6d76f0876040516104b891906110e8565b60405180910390a3506001949350505050565b6000546001600160a01b031633146104f55760405162461bcd60e51b81526004016102b5906110b3565b6001600160a01b03811661055a5760405162461bcd60e51b815260206004820152602660248201527f4f776e61626c653a206e6577206f776e657220697320746865207a65726f206160448201526564647265737360d01b60648201526084016102b5565b61056381610982565b50565b60008460200151600281111561058c57634e487b7160e01b600052602160045260246000fd5b14156106f6576000806000808451606114156105c25750505050602081015160408201516060830151608084015160001a61065d565b8451606014156106035760208501516040860151606087015191955093506001600160ff1b03811692506105fb60ff82901c601b61113e565b91505061065d565b60405162461bcd60e51b815260206004820152602960248201527f4d756c7469546f6b656e3a3a5065726d69743a20496e76616c6964207065726d6044820152680d2e840d8cadccee8d60bb1b60648201526084016102b5565b87516040808a0151905163d505accf60e01b81526001600160a01b038a81166004830152898116602483015260448201929092526064810187905260ff8416608482015260a4810186905260c4810185905291169063d505accf9060e401600060405180830381600087803b1580156106d557600080fd5b505af11580156106e9573d6000803e3d6000fd5b505050505050505061074f565b60405162461bcd60e51b815260206004820152602860248201527f4d756c7469546f6b656e3a3a5065726d69743a20556e737570706f727465642060448201526763617465676f727960c01b60648201526084016102b5565b50505050565b60008360200151600281111561077b57634e487b7160e01b600052602160045260246000fd5b141561081b57825160408085015190516323b872dd60e01b81526001600160a01b03858116600483015284811660248301526044820192909252908216906323b872dd90606401602060405180830381600087803b1580156107dc57600080fd5b505af11580156107f0573d6000803e3d6000fd5b505050506040513d601f19601f820116820180604052508101906108149190610f06565b5050505050565b60018360200151600281111561084157634e487b7160e01b600052602160045260246000fd5b14156108c15782516060840151604051632142170760e11b81526001600160a01b03858116600483015284811660248301526044820192909252908216906342842e0e906064015b600060405180830381600087803b1580156108a357600080fd5b505af11580156108b7573d6000803e3d6000fd5b5050505050505050565b6002836020015160028111156108e757634e487b7160e01b600052602160045260246000fd5b141561093a578251604084015161090057600160408501525b60608401516040808601519051637921219560e11b81526001600160a01b0384169263f242432a926108899288928892909160040161104c565b60405162461bcd60e51b815260206004820181905260248201527f4d756c7469546f6b656e3a20556e737570706f727465642063617465676f727960448201526064016102b5565b600080546001600160a01b038381166001600160a01b0319831681178455604051919092169283917f8be0079c531659141344cd1fd0a4f28419497f9722a3daafe3b4186f6b6457e09190a35050565b6000826020015160028111156109f857634e487b7160e01b600052602160045260246000fd5b1415610a89578151604080840151905163a9059cbb60e01b81526001600160a01b03848116600483015260248201929092529082169063a9059cbb90604401602060405180830381600087803b158015610a5157600080fd5b505af1158015610a65573d6000803e3d6000fd5b505050506040513d601f19601f8201168201806040525081019061074f9190610f06565b600182602001516002811115610aaf57634e487b7160e01b600052602160045260246000fd5b1415610b2c5781516060830151604051632142170760e11b81523060048201526001600160a01b0384811660248301526044820192909252908216906342842e0e906064015b600060405180830381600087803b158015610b0f57600080fd5b505af1158015610b23573d6000803e3d6000fd5b50505050505050565b600282602001516002811115610b5257634e487b7160e01b600052602160045260246000fd5b141561093a5781516040830151610b6b57600160408401525b60608301516040808501519051637921219560e11b81526001600160a01b0384169263f242432a92610af59230928892909160040161104c565b80356001600160a01b0381168114610bbc57600080fd5b919050565b60008083601f840112610bd2578081fd5b50813567ffffffffffffffff811115610be9578182fd5b6020830191508360208260051b8501011115610c0457600080fd5b9250929050565b60008083601f840112610c1c578182fd5b50813567ffffffffffffffff811115610c33578182fd5b602083019150836020828501011115610c0457600080fd5b600082601f830112610c5b578081fd5b813567ffffffffffffffff80821115610c7657610c76611162565b604051601f8301601f19908116603f01168101908282118183101715610c9e57610c9e611162565b81604052838152866020858801011115610cb6578485fd5b8360208701602083013792830160200193909352509392505050565b600060808284031215610ce3578081fd5b6040516080810181811067ffffffffffffffff82111715610d0657610d06611162565b604052905080610d1583610ba5565b8152602083013560038110610d2957600080fd5b8060208301525060408301356040820152606083013560608201525092915050565b600060208284031215610d5c578081fd5b610d6582610ba5565b9392505050565b60008060008060008060008060a0898b031215610d87578384fd5b610d9089610ba5565b9750610d9e60208a01610ba5565b9650604089013567ffffffffffffffff80821115610dba578586fd5b610dc68c838d01610bc1565b909850965060608b0135915080821115610dde578586fd5b610dea8c838d01610bc1565b909650945060808b0135915080821115610e02578384fd5b50610e0f8b828c01610c0b565b999c989b5096995094979396929594505050565b600080600080600060808688031215610e3a578081fd5b610e4386610ba5565b9450610e5160208701610ba5565b935060408601359250606086013567ffffffffffffffff811115610e73578182fd5b610e7f88828901610c0b565b969995985093965092949392505050565b60008060008060008060a08789031215610ea8578182fd5b610eb187610ba5565b9550610ebf60208801610ba5565b94506040870135935060608701359250608087013567ffffffffffffffff811115610ee8578283fd5b610ef489828a01610c0b565b979a9699509497509295939492505050565b600060208284031215610f17578081fd5b81518015158114610d65578182fd5b600060208284031215610f37578081fd5b81356001600160e01b031981168114610d65578182fd5b60008060a08385031215610f60578182fd5b610f6a8484610cd2565b9150610f7860808401610ba5565b90509250929050565b60008060008060e08587031215610f96578384fd5b610fa08686610cd2565b9350610fae60808601610ba5565b9250610fbc60a08601610ba5565b915060c085013567ffffffffffffffff811115610fd7578182fd5b610fe387828801610c4b565b91505092959194509250565b600080600060c08486031215611003578283fd5b61100d8585610cd2565b925061101b60808501610ba5565b915060a084013567ffffffffffffffff811115611036578182fd5b61104286828701610c4b565b9150509250925092565b6001600160a01b0394851681529290931660208301526040820152606081019190915260a06080820181905260009082015260c00190565b60208082526015908201527421b0b63632b91034b9903737ba103a343290282ba760591b604082015260600190565b6020808252818101527f4f776e61626c653a2063616c6c6572206973206e6f7420746865206f776e6572604082015260600190565b81516001600160a01b03168152602082015160808201906003811061111d57634e487b7160e01b600052602160045260246000fd5b80602084015250604083015160408301526060830151606083015292915050565b6000821982111561115d57634e487b7160e01b81526011600452602481fd5b500190565b634e487b7160e01b600052604160045260246000fdfea26469706673582212201e826b4b343c9a1eab8f4c34779edc2d23c0efcc62b2e299d4bbce555de5fe4064736f6c63430008040033",
  "linkReferences": {},
  "deployedLinkReferences": {}
}