{
  "_format": "hh-sol-artifact-1",
  "contractName": "PWNVault",
  "sourceName": "contracts/PWNVault.sol",
  "abi": [
    {
      "inputs": [],
      "stateMutability": "nonpayable",
      "type": "constructor"
    },
    {
      "anonymous": false,
      "inputs": [
        {
          "indexed": true,
          "internalType": "address",
          "name": "previousOwner",
          "type": "address"
        },
        {
          "indexed": true,
          "internalType": "address",
          "name": "newOwner",
          "type": "address"
        }
      ],
      "name": "OwnershipTransferred",
      "type": "event"
    },
    {
      "anonymous": false,
      "inputs": [
        {
          "components": [
            {
              "internalType": "enum MultiToken.Category",
              "name": "category",
              "type": "uint8"
            },
            {
              "internalType": "address",
              "name": "assetAddress",
              "type": "address"
            },
            {
              "internalType": "uint256",
              "name": "id",
              "type": "uint256"
            },
            {
              "internalType": "uint256",
              "name": "amount",
              "type": "uint256"
            }
          ],
          "indexed": false,
          "internalType": "struct MultiToken.Asset",
          "name": "asset",
          "type": "tuple"
        },
        {
          "indexed": true,
          "internalType": "address",
          "name": "origin",
          "type": "address"
        }
      ],
      "name": "VaultPull",
      "type": "event"
    },
    {
      "anonymous": false,
      "inputs": [
        {
          "components": [
            {
              "internalType": "enum MultiToken.Category",
              "name": "category",
              "type": "uint8"
            },
            {
              "internalType": "address",
              "name": "assetAddress",
              "type": "address"
            },
            {
              "internalType": "uint256",
              "name": "id",
              "type": "uint256"
            },
            {
              "internalType": "uint256",
              "name": "amount",
              "type": "uint256"
            }
          ],
          "indexed": false,
          "internalType": "struct MultiToken.Asset",
          "name": "asset",
          "type": "tuple"
        },
        {
          "indexed": true,
          "internalType": "address",
          "name": "beneficiary",
          "type": "address"
        }
      ],
      "name": "VaultPush",
      "type": "event"
    },
    {
      "anonymous": false,
      "inputs": [
        {
          "components": [
            {
              "internalType": "enum MultiToken.Category",
              "name": "category",
              "type": "uint8"
            },
            {
              "internalType": "address",
              "name": "assetAddress",
              "type": "address"
            },
            {
              "internalType": "uint256",
              "name": "id",
              "type": "uint256"
            },
            {
              "internalType": "uint256",
              "name": "amount",
              "type": "uint256"
            }
          ],
          "indexed": false,
          "internalType": "struct MultiToken.Asset",
          "name": "asset",
          "type": "tuple"
        },
        {
          "indexed": true,
          "internalType": "address",
          "name": "origin",
          "type": "address"
        },
        {
          "indexed": true,
          "internalType": "address",
          "name": "beneficiary",
          "type": "address"
        }
      ],
      "name": "VaultPushFrom",
      "type": "event"
    },
    {
      "inputs": [],
      "name": "PWN",
      "outputs": [
        {
          "internalType": "address",
          "name": "",
          "type": "address"
        }
      ],
      "stateMutability": "view",
      "type": "function"
    },
    {
      "inputs": [
        {
          "internalType": "address",
          "name": "",
          "type": "address"
        },
        {
          "internalType": "address",
          "name": "",
          "type": "address"
        },
        {
          "internalType": "uint256[]",
          "name": "",
          "type": "uint256[]"
        },
        {
          "internalType": "uint256[]",
          "name": "",
          "type": "uint256[]"
        },
        {
          "internalType": "bytes",
          "name": "",
          "type": "bytes"
        }
      ],
      "name": "onERC1155BatchReceived",
      "outputs": [
        {
          "internalType": "bytes4",
          "name": "",
          "type": "bytes4"
        }
      ],
      "stateMutability": "pure",
      "type": "function"
    },
    {
      "inputs": [
        {
          "internalType": "address",
          "name": "",
          "type": "address"
        },
        {
          "internalType": "address",
          "name": "",
          "type": "address"
        },
        {
          "internalType": "uint256",
          "name": "",
          "type": "uint256"
        },
        {
          "internalType": "uint256",
          "name": "",
          "type": "uint256"
        },
        {
          "internalType": "bytes",
          "name": "",
          "type": "bytes"
        }
      ],
      "name": "onERC1155Received",
      "outputs": [
        {
          "internalType": "bytes4",
          "name": "",
          "type": "bytes4"
        }
      ],
      "stateMutability": "pure",
      "type": "function"
    },
    {
      "inputs": [
        {
          "internalType": "address",
          "name": "",
          "type": "address"
        },
        {
          "internalType": "address",
          "name": "",
          "type": "address"
        },
        {
          "internalType": "uint256",
          "name": "",
          "type": "uint256"
        },
        {
          "internalType": "bytes",
          "name": "",
          "type": "bytes"
        }
      ],
      "name": "onERC721Received",
      "outputs": [
        {
          "internalType": "bytes4",
          "name": "",
          "type": "bytes4"
        }
      ],
      "stateMutability": "pure",
      "type": "function"
    },
    {
      "inputs": [],
      "name": "owner",
      "outputs": [
        {
          "internalType": "address",
          "name": "",
          "type": "address"
        }
      ],
      "stateMutability": "view",
      "type": "function"
    },
    {
      "inputs": [
        {
          "components": [
            {
              "internalType": "enum MultiToken.Category",
              "name": "category",
              "type": "uint8"
            },
            {
              "internalType": "address",
              "name": "assetAddress",
              "type": "address"
            },
            {
              "internalType": "uint256",
              "name": "id",
              "type": "uint256"
            },
            {
              "internalType": "uint256",
              "name": "amount",
              "type": "uint256"
            }
          ],
          "internalType": "struct MultiToken.Asset",
          "name": "_asset",
          "type": "tuple"
        },
        {
          "internalType": "address",
          "name": "_origin",
          "type": "address"
        },
        {
          "internalType": "bytes",
          "name": "_permit",
          "type": "bytes"
        }
      ],
      "name": "pull",
      "outputs": [
        {
          "internalType": "bool",
          "name": "",
          "type": "bool"
        }
      ],
      "stateMutability": "nonpayable",
      "type": "function"
    },
    {
      "inputs": [
        {
          "components": [
            {
              "internalType": "enum MultiToken.Category",
              "name": "category",
              "type": "uint8"
            },
            {
              "internalType": "address",
              "name": "assetAddress",
              "type": "address"
            },
            {
              "internalType": "uint256",
              "name": "id",
              "type": "uint256"
            },
            {
              "internalType": "uint256",
              "name": "amount",
              "type": "uint256"
            }
          ],
          "internalType": "struct MultiToken.Asset",
          "name": "_asset",
          "type": "tuple"
        },
        {
          "internalType": "address",
          "name": "_beneficiary",
          "type": "address"
        }
      ],
      "name": "push",
      "outputs": [
        {
          "internalType": "bool",
          "name": "",
          "type": "bool"
        }
      ],
      "stateMutability": "nonpayable",
      "type": "function"
    },
    {
      "inputs": [
        {
          "components": [
            {
              "internalType": "enum MultiToken.Category",
              "name": "category",
              "type": "uint8"
            },
            {
              "internalType": "address",
              "name": "assetAddress",
              "type": "address"
            },
            {
              "internalType": "uint256",
              "name": "id",
              "type": "uint256"
            },
            {
              "internalType": "uint256",
              "name": "amount",
              "type": "uint256"
            }
          ],
          "internalType": "struct MultiToken.Asset",
          "name": "_asset",
          "type": "tuple"
        },
        {
          "internalType": "address",
          "name": "_origin",
          "type": "address"
        },
        {
          "internalType": "address",
          "name": "_beneficiary",
          "type": "address"
        },
        {
          "internalType": "bytes",
          "name": "_permit",
          "type": "bytes"
        }
      ],
      "name": "pushFrom",
      "outputs": [
        {
          "internalType": "bool",
          "name": "",
          "type": "bool"
        }
      ],
      "stateMutability": "nonpayable",
      "type": "function"
    },
    {
      "inputs": [],
      "name": "renounceOwnership",
      "outputs": [],
      "stateMutability": "nonpayable",
      "type": "function"
    },
    {
      "inputs": [
        {
          "internalType": "address",
          "name": "_address",
          "type": "address"
        }
      ],
      "name": "setPWN",
      "outputs": [],
      "stateMutability": "nonpayable",
      "type": "function"
    },
    {
      "inputs": [
        {
          "internalType": "bytes4",
          "name": "interfaceId",
          "type": "bytes4"
        }
      ],
      "name": "supportsInterface",
      "outputs": [
        {
          "internalType": "bool",
          "name": "",
          "type": "bool"
        }
      ],
      "stateMutability": "pure",
      "type": "function"
    },
    {
      "inputs": [
        {
          "internalType": "address",
          "name": "newOwner",
          "type": "address"
        }
      ],
      "name": "transferOwnership",
      "outputs": [],
      "stateMutability": "nonpayable",
      "type": "function"
    }
  ],
  "bytecode": "0x608060405234801561001057600080fd5b5061001a3361001f565b61006f565b600080546001600160a01b038381166001600160a01b0319831681178455604051919092169283917f8be0079c531659141344cd1fd0a4f28419497f9722a3daafe3b4186f6b6457e09190a35050565b6111a98061007e6000396000f3fe608060405234801561001057600080fd5b50600436106100b45760003560e01c80638c26ba0c116100715780638c26ba0c146101745780638da5cb5b14610187578063bc197c8114610198578063be48d96d146101ba578063f23a6e61146101cd578063f2fde38b146101ed57600080fd5b806301ffc9a7146100b9578063150b7a02146100e1578063230a13fd146101195780632816bd3a1461012c578063715018a61461013f578063805094c714610149575b600080fd5b6100cc6100c7366004610f22565b610200565b60405190151581526020015b60405180910390f35b6101006100ef366004610e1f565b630a85bd0160e11b95945050505050565b6040516001600160e01b031990911681526020016100d8565b6100cc610127366004610f7d565b610288565b6100cc61013a366004610feb565b610332565b6101476103c8565b005b60015461015c906001600160a01b031681565b6040516001600160a01b0390911681526020016100d8565b610147610182366004610d47565b6103fe565b6000546001600160a01b031661015c565b6101006101a6366004610d68565b63bc197c8160e01b98975050505050505050565b6100cc6101c8366004610f4a565b61044a565b6101006101db366004610e8c565b63f23a6e6160e01b9695505050505050565b6101476101fb366004610d47565b6104cb565b60006001600160e01b031982166301ffc9a760e01b148061023157506001600160e01b03198216630704183b60e11b145b8061024c57506001600160e01b03198216630a85bd0160e11b145b8061026757506001600160e01b03198216630271189760e51b145b8061028257506001600160e01b0319821663b922596160e01b145b92915050565b6001546000906001600160a01b031633146102be5760405162461bcd60e51b81526004016102b590611080565b60405180910390fd5b8151156102d1576102d185853085610566565b6102dc858585610755565b826001600160a01b0316846001600160a01b03167f0272ef83f5953daad3d7708e6b4442e126f1e049e62a01c1fc53683f3277199c8760405161031f91906110e4565b60405180910390a3506001949350505050565b6001546000906001600160a01b0316331461035f5760405162461bcd60e51b81526004016102b590611080565b8151156103725761037284843085610566565b61037d848430610755565b826001600160a01b03167f019fcaae912e42069954835069f1c8184411022f86cf749694625f2a2313b6ab856040516103b691906110e4565b60405180910390a25060019392505050565b6000546001600160a01b031633146103f25760405162461bcd60e51b81526004016102b5906110af565b6103fc6000610981565b565b6000546001600160a01b031633146104285760405162461bcd60e51b81526004016102b5906110af565b600180546001600160a01b0319166001600160a01b0392909216919091179055565b6001546000906001600160a01b031633146104775760405162461bcd60e51b81526004016102b590611080565b61048183836109d1565b816001600160a01b03167fc2b8da69776ffa72ca2d7c4a31390d57bd4871cef8066bbe7f1e5bf220a310f1846040516104ba91906110e4565b60405180910390a250600192915050565b6000546001600160a01b031633146104f55760405162461bcd60e51b81526004016102b5906110af565b6001600160a01b03811661055a5760405162461bcd60e51b815260206004820152602660248201527f4f776e61626c653a206e6577206f776e657220697320746865207a65726f206160448201526564647265737360d01b60648201526084016102b5565b61056381610981565b50565b60008451600281111561058957634e487b7160e01b600052602160045260246000fd5b14156106f6576000806000808451606114156105bf5750505050602081015160408201516060830151608084015160001a61065a565b8451606014156106005760208501516040860151606087015191955093506001600160ff1b03811692506105f860ff82901c601b611139565b91505061065a565b60405162461bcd60e51b815260206004820152602960248201527f4d756c7469546f6b656e3a3a5065726d69743a20496e76616c6964207065726d6044820152680d2e840d8cadccee8d60bb1b60648201526084016102b5565b6020880151606089015160405163d505accf60e01b81526001600160a01b038a81166004830152898116602483015260448201929092526064810187905260ff8416608482015260a4810186905260c4810185905291169063d505accf9060e401600060405180830381600087803b1580156106d557600080fd5b505af11580156106e9573d6000803e3d6000fd5b505050505050505061074f565b60405162461bcd60e51b815260206004820152602860248201527f4d756c7469546f6b656e3a3a5065726d69743a20556e737570706f727465642060448201526763617465676f727960c01b60648201526084016102b5565b50505050565b60008351600281111561077857634e487b7160e01b600052602160045260246000fd5b141561081b57602083015160608401516040516323b872dd60e01b81526001600160a01b03858116600483015284811660248301526044820192909252908216906323b872dd90606401602060405180830381600087803b1580156107dc57600080fd5b505af11580156107f0573d6000803e3d6000fd5b505050506040513d601f19601f820116820180604052508101906108149190610f02565b5050505050565b60018351600281111561083e57634e487b7160e01b600052602160045260246000fd5b14156108c15760208301516040808501519051632142170760e11b81526001600160a01b03858116600483015284811660248301526044820192909252908216906342842e0e906064015b600060405180830381600087803b1580156108a357600080fd5b505af11580156108b7573d6000803e3d6000fd5b5050505050505050565b6002835160028111156108e457634e487b7160e01b600052602160045260246000fd5b1415610939576020830151606084015161090057600160608501525b60408085015160608601519151637921219560e11b81526001600160a01b0384169263f242432a92610889928892889291600401611048565b60405162461bcd60e51b815260206004820181905260248201527f4d756c7469546f6b656e3a20556e737570706f727465642063617465676f727960448201526064016102b5565b600080546001600160a01b038381166001600160a01b0319831681178455604051919092169283917f8be0079c531659141344cd1fd0a4f28419497f9722a3daafe3b4186f6b6457e09190a35050565b6000825160028111156109f457634e487b7160e01b600052602160045260246000fd5b1415610a88576020820151606083015160405163a9059cbb60e01b81526001600160a01b03848116600483015260248201929092529082169063a9059cbb90604401602060405180830381600087803b158015610a5057600080fd5b505af1158015610a64573d6000803e3d6000fd5b505050506040513d601f19601f8201168201806040525081019061074f9190610f02565b600182516002811115610aab57634e487b7160e01b600052602160045260246000fd5b1415610b2b5760208201516040808401519051632142170760e11b81523060048201526001600160a01b0384811660248301526044820192909252908216906342842e0e906064015b600060405180830381600087803b158015610b0e57600080fd5b505af1158015610b22573d6000803e3d6000fd5b50505050505050565b600282516002811115610b4e57634e487b7160e01b600052602160045260246000fd5b14156109395760208201516060830151610b6a57600160608401525b60408084015160608501519151637921219560e11b81526001600160a01b0384169263f242432a92610af4923092889291600401611048565b80356001600160a01b0381168114610bba57600080fd5b919050565b60008083601f840112610bd0578081fd5b50813567ffffffffffffffff811115610be7578182fd5b6020830191508360208260051b8501011115610c0257600080fd5b9250929050565b60008083601f840112610c1a578182fd5b50813567ffffffffffffffff811115610c31578182fd5b602083019150836020828501011115610c0257600080fd5b600082601f830112610c59578081fd5b813567ffffffffffffffff80821115610c7457610c7461115d565b604051601f8301601f19908116603f01168101908282118183101715610c9c57610c9c61115d565b81604052838152866020858801011115610cb4578485fd5b8360208701602083013792830160200193909352509392505050565b600060808284031215610ce1578081fd5b6040516080810181811067ffffffffffffffff82111715610d0457610d0461115d565b604052905080823560038110610d1957600080fd5b8152610d2760208401610ba3565b602082015260408301356040820152606083013560608201525092915050565b600060208284031215610d58578081fd5b610d6182610ba3565b9392505050565b60008060008060008060008060a0898b031215610d83578384fd5b610d8c89610ba3565b9750610d9a60208a01610ba3565b9650604089013567ffffffffffffffff80821115610db6578586fd5b610dc28c838d01610bbf565b909850965060608b0135915080821115610dda578586fd5b610de68c838d01610bbf565b909650945060808b0135915080821115610dfe578384fd5b50610e0b8b828c01610c09565b999c989b5096995094979396929594505050565b600080600080600060808688031215610e36578081fd5b610e3f86610ba3565b9450610e4d60208701610ba3565b935060408601359250606086013567ffffffffffffffff811115610e6f578182fd5b610e7b88828901610c09565b969995985093965092949392505050565b60008060008060008060a08789031215610ea4578182fd5b610ead87610ba3565b9550610ebb60208801610ba3565b94506040870135935060608701359250608087013567ffffffffffffffff811115610ee4578283fd5b610ef089828a01610c09565b979a9699509497509295939492505050565b600060208284031215610f13578081fd5b81518015158114610d61578182fd5b600060208284031215610f33578081fd5b81356001600160e01b031981168114610d61578182fd5b60008060a08385031215610f5c578182fd5b610f668484610cd0565b9150610f7460808401610ba3565b90509250929050565b60008060008060e08587031215610f92578384fd5b610f9c8686610cd0565b9350610faa60808601610ba3565b9250610fb860a08601610ba3565b915060c085013567ffffffffffffffff811115610fd3578182fd5b610fdf87828801610c49565b91505092959194509250565b600080600060c08486031215610fff578283fd5b6110098585610cd0565b925061101760808501610ba3565b915060a084013567ffffffffffffffff811115611032578182fd5b61103e86828701610c49565b9150509250925092565b6001600160a01b0394851681529290931660208301526040820152606081019190915260a06080820181905260009082015260c00190565b60208082526015908201527421b0b63632b91034b9903737ba103a343290282ba760591b604082015260600190565b6020808252818101527f4f776e61626c653a2063616c6c6572206973206e6f7420746865206f776e6572604082015260600190565b815160808201906003811061110957634e487b7160e01b600052602160045260246000fd5b82526020838101516001600160a01b03169083015260408084015190830152606092830151929091019190915290565b6000821982111561115857634e487b7160e01b81526011600452602481fd5b500190565b634e487b7160e01b600052604160045260246000fdfea26469706673582212200864289ec16c8f840758f642fdcad99c0e552d077b6ba5bfec6b121109da33c164736f6c63430008040033",
  "linkReferences": {},
  "deployedLinkReferences": {}
}