{
  "_format": "hh-sol-artifact-1",
  "contractName": "PWNVault",
  "sourceName": "contracts/PWNVault.sol",
  "abi": [
    {
      "inputs": [],
      "stateMutability": "nonpayable",
      "type": "constructor"
    },
    {
      "anonymous": false,
      "inputs": [
        {
          "indexed": true,
          "internalType": "address",
          "name": "previousOwner",
          "type": "address"
        },
        {
          "indexed": true,
          "internalType": "address",
          "name": "newOwner",
          "type": "address"
        }
      ],
      "name": "OwnershipTransferred",
      "type": "event"
    },
    {
      "anonymous": false,
      "inputs": [
        {
          "components": [
            {
              "internalType": "address",
              "name": "assetAddress",
              "type": "address"
            },
            {
              "internalType": "enum MultiToken.Category",
              "name": "category",
              "type": "uint8"
            },
            {
              "internalType": "uint256",
              "name": "amount",
              "type": "uint256"
            },
            {
              "internalType": "uint256",
              "name": "id",
              "type": "uint256"
            }
          ],
          "indexed": false,
          "internalType": "struct MultiToken.Asset",
          "name": "asset",
          "type": "tuple"
        },
        {
          "indexed": true,
          "internalType": "address",
          "name": "origin",
          "type": "address"
        }
      ],
      "name": "VaultPull",
      "type": "event"
    },
    {
      "anonymous": false,
      "inputs": [
        {
          "components": [
            {
              "internalType": "address",
              "name": "assetAddress",
              "type": "address"
            },
            {
              "internalType": "enum MultiToken.Category",
              "name": "category",
              "type": "uint8"
            },
            {
              "internalType": "uint256",
              "name": "amount",
              "type": "uint256"
            },
            {
              "internalType": "uint256",
              "name": "id",
              "type": "uint256"
            }
          ],
          "indexed": false,
          "internalType": "struct MultiToken.Asset",
          "name": "asset",
          "type": "tuple"
        },
        {
          "indexed": true,
          "internalType": "address",
          "name": "beneficiary",
          "type": "address"
        }
      ],
      "name": "VaultPush",
      "type": "event"
    },
    {
      "anonymous": false,
      "inputs": [
        {
          "components": [
            {
              "internalType": "address",
              "name": "assetAddress",
              "type": "address"
            },
            {
              "internalType": "enum MultiToken.Category",
              "name": "category",
              "type": "uint8"
            },
            {
              "internalType": "uint256",
              "name": "amount",
              "type": "uint256"
            },
            {
              "internalType": "uint256",
              "name": "id",
              "type": "uint256"
            }
          ],
          "indexed": false,
          "internalType": "struct MultiToken.Asset",
          "name": "asset",
          "type": "tuple"
        },
        {
          "indexed": true,
          "internalType": "address",
          "name": "origin",
          "type": "address"
        },
        {
          "indexed": true,
          "internalType": "address",
          "name": "beneficiary",
          "type": "address"
        }
      ],
      "name": "VaultPushFrom",
      "type": "event"
    },
    {
      "inputs": [],
      "name": "PWN",
      "outputs": [
        {
          "internalType": "address",
          "name": "",
          "type": "address"
        }
      ],
      "stateMutability": "view",
      "type": "function"
    },
    {
      "inputs": [
        {
          "internalType": "address",
          "name": "",
          "type": "address"
        },
        {
          "internalType": "address",
          "name": "",
          "type": "address"
        },
        {
          "internalType": "uint256[]",
          "name": "",
          "type": "uint256[]"
        },
        {
          "internalType": "uint256[]",
          "name": "",
          "type": "uint256[]"
        },
        {
          "internalType": "bytes",
          "name": "",
          "type": "bytes"
        }
      ],
      "name": "onERC1155BatchReceived",
      "outputs": [
        {
          "internalType": "bytes4",
          "name": "",
          "type": "bytes4"
        }
      ],
      "stateMutability": "pure",
      "type": "function"
    },
    {
      "inputs": [
        {
          "internalType": "address",
          "name": "",
          "type": "address"
        },
        {
          "internalType": "address",
          "name": "",
          "type": "address"
        },
        {
          "internalType": "uint256",
          "name": "",
          "type": "uint256"
        },
        {
          "internalType": "uint256",
          "name": "",
          "type": "uint256"
        },
        {
          "internalType": "bytes",
          "name": "",
          "type": "bytes"
        }
      ],
      "name": "onERC1155Received",
      "outputs": [
        {
          "internalType": "bytes4",
          "name": "",
          "type": "bytes4"
        }
      ],
      "stateMutability": "pure",
      "type": "function"
    },
    {
      "inputs": [],
      "name": "owner",
      "outputs": [
        {
          "internalType": "address",
          "name": "",
          "type": "address"
        }
      ],
      "stateMutability": "view",
      "type": "function"
    },
    {
      "inputs": [
        {
          "components": [
            {
              "internalType": "address",
              "name": "assetAddress",
              "type": "address"
            },
            {
              "internalType": "enum MultiToken.Category",
              "name": "category",
              "type": "uint8"
            },
            {
              "internalType": "uint256",
              "name": "amount",
              "type": "uint256"
            },
            {
              "internalType": "uint256",
              "name": "id",
              "type": "uint256"
            }
          ],
          "internalType": "struct MultiToken.Asset",
          "name": "_asset",
          "type": "tuple"
        },
        {
          "internalType": "address",
          "name": "_origin",
          "type": "address"
        }
      ],
      "name": "pull",
      "outputs": [
        {
          "internalType": "bool",
          "name": "",
          "type": "bool"
        }
      ],
      "stateMutability": "nonpayable",
      "type": "function"
    },
    {
      "inputs": [
        {
          "components": [
            {
              "internalType": "address",
              "name": "assetAddress",
              "type": "address"
            },
            {
              "internalType": "enum MultiToken.Category",
              "name": "category",
              "type": "uint8"
            },
            {
              "internalType": "uint256",
              "name": "amount",
              "type": "uint256"
            },
            {
              "internalType": "uint256",
              "name": "id",
              "type": "uint256"
            }
          ],
          "internalType": "struct MultiToken.Asset",
          "name": "_asset",
          "type": "tuple"
        },
        {
          "internalType": "address",
          "name": "_beneficiary",
          "type": "address"
        }
      ],
      "name": "push",
      "outputs": [
        {
          "internalType": "bool",
          "name": "",
          "type": "bool"
        }
      ],
      "stateMutability": "nonpayable",
      "type": "function"
    },
    {
      "inputs": [
        {
          "components": [
            {
              "internalType": "address",
              "name": "assetAddress",
              "type": "address"
            },
            {
              "internalType": "enum MultiToken.Category",
              "name": "category",
              "type": "uint8"
            },
            {
              "internalType": "uint256",
              "name": "amount",
              "type": "uint256"
            },
            {
              "internalType": "uint256",
              "name": "id",
              "type": "uint256"
            }
          ],
          "internalType": "struct MultiToken.Asset",
          "name": "_asset",
          "type": "tuple"
        },
        {
          "internalType": "address",
          "name": "_origin",
          "type": "address"
        },
        {
          "internalType": "address",
          "name": "_beneficiary",
          "type": "address"
        }
      ],
      "name": "pushFrom",
      "outputs": [
        {
          "internalType": "bool",
          "name": "",
          "type": "bool"
        }
      ],
      "stateMutability": "nonpayable",
      "type": "function"
    },
    {
      "inputs": [],
      "name": "renounceOwnership",
      "outputs": [],
      "stateMutability": "nonpayable",
      "type": "function"
    },
    {
      "inputs": [
        {
          "internalType": "address",
          "name": "_address",
          "type": "address"
        }
      ],
      "name": "setPWN",
      "outputs": [],
      "stateMutability": "nonpayable",
      "type": "function"
    },
    {
      "inputs": [
        {
          "internalType": "bytes4",
          "name": "interfaceId",
          "type": "bytes4"
        }
      ],
      "name": "supportsInterface",
      "outputs": [
        {
          "internalType": "bool",
          "name": "",
          "type": "bool"
        }
      ],
      "stateMutability": "pure",
      "type": "function"
    },
    {
      "inputs": [
        {
          "internalType": "address",
          "name": "newOwner",
          "type": "address"
        }
      ],
      "name": "transferOwnership",
      "outputs": [],
      "stateMutability": "nonpayable",
      "type": "function"
    }
  ],
  "bytecode": "0x608060405234801561001057600080fd5b5061001a3361001f565b61006f565b600080546001600160a01b038381166001600160a01b0319831681178455604051919092169283917f8be0079c531659141344cd1fd0a4f28419497f9722a3daafe3b4186f6b6457e09190a35050565b610d9d8061007e6000396000f3fe608060405234801561001057600080fd5b50600436106100a95760003560e01c80638da5cb5b116100715780638da5cb5b1461013157806391d7cde614610142578063bc197c8114610155578063d4f6b1d414610190578063f23a6e61146101a3578063f2fde38b146101c357600080fd5b806301ffc9a7146100ae578063715018a6146100d65780637c95e34a146100e0578063805094c7146100f35780638c26ba0c1461011e575b600080fd5b6100c16100bc366004610bd7565b6101d6565b60405190151581526020015b60405180910390f35b6100de610243565b005b6100c16100ee366004610bff565b610282565b600154610106906001600160a01b031681565b6040516001600160a01b0390911681526020016100cd565b6100de61012c366004610a69565b610303565b6000546001600160a01b0316610106565b6100c1610150366004610c32565b61034f565b610177610163366004610a8a565b63bc197c8160e01b98975050505050505050565b6040516001600160e01b031990911681526020016100cd565b6100c161019e366004610bff565b6103dc565b6101776101b1366004610b41565b63f23a6e6160e01b9695505050505050565b6100de6101d1366004610a69565b61044d565b60006001600160e01b031982166301ffc9a760e01b148061020757506001600160e01b03198216630704183b60e11b145b8061022257506001600160e01b03198216630271189760e51b145b8061023d57506001600160e01b031982166335c2b1b360e01b145b92915050565b6000546001600160a01b031633146102765760405162461bcd60e51b815260040161026d90610cdc565b60405180910390fd5b61028060006104e8565b565b6001546000906001600160a01b031633146102af5760405162461bcd60e51b815260040161026d90610cad565b6102b98383610538565b816001600160a01b03167f1f93aaa10a96701ea3371e37145654d4fa901bed129df7ecce75ec1720ce675d846040516102f29190610d11565b60405180910390a250600192915050565b6000546001600160a01b0316331461032d5760405162461bcd60e51b815260040161026d90610cdc565b600180546001600160a01b0319166001600160a01b0392909216919091179055565b6001546000906001600160a01b0316331461037c5760405162461bcd60e51b815260040161026d90610cad565b610387848484610759565b816001600160a01b0316836001600160a01b03167fa56c8ed66794d77281d6aea0d94c80efe86b229490ee4709f3c089f14d6d76f0866040516103ca9190610d11565b60405180910390a35060019392505050565b6001546000906001600160a01b031633146104095760405162461bcd60e51b815260040161026d90610cad565b610414838330610759565b816001600160a01b03167f7afe4d28a8b28f36043a4efb76fd76734f72ab668f4ff0cd63164bb9357b83e5846040516102f29190610d11565b6000546001600160a01b031633146104775760405162461bcd60e51b815260040161026d90610cdc565b6001600160a01b0381166104dc5760405162461bcd60e51b815260206004820152602660248201527f4f776e61626c653a206e6577206f776e657220697320746865207a65726f206160448201526564647265737360d01b606482015260840161026d565b6104e5816104e8565b50565b600080546001600160a01b038381166001600160a01b0319831681178455604051919092169283917f8be0079c531659141344cd1fd0a4f28419497f9722a3daafe3b4186f6b6457e09190a35050565b60008260200151600281111561055e57634e487b7160e01b600052602160045260246000fd5b14156105f5578151604080840151905163a9059cbb60e01b81526001600160a01b03848116600483015260248201929092529082169063a9059cbb90604401602060405180830381600087803b1580156105b757600080fd5b505af11580156105cb573d6000803e3d6000fd5b505050506040513d601f19601f820116820180604052508101906105ef9190610bb7565b50505050565b60018260200151600281111561061b57634e487b7160e01b600052602160045260246000fd5b141561069857815160608301516040516323b872dd60e01b81523060048201526001600160a01b0384811660248301526044820192909252908216906323b872dd906064015b600060405180830381600087803b15801561067b57600080fd5b505af115801561068f573d6000803e3d6000fd5b50505050505050565b6002826020015160028111156106be57634e487b7160e01b600052602160045260246000fd5b141561071157815160408301516106d757600160408401525b60608301516040808501519051637921219560e11b81526001600160a01b0384169263f242432a9261066192309288929091600401610c75565b60405162461bcd60e51b815260206004820181905260248201527f4d756c7469546f6b656e3a20556e737570706f727465642063617465676f7279604482015260640161026d565b60008360200151600281111561077f57634e487b7160e01b600052602160045260246000fd5b141561081f57825160408085015190516323b872dd60e01b81526001600160a01b03858116600483015284811660248301526044820192909252908216906323b872dd90606401602060405180830381600087803b1580156107e057600080fd5b505af11580156107f4573d6000803e3d6000fd5b505050506040513d601f19601f820116820180604052508101906108189190610bb7565b5050505050565b60018360200151600281111561084557634e487b7160e01b600052602160045260246000fd5b14156108c557825160608401516040516323b872dd60e01b81526001600160a01b03858116600483015284811660248301526044820192909252908216906323b872dd906064015b600060405180830381600087803b1580156108a757600080fd5b505af11580156108bb573d6000803e3d6000fd5b5050505050505050565b6002836020015160028111156108eb57634e487b7160e01b600052602160045260246000fd5b1415610711578251604084015161090457600160408501525b60608401516040808601519051637921219560e11b81526001600160a01b0384169263f242432a9261088d92889288929091600401610c75565b80356001600160a01b038116811461095557600080fd5b919050565b60008083601f84011261096b578182fd5b50813567ffffffffffffffff811115610982578182fd5b6020830191508360208260051b850101111561099d57600080fd5b9250929050565b60008083601f8401126109b5578182fd5b50813567ffffffffffffffff8111156109cc578182fd5b60208301915083602082850101111561099d57600080fd5b6000608082840312156109f5578081fd5b6040516080810181811067ffffffffffffffff82111715610a2457634e487b7160e01b83526041600452602483fd5b604052905080610a338361093e565b8152602083013560038110610a4757600080fd5b8060208301525060408301356040820152606083013560608201525092915050565b600060208284031215610a7a578081fd5b610a838261093e565b9392505050565b60008060008060008060008060a0898b031215610aa5578384fd5b610aae8961093e565b9750610abc60208a0161093e565b9650604089013567ffffffffffffffff80821115610ad8578586fd5b610ae48c838d0161095a565b909850965060608b0135915080821115610afc578586fd5b610b088c838d0161095a565b909650945060808b0135915080821115610b20578384fd5b50610b2d8b828c016109a4565b999c989b5096995094979396929594505050565b60008060008060008060a08789031215610b59578182fd5b610b628761093e565b9550610b706020880161093e565b94506040870135935060608701359250608087013567ffffffffffffffff811115610b99578283fd5b610ba589828a016109a4565b979a9699509497509295939492505050565b600060208284031215610bc8578081fd5b81518015158114610a83578182fd5b600060208284031215610be8578081fd5b81356001600160e01b031981168114610a83578182fd5b60008060a08385031215610c11578182fd5b610c1b84846109e4565b9150610c296080840161093e565b90509250929050565b600080600060c08486031215610c46578283fd5b610c5085856109e4565b9250610c5e6080850161093e565b9150610c6c60a0850161093e565b90509250925092565b6001600160a01b0394851681529290931660208301526040820152606081019190915260a06080820181905260009082015260c00190565b60208082526015908201527421b0b63632b91034b9903737ba103a343290282ba760591b604082015260600190565b6020808252818101527f4f776e61626c653a2063616c6c6572206973206e6f7420746865206f776e6572604082015260600190565b81516001600160a01b031681526020820151608082019060038110610d4657634e487b7160e01b600052602160045260246000fd5b8060208401525060408301516040830152606083015160608301529291505056fea2646970667358221220d37025243a5f1ca0cfe89aada56f3761ea9a8e96c2a3b51756171fc04d4079be64736f6c63430008040033",
  "linkReferences": {},
  "deployedLinkReferences": {}
}