{
  "_format": "hh-sol-artifact-1",
  "contractName": "PWNLOAN",
  "sourceName": "contracts/PWNLOAN.sol",
  "abi": [
    {
      "inputs": [
        {
          "internalType": "string",
          "name": "_uri",
          "type": "string"
        }
      ],
      "stateMutability": "nonpayable",
      "type": "constructor"
    },
    {
      "anonymous": false,
      "inputs": [
        {
          "indexed": true,
          "internalType": "address",
          "name": "account",
          "type": "address"
        },
        {
          "indexed": true,
          "internalType": "address",
          "name": "operator",
          "type": "address"
        },
        {
          "indexed": false,
          "internalType": "bool",
          "name": "approved",
          "type": "bool"
        }
      ],
      "name": "ApprovalForAll",
      "type": "event"
    },
    {
      "anonymous": false,
      "inputs": [
        {
          "indexed": false,
          "internalType": "uint256",
          "name": "loanId",
          "type": "uint256"
        }
      ],
      "name": "LOANClaimed",
      "type": "event"
    },
    {
      "anonymous": false,
      "inputs": [
        {
          "indexed": true,
          "internalType": "uint256",
          "name": "loanId",
          "type": "uint256"
        },
        {
          "indexed": true,
          "internalType": "address",
          "name": "lender",
          "type": "address"
        },
        {
          "indexed": true,
          "internalType": "bytes32",
          "name": "offerHash",
          "type": "bytes32"
        }
      ],
      "name": "LOANCreated",
      "type": "event"
    },
    {
      "anonymous": false,
      "inputs": [
        {
          "indexed": true,
          "internalType": "bytes32",
          "name": "offerHash",
          "type": "bytes32"
        }
      ],
      "name": "OfferRevoked",
      "type": "event"
    },
    {
      "anonymous": false,
      "inputs": [
        {
          "indexed": true,
          "internalType": "address",
          "name": "previousOwner",
          "type": "address"
        },
        {
          "indexed": true,
          "internalType": "address",
          "name": "newOwner",
          "type": "address"
        }
      ],
      "name": "OwnershipTransferred",
      "type": "event"
    },
    {
      "anonymous": false,
      "inputs": [
        {
          "indexed": false,
          "internalType": "uint256",
          "name": "loanId",
          "type": "uint256"
        }
      ],
      "name": "PaidBack",
      "type": "event"
    },
    {
      "anonymous": false,
      "inputs": [
        {
          "indexed": true,
          "internalType": "address",
          "name": "operator",
          "type": "address"
        },
        {
          "indexed": true,
          "internalType": "address",
          "name": "from",
          "type": "address"
        },
        {
          "indexed": true,
          "internalType": "address",
          "name": "to",
          "type": "address"
        },
        {
          "indexed": false,
          "internalType": "uint256[]",
          "name": "ids",
          "type": "uint256[]"
        },
        {
          "indexed": false,
          "internalType": "uint256[]",
          "name": "values",
          "type": "uint256[]"
        }
      ],
      "name": "TransferBatch",
      "type": "event"
    },
    {
      "anonymous": false,
      "inputs": [
        {
          "indexed": true,
          "internalType": "address",
          "name": "operator",
          "type": "address"
        },
        {
          "indexed": true,
          "internalType": "address",
          "name": "from",
          "type": "address"
        },
        {
          "indexed": true,
          "internalType": "address",
          "name": "to",
          "type": "address"
        },
        {
          "indexed": false,
          "internalType": "uint256",
          "name": "id",
          "type": "uint256"
        },
        {
          "indexed": false,
          "internalType": "uint256",
          "name": "value",
          "type": "uint256"
        }
      ],
      "name": "TransferSingle",
      "type": "event"
    },
    {
      "anonymous": false,
      "inputs": [
        {
          "indexed": false,
          "internalType": "string",
          "name": "value",
          "type": "string"
        },
        {
          "indexed": true,
          "internalType": "uint256",
          "name": "id",
          "type": "uint256"
        }
      ],
      "name": "URI",
      "type": "event"
    },
    {
      "inputs": [
        {
          "internalType": "uint256",
          "name": "",
          "type": "uint256"
        }
      ],
      "name": "LOANs",
      "outputs": [
        {
          "internalType": "uint8",
          "name": "status",
          "type": "uint8"
        },
        {
          "internalType": "address",
          "name": "borrower",
          "type": "address"
        },
        {
          "internalType": "uint32",
          "name": "duration",
          "type": "uint32"
        },
        {
          "internalType": "uint40",
          "name": "expiration",
          "type": "uint40"
        },
        {
          "components": [
            {
              "internalType": "address",
              "name": "assetAddress",
              "type": "address"
            },
            {
              "internalType": "enum MultiToken.Category",
              "name": "category",
              "type": "uint8"
            },
            {
              "internalType": "uint256",
              "name": "amount",
              "type": "uint256"
            },
            {
              "internalType": "uint256",
              "name": "id",
              "type": "uint256"
            }
          ],
          "internalType": "struct MultiToken.Asset",
          "name": "collateral",
          "type": "tuple"
        },
        {
          "components": [
            {
              "internalType": "address",
              "name": "assetAddress",
              "type": "address"
            },
            {
              "internalType": "enum MultiToken.Category",
              "name": "category",
              "type": "uint8"
            },
            {
              "internalType": "uint256",
              "name": "amount",
              "type": "uint256"
            },
            {
              "internalType": "uint256",
              "name": "id",
              "type": "uint256"
            }
          ],
          "internalType": "struct MultiToken.Asset",
          "name": "asset",
          "type": "tuple"
        },
        {
          "internalType": "uint256",
          "name": "loanRepayAmount",
          "type": "uint256"
        }
      ],
      "stateMutability": "view",
      "type": "function"
    },
    {
      "inputs": [],
      "name": "PWN",
      "outputs": [
        {
          "internalType": "address",
          "name": "",
          "type": "address"
        }
      ],
      "stateMutability": "view",
      "type": "function"
    },
    {
      "inputs": [
        {
          "internalType": "address",
          "name": "account",
          "type": "address"
        },
        {
          "internalType": "uint256",
          "name": "id",
          "type": "uint256"
        }
      ],
      "name": "balanceOf",
      "outputs": [
        {
          "internalType": "uint256",
          "name": "",
          "type": "uint256"
        }
      ],
      "stateMutability": "view",
      "type": "function"
    },
    {
      "inputs": [
        {
          "internalType": "address[]",
          "name": "accounts",
          "type": "address[]"
        },
        {
          "internalType": "uint256[]",
          "name": "ids",
          "type": "uint256[]"
        }
      ],
      "name": "balanceOfBatch",
      "outputs": [
        {
          "internalType": "uint256[]",
          "name": "",
          "type": "uint256[]"
        }
      ],
      "stateMutability": "view",
      "type": "function"
    },
    {
      "inputs": [
        {
          "internalType": "uint256",
          "name": "_loanId",
          "type": "uint256"
        },
        {
          "internalType": "address",
          "name": "_owner",
          "type": "address"
        }
      ],
      "name": "burn",
      "outputs": [],
      "stateMutability": "nonpayable",
      "type": "function"
    },
    {
      "inputs": [
        {
          "internalType": "uint256",
          "name": "_loanId",
          "type": "uint256"
        },
        {
          "internalType": "address",
          "name": "_owner",
          "type": "address"
        }
      ],
      "name": "claim",
      "outputs": [],
      "stateMutability": "nonpayable",
      "type": "function"
    },
    {
      "inputs": [
        {
          "internalType": "uint256",
          "name": "_loanAmount",
          "type": "uint256"
        },
        {
          "internalType": "uint32",
          "name": "_duration",
          "type": "uint32"
        },
        {
          "internalType": "uint256",
          "name": "_loanYieldMax",
          "type": "uint256"
        },
        {
          "internalType": "uint32",
          "name": "_durationMax",
          "type": "uint32"
        }
      ],
      "name": "countLoanRepayAmount",
      "outputs": [
        {
          "internalType": "uint256",
          "name": "",
          "type": "uint256"
        }
      ],
      "stateMutability": "pure",
      "type": "function"
    },
    {
      "inputs": [
        {
          "components": [
            {
              "internalType": "address",
              "name": "collateralAddress",
              "type": "address"
            },
            {
              "internalType": "enum MultiToken.Category",
              "name": "collateralCategory",
              "type": "uint8"
            },
            {
              "internalType": "uint256",
              "name": "collateralAmount",
              "type": "uint256"
            },
            {
              "internalType": "uint256",
              "name": "collateralId",
              "type": "uint256"
            },
            {
              "internalType": "address",
              "name": "loanAssetAddress",
              "type": "address"
            },
            {
              "internalType": "uint256",
              "name": "loanAmount",
              "type": "uint256"
            },
            {
              "internalType": "uint256",
              "name": "loanYield",
              "type": "uint256"
            },
            {
              "internalType": "uint32",
              "name": "duration",
              "type": "uint32"
            },
            {
              "internalType": "uint40",
              "name": "expiration",
              "type": "uint40"
            },
            {
              "internalType": "address",
              "name": "borrower",
              "type": "address"
            },
            {
              "internalType": "address",
              "name": "lender",
              "type": "address"
            },
            {
              "internalType": "bool",
              "name": "isPersistent",
              "type": "bool"
            },
            {
              "internalType": "bytes32",
              "name": "nonce",
              "type": "bytes32"
            }
          ],
          "internalType": "struct PWNLOAN.Offer",
          "name": "_offer",
          "type": "tuple"
        },
        {
          "internalType": "bytes",
          "name": "_signature",
          "type": "bytes"
        },
        {
          "internalType": "address",
          "name": "_sender",
          "type": "address"
        }
      ],
      "name": "create",
      "outputs": [],
      "stateMutability": "nonpayable",
      "type": "function"
    },
    {
      "inputs": [
        {
          "components": [
            {
              "internalType": "address",
              "name": "collateralAddress",
              "type": "address"
            },
            {
              "internalType": "enum MultiToken.Category",
              "name": "collateralCategory",
              "type": "uint8"
            },
            {
              "internalType": "uint256",
              "name": "collateralAmount",
              "type": "uint256"
            },
            {
              "internalType": "bytes32",
              "name": "collateralIdsWhitelistMerkleRoot",
              "type": "bytes32"
            },
            {
              "internalType": "address",
              "name": "loanAssetAddress",
              "type": "address"
            },
            {
              "internalType": "uint256",
              "name": "loanAmountMax",
              "type": "uint256"
            },
            {
              "internalType": "uint256",
              "name": "loanAmountMin",
              "type": "uint256"
            },
            {
              "internalType": "uint256",
              "name": "loanYieldMax",
              "type": "uint256"
            },
            {
              "internalType": "uint32",
              "name": "durationMax",
              "type": "uint32"
            },
            {
              "internalType": "uint32",
              "name": "durationMin",
              "type": "uint32"
            },
            {
              "internalType": "uint40",
              "name": "expiration",
              "type": "uint40"
            },
            {
              "internalType": "address",
              "name": "borrower",
              "type": "address"
            },
            {
              "internalType": "address",
              "name": "lender",
              "type": "address"
            },
            {
              "internalType": "bool",
              "name": "isPersistent",
              "type": "bool"
            },
            {
              "internalType": "bytes32",
              "name": "nonce",
              "type": "bytes32"
            }
          ],
          "internalType": "struct PWNLOAN.FlexibleOffer",
          "name": "_offer",
          "type": "tuple"
        },
        {
          "components": [
            {
              "internalType": "uint256",
              "name": "collateralId",
              "type": "uint256"
            },
            {
              "internalType": "uint256",
              "name": "loanAmount",
              "type": "uint256"
            },
            {
              "internalType": "uint32",
              "name": "duration",
              "type": "uint32"
            },
            {
              "internalType": "bytes32[]",
              "name": "merkleInclusionProof",
              "type": "bytes32[]"
            }
          ],
          "internalType": "struct PWNLOAN.FlexibleOfferValues",
          "name": "_offerValues",
          "type": "tuple"
        },
        {
          "internalType": "bytes",
          "name": "_signature",
          "type": "bytes"
        },
        {
          "internalType": "address",
          "name": "_sender",
          "type": "address"
        }
      ],
      "name": "createFlexible",
      "outputs": [],
      "stateMutability": "nonpayable",
      "type": "function"
    },
    {
      "inputs": [
        {
          "internalType": "uint256",
          "name": "_loanId",
          "type": "uint256"
        }
      ],
      "name": "getBorrower",
      "outputs": [
        {
          "internalType": "address",
          "name": "",
          "type": "address"
        }
      ],
      "stateMutability": "view",
      "type": "function"
    },
    {
      "inputs": [
        {
          "internalType": "uint256",
          "name": "_loanId",
          "type": "uint256"
        }
      ],
      "name": "getCollateral",
      "outputs": [
        {
          "components": [
            {
              "internalType": "address",
              "name": "assetAddress",
              "type": "address"
            },
            {
              "internalType": "enum MultiToken.Category",
              "name": "category",
              "type": "uint8"
            },
            {
              "internalType": "uint256",
              "name": "amount",
              "type": "uint256"
            },
            {
              "internalType": "uint256",
              "name": "id",
              "type": "uint256"
            }
          ],
          "internalType": "struct MultiToken.Asset",
          "name": "",
          "type": "tuple"
        }
      ],
      "stateMutability": "view",
      "type": "function"
    },
    {
      "inputs": [
        {
          "internalType": "uint256",
          "name": "_loanId",
          "type": "uint256"
        }
      ],
      "name": "getDuration",
      "outputs": [
        {
          "internalType": "uint32",
          "name": "",
          "type": "uint32"
        }
      ],
      "stateMutability": "view",
      "type": "function"
    },
    {
      "inputs": [
        {
          "internalType": "uint256",
          "name": "_loanId",
          "type": "uint256"
        }
      ],
      "name": "getExpiration",
      "outputs": [
        {
          "internalType": "uint40",
          "name": "",
          "type": "uint40"
        }
      ],
      "stateMutability": "view",
      "type": "function"
    },
    {
      "inputs": [
        {
          "internalType": "uint256",
          "name": "_loanId",
          "type": "uint256"
        }
      ],
      "name": "getLoanAsset",
      "outputs": [
        {
          "components": [
            {
              "internalType": "address",
              "name": "assetAddress",
              "type": "address"
            },
            {
              "internalType": "enum MultiToken.Category",
              "name": "category",
              "type": "uint8"
            },
            {
              "internalType": "uint256",
              "name": "amount",
              "type": "uint256"
            },
            {
              "internalType": "uint256",
              "name": "id",
              "type": "uint256"
            }
          ],
          "internalType": "struct MultiToken.Asset",
          "name": "",
          "type": "tuple"
        }
      ],
      "stateMutability": "view",
      "type": "function"
    },
    {
      "inputs": [
        {
          "internalType": "uint256",
          "name": "_loanId",
          "type": "uint256"
        }
      ],
      "name": "getLoanRepayAmount",
      "outputs": [
        {
          "internalType": "uint256",
          "name": "",
          "type": "uint256"
        }
      ],
      "stateMutability": "view",
      "type": "function"
    },
    {
      "inputs": [
        {
          "internalType": "uint256",
          "name": "_loanId",
          "type": "uint256"
        }
      ],
      "name": "getStatus",
      "outputs": [
        {
          "internalType": "uint8",
          "name": "",
          "type": "uint8"
        }
      ],
      "stateMutability": "view",
      "type": "function"
    },
    {
      "inputs": [],
      "name": "id",
      "outputs": [
        {
          "internalType": "uint256",
          "name": "",
          "type": "uint256"
        }
      ],
      "stateMutability": "view",
      "type": "function"
    },
    {
      "inputs": [
        {
          "internalType": "address",
          "name": "account",
          "type": "address"
        },
        {
          "internalType": "address",
          "name": "operator",
          "type": "address"
        }
      ],
      "name": "isApprovedForAll",
      "outputs": [
        {
          "internalType": "bool",
          "name": "",
          "type": "bool"
        }
      ],
      "stateMutability": "view",
      "type": "function"
    },
    {
      "inputs": [
        {
          "internalType": "bytes32",
          "name": "_offerHash",
          "type": "bytes32"
        }
      ],
      "name": "isRevoked",
      "outputs": [
        {
          "internalType": "bool",
          "name": "",
          "type": "bool"
        }
      ],
      "stateMutability": "view",
      "type": "function"
    },
    {
      "inputs": [],
      "name": "owner",
      "outputs": [
        {
          "internalType": "address",
          "name": "",
          "type": "address"
        }
      ],
      "stateMutability": "view",
      "type": "function"
    },
    {
      "inputs": [],
      "name": "renounceOwnership",
      "outputs": [],
      "stateMutability": "nonpayable",
      "type": "function"
    },
    {
      "inputs": [
        {
          "internalType": "uint256",
          "name": "_loanId",
          "type": "uint256"
        }
      ],
      "name": "repayLoan",
      "outputs": [],
      "stateMutability": "nonpayable",
      "type": "function"
    },
    {
      "inputs": [
        {
          "internalType": "bytes32",
          "name": "_offerHash",
          "type": "bytes32"
        },
        {
          "internalType": "bytes",
          "name": "_signature",
          "type": "bytes"
        },
        {
          "internalType": "address",
          "name": "_sender",
          "type": "address"
        }
      ],
      "name": "revokeOffer",
      "outputs": [],
      "stateMutability": "nonpayable",
      "type": "function"
    },
    {
      "inputs": [
        {
          "internalType": "bytes32",
          "name": "",
          "type": "bytes32"
        }
      ],
      "name": "revokedOffers",
      "outputs": [
        {
          "internalType": "bool",
          "name": "",
          "type": "bool"
        }
      ],
      "stateMutability": "view",
      "type": "function"
    },
    {
      "inputs": [
        {
          "internalType": "address",
          "name": "from",
          "type": "address"
        },
        {
          "internalType": "address",
          "name": "to",
          "type": "address"
        },
        {
          "internalType": "uint256[]",
          "name": "ids",
          "type": "uint256[]"
        },
        {
          "internalType": "uint256[]",
          "name": "amounts",
          "type": "uint256[]"
        },
        {
          "internalType": "bytes",
          "name": "data",
          "type": "bytes"
        }
      ],
      "name": "safeBatchTransferFrom",
      "outputs": [],
      "stateMutability": "nonpayable",
      "type": "function"
    },
    {
      "inputs": [
        {
          "internalType": "address",
          "name": "from",
          "type": "address"
        },
        {
          "internalType": "address",
          "name": "to",
          "type": "address"
        },
        {
          "internalType": "uint256",
          "name": "id",
          "type": "uint256"
        },
        {
          "internalType": "uint256",
          "name": "amount",
          "type": "uint256"
        },
        {
          "internalType": "bytes",
          "name": "data",
          "type": "bytes"
        }
      ],
      "name": "safeTransferFrom",
      "outputs": [],
      "stateMutability": "nonpayable",
      "type": "function"
    },
    {
      "inputs": [
        {
          "internalType": "address",
          "name": "operator",
          "type": "address"
        },
        {
          "internalType": "bool",
          "name": "approved",
          "type": "bool"
        }
      ],
      "name": "setApprovalForAll",
      "outputs": [],
      "stateMutability": "nonpayable",
      "type": "function"
    },
    {
      "inputs": [
        {
          "internalType": "address",
          "name": "_address",
          "type": "address"
        }
      ],
      "name": "setPWN",
      "outputs": [],
      "stateMutability": "nonpayable",
      "type": "function"
    },
    {
      "inputs": [
        {
          "internalType": "string",
          "name": "_newUri",
          "type": "string"
        }
      ],
      "name": "setUri",
      "outputs": [],
      "stateMutability": "nonpayable",
      "type": "function"
    },
    {
      "inputs": [
        {
          "internalType": "bytes4",
          "name": "interfaceId",
          "type": "bytes4"
        }
      ],
      "name": "supportsInterface",
      "outputs": [
        {
          "internalType": "bool",
          "name": "",
          "type": "bool"
        }
      ],
      "stateMutability": "view",
      "type": "function"
    },
    {
      "inputs": [
        {
          "internalType": "address",
          "name": "newOwner",
          "type": "address"
        }
      ],
      "name": "transferOwnership",
      "outputs": [],
      "stateMutability": "nonpayable",
      "type": "function"
    },
    {
      "inputs": [
        {
          "internalType": "uint256",
          "name": "",
          "type": "uint256"
        }
      ],
      "name": "uri",
      "outputs": [
        {
          "internalType": "string",
          "name": "",
          "type": "string"
        }
      ],
      "stateMutability": "view",
      "type": "function"
    }
  ],
  "bytecode": "0x60806040523480156200001157600080fd5b50604051620041ad380380620041ad833981016040819052620000349162000164565b80620000408162000053565b506200004c336200006c565b506200028d565b805162000068906002906020840190620000be565b5050565b600380546001600160a01b038381166001600160a01b0319831681179093556040519116919082907f8be0079c531659141344cd1fd0a4f28419497f9722a3daafe3b4186f6b6457e090600090a35050565b828054620000cc906200023a565b90600052602060002090601f016020900481019282620000f057600085556200013b565b82601f106200010b57805160ff19168380011785556200013b565b828001600101855582156200013b579182015b828111156200013b5782518255916020019190600101906200011e565b50620001499291506200014d565b5090565b5b808211156200014957600081556001016200014e565b6000602080838503121562000177578182fd5b82516001600160401b03808211156200018e578384fd5b818501915085601f830112620001a2578384fd5b815181811115620001b757620001b762000277565b604051601f8201601f19908116603f01168101908382118183101715620001e257620001e262000277565b816040528281528886848701011115620001fa578687fd5b8693505b828410156200021d5784840186015181850187015292850192620001fe565b828411156200022e57868684830101525b98975050505050505050565b600181811c908216806200024f57607f821691505b602082108114156200027157634e487b7160e01b600052602260045260246000fd5b50919050565b634e487b7160e01b600052604160045260246000fd5b613f10806200029d6000396000f3fe608060405234801561001057600080fd5b50600436106101ef5760003560e01c8063951d73e21161010f578063ba6bf790116100a2578063f242432a11610071578063f242432a1461053e578063f2fde38b14610551578063f432bfaa14610564578063fcd3533c1461058757600080fd5b8063ba6bf790146104b9578063ddd5e1b2146104dc578063e985e9c5146104ef578063ee502d7d1461052b57600080fd5b8063a22cb465116100de578063a22cb46514610477578063a307bed81461048a578063ab7b1c891461049d578063af640d0f146104b057600080fd5b8063951d73e2146103e75780639695858f1461040d5780639b642de114610420578063a05b775f1461043357600080fd5b8063715018a6116101875780638bb126a7116101565780638bb126a71461036e5780638c26ba0c146103b05780638c8ca4dd146103c35780638da5cb5b146103d657600080fd5b8063715018a6146102fa578063805094c7146103025780638500d9191461032d578063888584a81461035b57600080fd5b80632eb2c2d6116101c35780632eb2c2d61461027d5780634294857f146102925780634e1273f4146102b55780635c622a0e146102d557600080fd5b8062fdd58e146101f457806301ffc9a71461021a5780630e89341c1461023d5780632a62a4901461025d575b600080fd5b6102076102023660046132b7565b61059a565b6040519081526020015b60405180910390f35b61022d610228366004613449565b610634565b6040519015158152602001610211565b61025061024b3660046133aa565b610684565b6040516102119190613a78565b61027061026b3660046133aa565b610718565b6040516102119190613bc6565b61029061028b366004613187565b6107db565b005b61022d6102a03660046133aa565b60009081526007602052604090205460ff1690565b6102c86102c33660046132e0565b610872565b604051610211919061398c565b6102e86102e33660046133aa565b6109d3565b60405160ff9091168152602001610211565b610290610a60565b600454610315906001600160a01b031681565b6040516001600160a01b039091168152602001610211565b61031561033b3660046133aa565b60009081526006602052604090205461010090046001600160a01b031690565b61029061036936600461362d565b610a96565b61039b61037c3660046133aa565b600090815260066020526040902054600160a81b900463ffffffff1690565b60405163ffffffff9091168152602001610211565b6102906103be36600461313b565b610d9c565b6102076103d1366004613775565b610de8565b6003546001600160a01b0316610315565b6103fa6103f53660046133aa565b610e20565b6040516102119796959493929190613bd4565b61027061041b3660046133aa565b610f75565b61029061042e366004613481565b610ffb565b6104616104413660046133aa565b600090815260066020526040902054600160c81b900464ffffffffff1690565b60405164ffffffffff9091168152602001610211565b61029061048536600461328e565b611031565b6102906104983660046134ce565b611040565b6102906104ab3660046133aa565b611511565b61020760055481565b6102076104c73660046133aa565b60009081526006602052604090206007015490565b6102906104ea366004613753565b611600565b61022d6104fd366004613155565b6001600160a01b03918216600090815260016020908152604080832093909416825291909152205460ff1690565b6102906105393660046133c2565b611733565b61029061054c36600461322c565b6118b8565b61029061055f36600461313b565b61193f565b61022d6105723660046133aa565b60076020526000908152604090205460ff1681565b610290610595366004613753565b6119d7565b60006001600160a01b03831661060b5760405162461bcd60e51b815260206004820152602b60248201527f455243313135353a2062616c616e636520717565727920666f7220746865207a60448201526a65726f206164647265737360a81b60648201526084015b60405180910390fd5b506000818152602081815260408083206001600160a01b03861684529091529020545b92915050565b60006001600160e01b03198216636cdb3d1360e11b148061066557506001600160e01b031982166303a24d0760e21b145b8061062e57506301ffc9a760e01b6001600160e01b031983161461062e565b60606002805461069390613d50565b80601f01602080910402602001604051908101604052809291908181526020018280546106bf90613d50565b801561070c5780601f106106e15761010080835404028352916020019161070c565b820191906000526020600020905b8154815290600101906020018083116106ef57829003601f168201915b50505050509050919050565b610744604080516080810190915260008082526020820190815260200160008152602001600081525090565b60008281526006602090815260409182902082516080810190935260010180546001600160a01b03811684529091830190600160a01b900460ff16600281111561079e57634e487b7160e01b600052602160045260246000fd5b60028111156107bd57634e487b7160e01b600052602160045260246000fd5b81526001820154602082015260029091015460409091015292915050565b6001600160a01b0385163314806107f757506107f785336104fd565b61085e5760405162461bcd60e51b815260206004820152603260248201527f455243313135353a207472616e736665722063616c6c6572206973206e6f74206044820152711bdddb995c881b9bdc88185c1c1c9bdd995960721b6064820152608401610602565b61086b8585858585611b32565b5050505050565b606081518351146108d75760405162461bcd60e51b815260206004820152602960248201527f455243313135353a206163636f756e747320616e6420696473206c656e677468604482015268040dad2e6dac2e8c6d60bb1b6064820152608401610602565b600083516001600160401b0381111561090057634e487b7160e01b600052604160045260246000fd5b604051908082528060200260200182016040528015610929578160200160208202803683370190505b50905060005b84518110156109cb5761099085828151811061095b57634e487b7160e01b600052603260045260246000fd5b602002602001015185838151811061098357634e487b7160e01b600052603260045260246000fd5b602002602001015161059a565b8282815181106109b057634e487b7160e01b600052603260045260246000fd5b60209081029190910101526109c481613ddc565b905061092f565b509392505050565b600081815260066020526040812054600160c81b900464ffffffffff1615801590610a1a575060008281526006602052604090205442600160c81b90910464ffffffffff16105b8015610a38575060008281526006602052604090205460ff16600314155b15610a4557506004919050565b5060009081526006602052604090205460ff1690565b919050565b6003546001600160a01b03163314610a8a5760405162461bcd60e51b815260040161060290613b91565b610a946000611d2b565b565b6004546001600160a01b03163314610ac05760405162461bcd60e51b815260040161060290613ad3565b6000610aca611d7d565b610ad385611e47565b60405161190160f01b602082015260228101929092526042820152606201604051602081830303815290604052805190602001209050610b198461014001518285611eea565b610b2f846101000151856101200151848461205f565b836101600151610b53576000818152600760205260409020805460ff191660011790555b6000600560008154610b6490613ddc565b91829055506000818152600660205260409020805460e088015160026001600160a81b03199092166101006001600160a01b03891602179190911763ffffffff60a81b1916600160a81b63ffffffff90921691820217825591925090610bca9042613cbc565b815464ffffffffff91909116600160c81b0264ffffffffff60c81b19909116178155604080516080810190915286516001600160a01b03168152602080880151908201906002811115610c2d57634e487b7160e01b600052602160045260246000fd5b815260408881015160208084019190915260608a0151919092015281516001840180546001600160a01b031981166001600160a01b039093169283178255928401519092909183916001600160a81b03191617600160a01b836002811115610ca557634e487b7160e01b600052602160045260246000fd5b021790555060408281015160018301556060928301516002909201919091558051608080820183528901516001600160a01b031680825260006020830181905260a08b018051948401859052929094018490526004850180546001600160a81b03191690911790556005840191909155600683019190915560c08701519051610d2e9190613ca4565b8160070181905550610d578661014001518360016040518060200160405280600081525061219b565b828661014001516001600160a01b0316837f4c95b604978866b8cc7ba4d031e45953c1a9ba1378d3a6e0d13e581e59c4edfc60405160405180910390a4505050505050565b6003546001600160a01b03163314610dc65760405162461bcd60e51b815260040161060290613b91565b600480546001600160a01b0319166001600160a01b0392909216919091179055565b60008163ffffffff168463ffffffff1684610e039190613d05565b610e0d9190613ce5565b610e179086613ca4565b95945050505050565b60066020908152600091825260409182902080548351608081019094526001820180546001600160a01b03808216875260ff80851697610100860490921696600160a81b860463ffffffff1696600160c81b90960464ffffffffff169594929390840191600160a01b909104166002811115610eac57634e487b7160e01b600052602160045260246000fd5b6002811115610ecb57634e487b7160e01b600052602160045260246000fd5b815260018201546020808301919091526002928301546040928301528151608081019092526004850180546001600160a01b03811684529495949293909291840191600160a01b900460ff1690811115610f3557634e487b7160e01b600052602160045260246000fd5b6002811115610f5457634e487b7160e01b600052602160045260246000fd5b81526001820154602082015260029091015460409091015260079091015487565b610fa1604080516080810190915260008082526020820190815260200160008152602001600081525090565b60008281526006602090815260409182902082516080810190935260040180546001600160a01b03811684529091830190600160a01b900460ff16600281111561079e57634e487b7160e01b600052602160045260246000fd5b6003546001600160a01b031633146110255760405162461bcd60e51b815260040161060290613b91565b61102e816122a5565b50565b61103c3383836122b8565b5050565b6004546001600160a01b0316331461106a5760405162461bcd60e51b815260040161060290613ad3565b6000611074611d7d565b61107d86612399565b60405161190160f01b6020820152602281019290925260428201526062016040516020818303038152906040528051906020012090506110c38561018001518285611eea565b6110d9856101400151866101600151848461205f565b6060850151156111915783516040516000916110fb9160200190815260200190565b604051602081830303815290604052805190602001209050611126856060015187606001518361250d565b61118f5760405162461bcd60e51b815260206004820152603460248201527f53656c656374656420636f6c6c61746572616c206964206973206e6f7420636f6044820152731b9d185a5b9959081a5b881dda1a5d195b1a5cdd60621b6064820152608401610602565b505b83602001518560c00151111580156111b157508460a00151846020015111155b6112095760405162461bcd60e51b815260206004820152602360248201527f4c6f616e20616d6f756e74206973206e6f7420696e206f6666657265642072616044820152626e676560e81b6064820152608401610602565b836040015163ffffffff1685610120015163ffffffff1611158015611243575084610100015163ffffffff16846040015163ffffffff1611155b61129d5760405162461bcd60e51b815260206004820152602560248201527f4c6f616e206475726174696f6e206973206e6f7420696e206f6666657265642060448201526472616e676560d81b6064820152608401610602565b846101a001516112c1576000818152600760205260409020805460ff191660011790555b60006005600081546112d290613ddc565b91829055506000818152600660205260409081902080549188015160026001600160a81b03199093166101006001600160a01b03891602179290921763ffffffff60a81b1916600160a81b63ffffffff9093169283021781559192506113389042613cbc565b815464ffffffffff91909116600160c81b0264ffffffffff60c81b19909116178155604080516080810190915287516001600160a01b0316815260208089015190820190600281111561139b57634e487b7160e01b600052602160045260246000fd5b81526040898101516020808401919091528951919092015281516001840180546001600160a01b031981166001600160a01b039093169283178255928401519092909183916001600160a81b03191617600160a01b83600281111561141057634e487b7160e01b600052602160045260246000fd5b021790555060408281015160018301556060928301516002909201919091558051608080820183528a01516001600160a01b0316808252600060208084018290528b018051848601819052939095018190526004860180546001600160a81b0319169092179091556005850191909155600684015590519087015160e08901516101008a01516114a293929190610de8565b81600701819055506114cb8761018001518360016040518060200160405280600081525061219b565b828761018001516001600160a01b0316837f4c95b604978866b8cc7ba4d031e45953c1a9ba1378d3a6e0d13e581e59c4edfc60405160405180910390a450505050505050565b6004546001600160a01b0316331461153b5760405162461bcd60e51b815260040161060290613ad3565b611544816109d3565b60ff166002146115aa5760405162461bcd60e51b815260206004820152602b60248201527f4c6f616e206973206e6f742072756e6e696e6720616e642063616e6e6f74206260448201526a652070616964206261636b60a81b6064820152608401610602565b60008181526006602052604090819020805460ff19166003179055517f0b117c6ee83d9fec759aca04cf1059fc287d6173a4eb3f42c1232cce1d5202f4906115f59083815260200190565b60405180910390a150565b6004546001600160a01b0316331461162a5760405162461bcd60e51b815260040161060290613ad3565b611634818361059a565b6001146116835760405162461bcd60e51b815260206004820152601c60248201527f43616c6c6572206973206e6f7420746865206c6f616e206f776e6572000000006044820152606401610602565b600361168e836109d3565b60ff1610156116df5760405162461bcd60e51b815260206004820152601960248201527f4c6f616e2063616e277420626520636c61696d656420796574000000000000006044820152606401610602565b60008281526006602052604090819020805460ff19169055517f5983dbc608d463639962272272a1768727afbeefd85d046dfb0b13ee85f10512906117279084815260200190565b60405180910390a15050565b6004546001600160a01b0316331461175d5760405162461bcd60e51b815260040161060290613ad3565b806001600160a01b03166117a78585858080601f01602080910402602001604051908101604052809392919081815260200183838082843760009201919091525061252392505050565b6001600160a01b0316146117fd5760405162461bcd60e51b815260206004820152601d60248201527f53656e646572206973206e6f7420616e206f66666572207369676e65720000006044820152606401610602565b60008481526007602052604090205460ff16156118725760405162461bcd60e51b815260206004820152602d60248201527f4f6666657220697320616c7265616479207265766f6b6564206f72206861732060448201526c1899595b881858d8d95c1d1959609a1b6064820152608401610602565b600084815260076020526040808220805460ff191660011790555185917fc0885ade686cf1ca700832b5b7a2f2b0759e5a483174588f940e3ac048a8f8d091a250505050565b6001600160a01b0385163314806118d457506118d485336104fd565b6119325760405162461bcd60e51b815260206004820152602960248201527f455243313135353a2063616c6c6572206973206e6f74206f776e6572206e6f7260448201526808185c1c1c9bdd995960ba1b6064820152608401610602565b61086b858585858561253f565b6003546001600160a01b031633146119695760405162461bcd60e51b815260040161060290613b91565b6001600160a01b0381166119ce5760405162461bcd60e51b815260206004820152602660248201527f4f776e61626c653a206e6577206f776e657220697320746865207a65726f206160448201526564647265737360d01b6064820152608401610602565b61102e81611d2b565b6004546001600160a01b03163314611a015760405162461bcd60e51b815260040161060290613ad3565b611a0b818361059a565b600114611a5a5760405162461bcd60e51b815260206004820152601c60248201527f43616c6c6572206973206e6f7420746865206c6f616e206f776e6572000000006044820152606401610602565b60008281526006602052604090205460ff1615611ac45760405162461bcd60e51b815260206004820152602260248201527f4c6f616e2063616e2774206265206275726e6564206174207468697320737461604482015261676560f01b6064820152608401610602565b6000828152600660208190526040822080546001600160f01b0319168155600180820180546001600160a81b031990811690915560028301859055600383018590556004830180549091169055600582018490559181018390556007019190915561103c908290849061265c565b8151835114611b945760405162461bcd60e51b815260206004820152602860248201527f455243313135353a2069647320616e6420616d6f756e7473206c656e677468206044820152670dad2e6dac2e8c6d60c31b6064820152608401610602565b6001600160a01b038416611bba5760405162461bcd60e51b815260040161060290613b02565b3360005b8451811015611cbd576000858281518110611be957634e487b7160e01b600052603260045260246000fd5b602002602001015190506000858381518110611c1557634e487b7160e01b600052603260045260246000fd5b602090810291909101810151600084815280835260408082206001600160a01b038e168352909352919091205490915081811015611c655760405162461bcd60e51b815260040161060290613b47565b6000838152602081815260408083206001600160a01b038e8116855292528083208585039055908b16825281208054849290611ca2908490613ca4565b9250508190555050505080611cb690613ddc565b9050611bbe565b50846001600160a01b0316866001600160a01b0316826001600160a01b03167f4a39dc06d4c0dbc64b70af90fd698a233a518aa5d07e595d983b8c0526c8f7fb8787604051611d0d92919061399f565b60405180910390a4611d238187878787876127d6565b505050505050565b600380546001600160a01b038381166001600160a01b0319831681179093556040519116919082907f8be0079c531659141344cd1fd0a4f28419497f9722a3daafe3b4186f6b6457e090600090a35050565b6040805180820182526003815262282ba760e91b6020918201528151808301835260018152603160f81b9082015281517f8b73c3c69bb8fe3d512ecc4cf759cc79239f7b179b0ffacaa9a75d522b39400f818301527fbecbc5e7d5b58d6f1c8ea79197877ea15b6d3f333b75c73ffc7ce124e395e163818401527fc89efdaa54c0f20c7adf612882df0950f5a951637e0307cdcb4c672f298b8bc660608201524660808201523060a0808301919091528351808303909101815260c0909101909252815191012090565b60007f111c7d634aa8254dee7e80496a279f0ccbf7bac30acc637630adbe99bb613193826000015183602001518460400151856060015186608001518760a001518860c001518960e001518a61010001518b61012001518c61014001518d61016001518e6101800151604051602001611ecd9e9d9c9b9a999897969594939291906139c4565b604051602081830303815290604052805190602001209050919050565b6001600160a01b0383163b15611fe957604051630b135d3f60e11b808252906001600160a01b03851690631626ba7e90611f2a9086908690600401613a5f565b60206040518083038186803b158015611f4257600080fd5b505afa158015611f56573d6000803e3d6000fd5b505050506040513d601f19601f82011682018060405250810190611f7a9190613465565b6001600160e01b03191614611fe45760405162461bcd60e51b815260206004820152602a60248201527f5369676e6174757265206f6e20626568616c66206f6620636f6e7472616374206044820152691a5cc81a5b9d985b1a5960b21b6064820152608401610602565b505050565b826001600160a01b0316611ffd8383612523565b6001600160a01b031614611fe45760405162461bcd60e51b8152602060048201526024808201527f4c656e6465722061646472657373206469646e2774207369676e20746865206f604482015263333332b960e11b6064820152608401610602565b64ffffffffff8416158061207957508364ffffffffff1642105b6120b85760405162461bcd60e51b815260206004820152601060248201526f13d999995c881a5cc8195e1c1a5c995960821b6044820152606401610602565b60008181526007602052604090205460ff16156121255760405162461bcd60e51b815260206004820152602560248201527f4f66666572206973207265766f6b6564206f7220686173206265656e20616363604482015264195c1d195960da1b6064820152608401610602565b6001600160a01b0383161561219557826001600160a01b0316826001600160a01b0316146121955760405162461bcd60e51b815260206004820152601c60248201527f53656e646572206973206e6f74206f6666657220626f72726f776572000000006044820152606401610602565b50505050565b6001600160a01b0384166121fb5760405162461bcd60e51b815260206004820152602160248201527f455243313135353a206d696e7420746f20746865207a65726f206164647265736044820152607360f81b6064820152608401610602565b336122158160008761220c88612941565b61086b88612941565b6000848152602081815260408083206001600160a01b038916845290915281208054859290612245908490613ca4565b909155505060408051858152602081018590526001600160a01b0380881692600092918516917fc3d58168c5ae7397731d063d5bbf3d657854427343f4c083240f7aacaa2d0f62910160405180910390a461086b8160008787878761299a565b805161103c906002906020840190612e75565b816001600160a01b0316836001600160a01b0316141561232c5760405162461bcd60e51b815260206004820152602960248201527f455243313135353a2073657474696e6720617070726f76616c20737461747573604482015268103337b91039b2b63360b91b6064820152608401610602565b6001600160a01b03838116600081815260016020908152604080832094871680845294825291829020805460ff191686151590811790915591519182527f17307eab39ab6107e8899845ad3d59bd9653f200f220920489ca2b5937696c31910160405180910390a3505050565b60008082600001518360200151846040015185606001516040516020016123c3949392919061395d565b60408051808303601f1901815282825260808681015160a08089015160c08a015160e08b01516001600160a01b0390941660208901529587015260608601949094529084015292506000910160408051601f19818403018152908290526101008601516101208701516101408801516101608901516101808a01516101a08b01516101c08c01519698506000976124a5979060200163ffffffff978816815295909616602086015264ffffffffff9390931660408501526001600160a01b039182166060850152166080830152151560a082015260c081019190915260e00190565b60405160208183030381529060405290507fe251b7bcdc414e3fd40f0859ead0031ccc69f47dbfc357930398f1172a330ae48383836040516020016124ed949392919061386d565b604051602081830303815290604052805190602001209350505050919050565b60008261251a8584612a64565b14949350505050565b60008060006125328585612ade565b915091506109cb81612b4e565b6001600160a01b0384166125655760405162461bcd60e51b815260040161060290613b02565b3361257581878761220c88612941565b6000848152602081815260408083206001600160a01b038a168452909152902054838110156125b65760405162461bcd60e51b815260040161060290613b47565b6000858152602081815260408083206001600160a01b038b81168552925280832087850390559088168252812080548692906125f3908490613ca4565b909155505060408051868152602081018690526001600160a01b03808916928a821692918616917fc3d58168c5ae7397731d063d5bbf3d657854427343f4c083240f7aacaa2d0f62910160405180910390a461265382888888888861299a565b50505050505050565b6001600160a01b0383166126be5760405162461bcd60e51b815260206004820152602360248201527f455243313135353a206275726e2066726f6d20746865207a65726f206164647260448201526265737360e81b6064820152608401610602565b336126ee818560006126cf87612941565b6126d887612941565b5050604080516020810190915260009052505050565b6000838152602081815260408083206001600160a01b03881684529091529020548281101561276b5760405162461bcd60e51b8152602060048201526024808201527f455243313135353a206275726e20616d6f756e7420657863656564732062616c604482015263616e636560e01b6064820152608401610602565b6000848152602081815260408083206001600160a01b03898116808652918452828520888703905582518981529384018890529092908616917fc3d58168c5ae7397731d063d5bbf3d657854427343f4c083240f7aacaa2d0f62910160405180910390a45050505050565b6001600160a01b0384163b15611d235760405163bc197c8160e01b81526001600160a01b0385169063bc197c819061281a90899089908890889088906004016138ba565b602060405180830381600087803b15801561283457600080fd5b505af1925050508015612864575060408051601f3d908101601f1916820190925261286191810190613465565b60015b61291157612870613e23565b806308c379a014156128aa5750612885613e3b565b8061289057506128ac565b8060405162461bcd60e51b81526004016106029190613a78565b505b60405162461bcd60e51b815260206004820152603460248201527f455243313135353a207472616e7366657220746f206e6f6e20455243313135356044820152732932b1b2b4bb32b91034b6b83632b6b2b73a32b960611b6064820152608401610602565b6001600160e01b0319811663bc197c8160e01b146126535760405162461bcd60e51b815260040161060290613a8b565b6040805160018082528183019092526060916000919060208083019080368337019050509050828160008151811061298957634e487b7160e01b600052603260045260246000fd5b602090810291909101015292915050565b6001600160a01b0384163b15611d235760405163f23a6e6160e01b81526001600160a01b0385169063f23a6e61906129de9089908990889088908890600401613918565b602060405180830381600087803b1580156129f857600080fd5b505af1925050508015612a28575060408051601f3d908101601f19168201909252612a2591810190613465565b60015b612a3457612870613e23565b6001600160e01b0319811663f23a6e6160e01b146126535760405162461bcd60e51b815260040161060290613a8b565b600081815b84518110156109cb576000858281518110612a9457634e487b7160e01b600052603260045260246000fd5b60200260200101519050808311612aba5760008381526020829052604090209250612acb565b600081815260208490526040902092505b5080612ad681613ddc565b915050612a69565b600080825160411415612b155760208301516040840151606085015160001a612b0987828585612d4f565b94509450505050612b47565b825160401415612b3f5760208301516040840151612b34868383612e3c565b935093505050612b47565b506000905060025b9250929050565b6000816004811115612b7057634e487b7160e01b600052602160045260246000fd5b1415612b795750565b6001816004811115612b9b57634e487b7160e01b600052602160045260246000fd5b1415612be95760405162461bcd60e51b815260206004820152601860248201527f45434453413a20696e76616c6964207369676e617475726500000000000000006044820152606401610602565b6002816004811115612c0b57634e487b7160e01b600052602160045260246000fd5b1415612c595760405162461bcd60e51b815260206004820152601f60248201527f45434453413a20696e76616c6964207369676e6174757265206c656e677468006044820152606401610602565b6003816004811115612c7b57634e487b7160e01b600052602160045260246000fd5b1415612cd45760405162461bcd60e51b815260206004820152602260248201527f45434453413a20696e76616c6964207369676e6174757265202773272076616c604482015261756560f01b6064820152608401610602565b6004816004811115612cf657634e487b7160e01b600052602160045260246000fd5b141561102e5760405162461bcd60e51b815260206004820152602260248201527f45434453413a20696e76616c6964207369676e6174757265202776272076616c604482015261756560f01b6064820152608401610602565b6000807f7fffffffffffffffffffffffffffffff5d576e7357a4501ddfe92f46681b20a0831115612d865750600090506003612e33565b8460ff16601b14158015612d9e57508460ff16601c14155b15612daf5750600090506004612e33565b6040805160008082526020820180845289905260ff881692820192909252606081018690526080810185905260019060a0016020604051602081039080840390855afa158015612e03573d6000803e3d6000fd5b5050604051601f1901519150506001600160a01b038116612e2c57600060019250925050612e33565b9150600090505b94509492505050565b6000806001600160ff1b03831681612e5960ff86901c601b613ca4565b9050612e6787828885612d4f565b935093505050935093915050565b828054612e8190613d50565b90600052602060002090601f016020900481019282612ea35760008555612ee9565b82601f10612ebc57805160ff1916838001178555612ee9565b82800160010185558215612ee9579182015b82811115612ee9578251825591602001919060010190612ece565b50612ef5929150612ef9565b5090565b5b80821115612ef55760008155600101612efa565b60006001600160401b03831115612f2757612f27613e0d565b604051612f3e601f8501601f191660200182613db0565b809150838152848484011115612f5357600080fd5b83836020830137600060208583010152509392505050565b80356001600160a01b0381168114610a5b57600080fd5b600082601f830112612f92578081fd5b81356020612f9f82613c81565b604051612fac8282613db0565b8381528281019150858301600585901b87018401881015612fcb578586fd5b855b85811015612fe957813584529284019290840190600101612fcd565b5090979650505050505050565b80358015158114610a5b57600080fd5b600082601f830112613016578081fd5b61302583833560208501612f0e565b9392505050565b803560038110610a5b57600080fd5b60006080828403121561304c578081fd5b60405161305881613d8b565b809150823581526020808401358183015261307560408501613112565b604083015260608401356001600160401b0381111561309357600080fd5b8401601f810186136130a457600080fd5b80356130af81613c81565b6040516130bc8282613db0565b8281528481019150838501600584901b850186018a10156130dc57600080fd5b600094505b838510156130ff5780358352600194909401939185019185016130e1565b5080606087015250505050505092915050565b803563ffffffff81168114610a5b57600080fd5b803564ffffffffff81168114610a5b57600080fd5b60006020828403121561314c578081fd5b61302582612f6b565b60008060408385031215613167578081fd5b61317083612f6b565b915061317e60208401612f6b565b90509250929050565b600080600080600060a0868803121561319e578081fd5b6131a786612f6b565b94506131b560208701612f6b565b935060408601356001600160401b03808211156131d0578283fd5b6131dc89838a01612f82565b945060608801359150808211156131f1578283fd5b6131fd89838a01612f82565b93506080880135915080821115613212578283fd5b5061321f88828901613006565b9150509295509295909350565b600080600080600060a08688031215613243578283fd5b61324c86612f6b565b945061325a60208701612f6b565b9350604086013592506060860135915060808601356001600160401b03811115613282578182fd5b61321f88828901613006565b600080604083850312156132a0578182fd5b6132a983612f6b565b915061317e60208401612ff6565b600080604083850312156132c9578182fd5b6132d283612f6b565b946020939093013593505050565b600080604083850312156132f2578182fd5b82356001600160401b0380821115613308578384fd5b818501915085601f83011261331b578384fd5b8135602061332882613c81565b6040516133358282613db0565b8381528281019150858301600585901b870184018b1015613354578889fd5b8896505b8487101561337d5761336981612f6b565b835260019690960195918301918301613358565b5096505086013592505080821115613393578283fd5b506133a085828601612f82565b9150509250929050565b6000602082840312156133bb578081fd5b5035919050565b600080600080606085870312156133d7578182fd5b8435935060208501356001600160401b03808211156133f4578384fd5b818701915087601f830112613407578384fd5b813581811115613415578485fd5b886020828501011115613426578485fd5b60208301955080945050505061343e60408601612f6b565b905092959194509250565b60006020828403121561345a578081fd5b813561302581613ec4565b600060208284031215613476578081fd5b815161302581613ec4565b600060208284031215613492578081fd5b81356001600160401b038111156134a7578182fd5b8201601f810184136134b7578182fd5b6134c684823560208401612f0e565b949350505050565b6000806000808486036102408112156134e5578283fd5b6101e0808212156134f4578384fd5b6134fc613c35565b915061350787612f6b565b82526135156020880161302c565b6020830152604087013560408301526060870135606083015261353a60808801612f6b565b608083015260a087013560a083015260c087013560c083015260e087013560e083015261010061356b818901613112565b9083015261012061357d888201613112565b9083015261014061358f888201613126565b908301526101606135a1888201612f6b565b908301526101806135b3888201612f6b565b908301526101a06135c5888201612ff6565b908301526101c087810135908301529094508501356001600160401b03808211156135ee578384fd5b6135fa8883890161303b565b9450610200870135915080821115613610578384fd5b5061361d87828801613006565b92505061343e6102208601612f6b565b60008060008385036101e0811215613643578182fd5b6101a080821215613652578283fd5b61365a613c5e565b915061366586612f6b565b82526136736020870161302c565b6020830152604086013560408301526060860135606083015261369860808701612f6b565b608083015260a086013560a083015260c086013560c08301526136bd60e08701613112565b60e08301526101006136d0818801613126565b908301526101206136e2878201612f6b565b908301526101406136f4878201612f6b565b90830152610160613706878201612ff6565b9083015261018086810135908301529093508401356001600160401b0381111561372e578182fd5b61373a86828701613006565b92505061374a6101c08501612f6b565b90509250925092565b60008060408385031215613765578182fd5b8235915061317e60208401612f6b565b6000806000806080858703121561378a578182fd5b8435935061379a60208601613112565b92506040850135915061343e60608601613112565b6000815180845260208085019450808401835b838110156137de578151875295820195908201906001016137c2565b509495945050505050565b60008151808452613801816020860160208601613d24565b601f01601f19169290920160200192915050565b6003811061383357634e487b7160e01b600052602160045260246000fd5b9052565b80516001600160a01b031682526020808201519061385790840182613815565b5060408181015190830152606090810151910152565b84815260006020855161388581838601848a01613d24565b85519084019061389a81848401858a01613d24565b85519101906138ae81848401858901613d24565b01019695505050505050565b6001600160a01b0386811682528516602082015260a0604082018190526000906138e6908301866137af565b82810360608401526138f881866137af565b9050828103608084015261390c81856137e9565b98975050505050505050565b6001600160a01b03868116825285166020820152604081018490526060810183905260a060808201819052600090613952908301846137e9565b979650505050505050565b6001600160a01b03851681526080810161397a6020830186613815565b60408201939093526060015292915050565b60208152600061302560208301846137af565b6040815260006139b260408301856137af565b8281036020840152610e1781856137af565b8e81526001600160a01b038e1660208201526101c081016139e8604083018f613815565b606082019c909c52608081019a909a526001600160a01b0398891660a08b015260c08a019790975260e089019590955263ffffffff9390931661010088015264ffffffffff9190911661012087015284166101408601529092166101608401529015156101808301526101a0909101529392505050565b8281526040602082015260006134c660408301846137e9565b60208152600061302560208301846137e9565b60208082526028908201527f455243313135353a204552433131353552656365697665722072656a656374656040820152676420746f6b656e7360c01b606082015260800190565b60208082526015908201527421b0b63632b91034b9903737ba103a343290282ba760591b604082015260600190565b60208082526025908201527f455243313135353a207472616e7366657220746f20746865207a65726f206164604082015264647265737360d81b606082015260800190565b6020808252602a908201527f455243313135353a20696e73756666696369656e742062616c616e636520666f60408201526939103a3930b739b332b960b11b606082015260800190565b6020808252818101527f4f776e61626c653a2063616c6c6572206973206e6f7420746865206f776e6572604082015260600190565b6080810161062e8284613837565b60ff881681526001600160a01b038716602082015263ffffffff8616604082015264ffffffffff851660608201526101a08101613c146080830186613837565b613c22610100830185613837565b8261018083015298975050505050505050565b6040516101e081016001600160401b0381118282101715613c5857613c58613e0d565b60405290565b6040516101a081016001600160401b0381118282101715613c5857613c58613e0d565b60006001600160401b03821115613c9a57613c9a613e0d565b5060051b60200190565b60008219821115613cb757613cb7613df7565b500190565b600064ffffffffff808316818516808303821115613cdc57613cdc613df7565b01949350505050565b600082613d0057634e487b7160e01b81526012600452602481fd5b500490565b6000816000190483118215151615613d1f57613d1f613df7565b500290565b60005b83811015613d3f578181015183820152602001613d27565b838111156121955750506000910152565b600181811c90821680613d6457607f821691505b60208210811415613d8557634e487b7160e01b600052602260045260246000fd5b50919050565b608081018181106001600160401b0382111715613daa57613daa613e0d565b60405250565b601f8201601f191681016001600160401b0381118282101715613dd557613dd5613e0d565b6040525050565b6000600019821415613df057613df0613df7565b5060010190565b634e487b7160e01b600052601160045260246000fd5b634e487b7160e01b600052604160045260246000fd5b600060033d1115613e3857600481823e5160e01c5b90565b600060443d1015613e495790565b6040516003193d81016004833e81513d6001600160401b038160248401118184111715613e7857505050505090565b8285019150815181811115613e905750505050505090565b843d8701016020828501011115613eaa5750505050505090565b613eb960208286010187613db0565b509095945050505050565b6001600160e01b03198116811461102e57600080fdfea2646970667358221220a2a2cd5046076ca9ba885befd4d2c53087256873c4b7e164cdd5cda04bf1a30164736f6c63430008040033",
  "linkReferences": {},
  "deployedLinkReferences": {}
}