{
  "_format": "hh-sol-artifact-1",
  "contractName": "PWNLoan",
  "sourceName": "contracts/PWNLoan.sol",
  "abi": [
    {
      "inputs": [
        {
          "internalType": "string",
          "name": "_uri",
          "type": "string"
        }
      ],
      "stateMutability": "nonpayable",
      "type": "constructor"
    },
    {
      "anonymous": false,
      "inputs": [
        {
          "indexed": true,
          "internalType": "address",
          "name": "account",
          "type": "address"
        },
        {
          "indexed": true,
          "internalType": "address",
          "name": "operator",
          "type": "address"
        },
        {
          "indexed": false,
          "internalType": "bool",
          "name": "approved",
          "type": "bool"
        }
      ],
      "name": "ApprovalForAll",
      "type": "event"
    },
    {
      "anonymous": false,
      "inputs": [
        {
          "indexed": false,
          "internalType": "uint256",
          "name": "loanId",
          "type": "uint256"
        }
      ],
      "name": "LoanClaimed",
      "type": "event"
    },
    {
      "anonymous": false,
      "inputs": [
        {
          "indexed": true,
          "internalType": "uint256",
          "name": "loanId",
          "type": "uint256"
        },
        {
          "indexed": true,
          "internalType": "address",
          "name": "lender",
          "type": "address"
        },
        {
          "indexed": true,
          "internalType": "bytes32",
          "name": "offerHash",
          "type": "bytes32"
        }
      ],
      "name": "LoanCreated",
      "type": "event"
    },
    {
      "anonymous": false,
      "inputs": [
        {
          "indexed": true,
          "internalType": "bytes32",
          "name": "offerHash",
          "type": "bytes32"
        }
      ],
      "name": "OfferRevoked",
      "type": "event"
    },
    {
      "anonymous": false,
      "inputs": [
        {
          "indexed": true,
          "internalType": "address",
          "name": "previousOwner",
          "type": "address"
        },
        {
          "indexed": true,
          "internalType": "address",
          "name": "newOwner",
          "type": "address"
        }
      ],
      "name": "OwnershipTransferred",
      "type": "event"
    },
    {
      "anonymous": false,
      "inputs": [
        {
          "indexed": false,
          "internalType": "uint256",
          "name": "loanId",
          "type": "uint256"
        }
      ],
      "name": "PaidBack",
      "type": "event"
    },
    {
      "anonymous": false,
      "inputs": [
        {
          "indexed": true,
          "internalType": "address",
          "name": "operator",
          "type": "address"
        },
        {
          "indexed": true,
          "internalType": "address",
          "name": "from",
          "type": "address"
        },
        {
          "indexed": true,
          "internalType": "address",
          "name": "to",
          "type": "address"
        },
        {
          "indexed": false,
          "internalType": "uint256[]",
          "name": "ids",
          "type": "uint256[]"
        },
        {
          "indexed": false,
          "internalType": "uint256[]",
          "name": "values",
          "type": "uint256[]"
        }
      ],
      "name": "TransferBatch",
      "type": "event"
    },
    {
      "anonymous": false,
      "inputs": [
        {
          "indexed": true,
          "internalType": "address",
          "name": "operator",
          "type": "address"
        },
        {
          "indexed": true,
          "internalType": "address",
          "name": "from",
          "type": "address"
        },
        {
          "indexed": true,
          "internalType": "address",
          "name": "to",
          "type": "address"
        },
        {
          "indexed": false,
          "internalType": "uint256",
          "name": "id",
          "type": "uint256"
        },
        {
          "indexed": false,
          "internalType": "uint256",
          "name": "value",
          "type": "uint256"
        }
      ],
      "name": "TransferSingle",
      "type": "event"
    },
    {
      "anonymous": false,
      "inputs": [
        {
          "indexed": false,
          "internalType": "string",
          "name": "value",
          "type": "string"
        },
        {
          "indexed": true,
          "internalType": "uint256",
          "name": "id",
          "type": "uint256"
        }
      ],
      "name": "URI",
      "type": "event"
    },
    {
      "inputs": [],
      "name": "PWN",
      "outputs": [
        {
          "internalType": "address",
          "name": "",
          "type": "address"
        }
      ],
      "stateMutability": "view",
      "type": "function"
    },
    {
      "inputs": [
        {
          "internalType": "address",
          "name": "account",
          "type": "address"
        },
        {
          "internalType": "uint256",
          "name": "id",
          "type": "uint256"
        }
      ],
      "name": "balanceOf",
      "outputs": [
        {
          "internalType": "uint256",
          "name": "",
          "type": "uint256"
        }
      ],
      "stateMutability": "view",
      "type": "function"
    },
    {
      "inputs": [
        {
          "internalType": "address[]",
          "name": "accounts",
          "type": "address[]"
        },
        {
          "internalType": "uint256[]",
          "name": "ids",
          "type": "uint256[]"
        }
      ],
      "name": "balanceOfBatch",
      "outputs": [
        {
          "internalType": "uint256[]",
          "name": "",
          "type": "uint256[]"
        }
      ],
      "stateMutability": "view",
      "type": "function"
    },
    {
      "inputs": [
        {
          "internalType": "uint256",
          "name": "_loanId",
          "type": "uint256"
        },
        {
          "internalType": "address",
          "name": "_owner",
          "type": "address"
        }
      ],
      "name": "burn",
      "outputs": [],
      "stateMutability": "nonpayable",
      "type": "function"
    },
    {
      "inputs": [
        {
          "internalType": "uint256",
          "name": "_loanId",
          "type": "uint256"
        },
        {
          "internalType": "address",
          "name": "_owner",
          "type": "address"
        }
      ],
      "name": "claim",
      "outputs": [],
      "stateMutability": "nonpayable",
      "type": "function"
    },
    {
      "inputs": [
        {
          "internalType": "uint256",
          "name": "_loanAmount",
          "type": "uint256"
        },
        {
          "internalType": "uint32",
          "name": "_duration",
          "type": "uint32"
        },
        {
          "internalType": "uint256",
          "name": "_loanYieldMax",
          "type": "uint256"
        },
        {
          "internalType": "uint32",
          "name": "_durationMax",
          "type": "uint32"
        }
      ],
      "name": "countLoanRepayAmount",
      "outputs": [
        {
          "internalType": "uint256",
          "name": "",
          "type": "uint256"
        }
      ],
      "stateMutability": "pure",
      "type": "function"
    },
    {
      "inputs": [
        {
          "components": [
            {
              "internalType": "address",
              "name": "collateralAddress",
              "type": "address"
            },
            {
              "internalType": "enum MultiToken.Category",
              "name": "collateralCategory",
              "type": "uint8"
            },
            {
              "internalType": "uint256",
              "name": "collateralAmount",
              "type": "uint256"
            },
            {
              "internalType": "uint256",
              "name": "collateralId",
              "type": "uint256"
            },
            {
              "internalType": "address",
              "name": "loanAssetAddress",
              "type": "address"
            },
            {
              "internalType": "uint256",
              "name": "loanAmount",
              "type": "uint256"
            },
            {
              "internalType": "uint256",
              "name": "loanYield",
              "type": "uint256"
            },
            {
              "internalType": "uint32",
              "name": "duration",
              "type": "uint32"
            },
            {
              "internalType": "uint40",
              "name": "expiration",
              "type": "uint40"
            },
            {
              "internalType": "address",
              "name": "lender",
              "type": "address"
            },
            {
              "internalType": "bytes32",
              "name": "nonce",
              "type": "bytes32"
            }
          ],
          "internalType": "struct PWNLoan.Offer",
          "name": "_offer",
          "type": "tuple"
        },
        {
          "internalType": "bytes",
          "name": "_signature",
          "type": "bytes"
        },
        {
          "internalType": "address",
          "name": "_sender",
          "type": "address"
        }
      ],
      "name": "create",
      "outputs": [],
      "stateMutability": "nonpayable",
      "type": "function"
    },
    {
      "inputs": [
        {
          "components": [
            {
              "internalType": "address",
              "name": "collateralAddress",
              "type": "address"
            },
            {
              "internalType": "enum MultiToken.Category",
              "name": "collateralCategory",
              "type": "uint8"
            },
            {
              "internalType": "uint256",
              "name": "collateralAmount",
              "type": "uint256"
            },
            {
              "internalType": "uint256[]",
              "name": "collateralIdsWhitelist",
              "type": "uint256[]"
            },
            {
              "internalType": "address",
              "name": "loanAssetAddress",
              "type": "address"
            },
            {
              "internalType": "uint256",
              "name": "loanAmountMax",
              "type": "uint256"
            },
            {
              "internalType": "uint256",
              "name": "loanAmountMin",
              "type": "uint256"
            },
            {
              "internalType": "uint256",
              "name": "loanYieldMax",
              "type": "uint256"
            },
            {
              "internalType": "uint32",
              "name": "durationMax",
              "type": "uint32"
            },
            {
              "internalType": "uint32",
              "name": "durationMin",
              "type": "uint32"
            },
            {
              "internalType": "uint40",
              "name": "expiration",
              "type": "uint40"
            },
            {
              "internalType": "address",
              "name": "lender",
              "type": "address"
            },
            {
              "internalType": "bytes32",
              "name": "nonce",
              "type": "bytes32"
            }
          ],
          "internalType": "struct PWNLoan.FlexibleOffer",
          "name": "_offer",
          "type": "tuple"
        },
        {
          "components": [
            {
              "internalType": "uint256",
              "name": "collateralId",
              "type": "uint256"
            },
            {
              "internalType": "uint256",
              "name": "loanAmount",
              "type": "uint256"
            },
            {
              "internalType": "uint32",
              "name": "duration",
              "type": "uint32"
            }
          ],
          "internalType": "struct PWNLoan.FlexibleOfferValues",
          "name": "_offerValues",
          "type": "tuple"
        },
        {
          "internalType": "bytes",
          "name": "_signature",
          "type": "bytes"
        },
        {
          "internalType": "address",
          "name": "_sender",
          "type": "address"
        }
      ],
      "name": "createFlexible",
      "outputs": [],
      "stateMutability": "nonpayable",
      "type": "function"
    },
    {
      "inputs": [
        {
          "internalType": "uint256",
          "name": "_loanId",
          "type": "uint256"
        }
      ],
      "name": "getBorrower",
      "outputs": [
        {
          "internalType": "address",
          "name": "",
          "type": "address"
        }
      ],
      "stateMutability": "view",
      "type": "function"
    },
    {
      "inputs": [
        {
          "internalType": "uint256",
          "name": "_loanId",
          "type": "uint256"
        }
      ],
      "name": "getCollateral",
      "outputs": [
        {
          "components": [
            {
              "internalType": "address",
              "name": "assetAddress",
              "type": "address"
            },
            {
              "internalType": "enum MultiToken.Category",
              "name": "category",
              "type": "uint8"
            },
            {
              "internalType": "uint256",
              "name": "amount",
              "type": "uint256"
            },
            {
              "internalType": "uint256",
              "name": "id",
              "type": "uint256"
            }
          ],
          "internalType": "struct MultiToken.Asset",
          "name": "",
          "type": "tuple"
        }
      ],
      "stateMutability": "view",
      "type": "function"
    },
    {
      "inputs": [
        {
          "internalType": "uint256",
          "name": "_loanId",
          "type": "uint256"
        }
      ],
      "name": "getDuration",
      "outputs": [
        {
          "internalType": "uint32",
          "name": "",
          "type": "uint32"
        }
      ],
      "stateMutability": "view",
      "type": "function"
    },
    {
      "inputs": [
        {
          "internalType": "uint256",
          "name": "_loanId",
          "type": "uint256"
        }
      ],
      "name": "getExpiration",
      "outputs": [
        {
          "internalType": "uint40",
          "name": "",
          "type": "uint40"
        }
      ],
      "stateMutability": "view",
      "type": "function"
    },
    {
      "inputs": [
        {
          "internalType": "uint256",
          "name": "_loanId",
          "type": "uint256"
        }
      ],
      "name": "getLoan",
      "outputs": [
        {
          "components": [
            {
              "internalType": "address",
              "name": "assetAddress",
              "type": "address"
            },
            {
              "internalType": "enum MultiToken.Category",
              "name": "category",
              "type": "uint8"
            },
            {
              "internalType": "uint256",
              "name": "amount",
              "type": "uint256"
            },
            {
              "internalType": "uint256",
              "name": "id",
              "type": "uint256"
            }
          ],
          "internalType": "struct MultiToken.Asset",
          "name": "",
          "type": "tuple"
        }
      ],
      "stateMutability": "view",
      "type": "function"
    },
    {
      "inputs": [
        {
          "internalType": "uint256",
          "name": "_loanId",
          "type": "uint256"
        }
      ],
      "name": "getLoanRepayAmount",
      "outputs": [
        {
          "internalType": "uint256",
          "name": "",
          "type": "uint256"
        }
      ],
      "stateMutability": "view",
      "type": "function"
    },
    {
      "inputs": [
        {
          "internalType": "uint256",
          "name": "_loanId",
          "type": "uint256"
        }
      ],
      "name": "getStatus",
      "outputs": [
        {
          "internalType": "uint8",
          "name": "",
          "type": "uint8"
        }
      ],
      "stateMutability": "view",
      "type": "function"
    },
    {
      "inputs": [],
      "name": "id",
      "outputs": [
        {
          "internalType": "uint256",
          "name": "",
          "type": "uint256"
        }
      ],
      "stateMutability": "view",
      "type": "function"
    },
    {
      "inputs": [
        {
          "internalType": "address",
          "name": "account",
          "type": "address"
        },
        {
          "internalType": "address",
          "name": "operator",
          "type": "address"
        }
      ],
      "name": "isApprovedForAll",
      "outputs": [
        {
          "internalType": "bool",
          "name": "",
          "type": "bool"
        }
      ],
      "stateMutability": "view",
      "type": "function"
    },
    {
      "inputs": [
        {
          "internalType": "bytes32",
          "name": "_offerHash",
          "type": "bytes32"
        }
      ],
      "name": "isRevoked",
      "outputs": [
        {
          "internalType": "bool",
          "name": "",
          "type": "bool"
        }
      ],
      "stateMutability": "view",
      "type": "function"
    },
    {
      "inputs": [
        {
          "internalType": "uint256",
          "name": "",
          "type": "uint256"
        }
      ],
      "name": "loans",
      "outputs": [
        {
          "internalType": "uint8",
          "name": "status",
          "type": "uint8"
        },
        {
          "internalType": "address",
          "name": "borrower",
          "type": "address"
        },
        {
          "internalType": "uint32",
          "name": "duration",
          "type": "uint32"
        },
        {
          "internalType": "uint40",
          "name": "expiration",
          "type": "uint40"
        },
        {
          "components": [
            {
              "internalType": "address",
              "name": "assetAddress",
              "type": "address"
            },
            {
              "internalType": "enum MultiToken.Category",
              "name": "category",
              "type": "uint8"
            },
            {
              "internalType": "uint256",
              "name": "amount",
              "type": "uint256"
            },
            {
              "internalType": "uint256",
              "name": "id",
              "type": "uint256"
            }
          ],
          "internalType": "struct MultiToken.Asset",
          "name": "collateral",
          "type": "tuple"
        },
        {
          "components": [
            {
              "internalType": "address",
              "name": "assetAddress",
              "type": "address"
            },
            {
              "internalType": "enum MultiToken.Category",
              "name": "category",
              "type": "uint8"
            },
            {
              "internalType": "uint256",
              "name": "amount",
              "type": "uint256"
            },
            {
              "internalType": "uint256",
              "name": "id",
              "type": "uint256"
            }
          ],
          "internalType": "struct MultiToken.Asset",
          "name": "asset",
          "type": "tuple"
        },
        {
          "internalType": "uint256",
          "name": "loanRepayAmount",
          "type": "uint256"
        }
      ],
      "stateMutability": "view",
      "type": "function"
    },
    {
      "inputs": [],
      "name": "owner",
      "outputs": [
        {
          "internalType": "address",
          "name": "",
          "type": "address"
        }
      ],
      "stateMutability": "view",
      "type": "function"
    },
    {
      "inputs": [],
      "name": "renounceOwnership",
      "outputs": [],
      "stateMutability": "nonpayable",
      "type": "function"
    },
    {
      "inputs": [
        {
          "internalType": "uint256",
          "name": "_loanId",
          "type": "uint256"
        }
      ],
      "name": "repayLoan",
      "outputs": [],
      "stateMutability": "nonpayable",
      "type": "function"
    },
    {
      "inputs": [
        {
          "internalType": "bytes32",
          "name": "_offerHash",
          "type": "bytes32"
        },
        {
          "internalType": "bytes",
          "name": "_signature",
          "type": "bytes"
        },
        {
          "internalType": "address",
          "name": "_sender",
          "type": "address"
        }
      ],
      "name": "revokeOffer",
      "outputs": [],
      "stateMutability": "nonpayable",
      "type": "function"
    },
    {
      "inputs": [
        {
          "internalType": "bytes32",
          "name": "",
          "type": "bytes32"
        }
      ],
      "name": "revokedOffers",
      "outputs": [
        {
          "internalType": "bool",
          "name": "",
          "type": "bool"
        }
      ],
      "stateMutability": "view",
      "type": "function"
    },
    {
      "inputs": [
        {
          "internalType": "address",
          "name": "from",
          "type": "address"
        },
        {
          "internalType": "address",
          "name": "to",
          "type": "address"
        },
        {
          "internalType": "uint256[]",
          "name": "ids",
          "type": "uint256[]"
        },
        {
          "internalType": "uint256[]",
          "name": "amounts",
          "type": "uint256[]"
        },
        {
          "internalType": "bytes",
          "name": "data",
          "type": "bytes"
        }
      ],
      "name": "safeBatchTransferFrom",
      "outputs": [],
      "stateMutability": "nonpayable",
      "type": "function"
    },
    {
      "inputs": [
        {
          "internalType": "address",
          "name": "from",
          "type": "address"
        },
        {
          "internalType": "address",
          "name": "to",
          "type": "address"
        },
        {
          "internalType": "uint256",
          "name": "id",
          "type": "uint256"
        },
        {
          "internalType": "uint256",
          "name": "amount",
          "type": "uint256"
        },
        {
          "internalType": "bytes",
          "name": "data",
          "type": "bytes"
        }
      ],
      "name": "safeTransferFrom",
      "outputs": [],
      "stateMutability": "nonpayable",
      "type": "function"
    },
    {
      "inputs": [
        {
          "internalType": "address",
          "name": "operator",
          "type": "address"
        },
        {
          "internalType": "bool",
          "name": "approved",
          "type": "bool"
        }
      ],
      "name": "setApprovalForAll",
      "outputs": [],
      "stateMutability": "nonpayable",
      "type": "function"
    },
    {
      "inputs": [
        {
          "internalType": "address",
          "name": "_address",
          "type": "address"
        }
      ],
      "name": "setPWN",
      "outputs": [],
      "stateMutability": "nonpayable",
      "type": "function"
    },
    {
      "inputs": [
        {
          "internalType": "string",
          "name": "_newUri",
          "type": "string"
        }
      ],
      "name": "setUri",
      "outputs": [],
      "stateMutability": "nonpayable",
      "type": "function"
    },
    {
      "inputs": [
        {
          "internalType": "bytes4",
          "name": "interfaceId",
          "type": "bytes4"
        }
      ],
      "name": "supportsInterface",
      "outputs": [
        {
          "internalType": "bool",
          "name": "",
          "type": "bool"
        }
      ],
      "stateMutability": "view",
      "type": "function"
    },
    {
      "inputs": [
        {
          "internalType": "address",
          "name": "newOwner",
          "type": "address"
        }
      ],
      "name": "transferOwnership",
      "outputs": [],
      "stateMutability": "nonpayable",
      "type": "function"
    },
    {
      "inputs": [
        {
          "internalType": "uint256",
          "name": "",
          "type": "uint256"
        }
      ],
      "name": "uri",
      "outputs": [
        {
          "internalType": "string",
          "name": "",
          "type": "string"
        }
      ],
      "stateMutability": "view",
      "type": "function"
    }
  ],
  "bytecode": "0x60806040523480156200001157600080fd5b5060405162003fd238038062003fd2833981016040819052620000349162000164565b80620000408162000053565b506200004c336200006c565b506200028d565b805162000068906002906020840190620000be565b5050565b600380546001600160a01b038381166001600160a01b0319831681179093556040519116919082907f8be0079c531659141344cd1fd0a4f28419497f9722a3daafe3b4186f6b6457e090600090a35050565b828054620000cc906200023a565b90600052602060002090601f016020900481019282620000f057600085556200013b565b82601f106200010b57805160ff19168380011785556200013b565b828001600101855582156200013b579182015b828111156200013b5782518255916020019190600101906200011e565b50620001499291506200014d565b5090565b5b808211156200014957600081556001016200014e565b6000602080838503121562000177578182fd5b82516001600160401b03808211156200018e578384fd5b818501915085601f830112620001a2578384fd5b815181811115620001b757620001b762000277565b604051601f8201601f19908116603f01168101908382118183101715620001e257620001e262000277565b816040528281528886848701011115620001fa578687fd5b8693505b828410156200021d5784840186015181850187015292850192620001fe565b828411156200022e57868684830101525b98975050505050505050565b600181811c908216806200024f57607f821691505b602082108114156200027157634e487b7160e01b600052602260045260246000fd5b50919050565b634e487b7160e01b600052604160045260246000fd5b613d35806200029d6000396000f3fe608060405234801561001057600080fd5b50600436106101ef5760003560e01c80638da5cb5b1161010f578063e1ec3c68116100a2578063f2fde38b11610071578063f2fde38b1461053e578063f432bfaa14610551578063f9d7566614610574578063fcd3533c1461058757600080fd5b8063e1ec3c68146104b6578063e985e9c5146104dc578063ee502d7d14610518578063f242432a1461052b57600080fd5b8063ab7b1c89116100de578063ab7b1c8914610464578063af640d0f14610477578063ba6bf79014610480578063ddd5e1b2146104a357600080fd5b80638da5cb5b146103e95780639b642de1146103fa578063a05b775f1461040d578063a22cb4651461045157600080fd5b80635c622a0e116101875780638500d919116101565780638500d919146103535780638bb126a7146103815780638c26ba0c146103c35780638c8ca4dd146103d657600080fd5b80635c622a0e146102e85780635f1523ee1461030d578063715018a614610320578063805094c71461032857600080fd5b80632eb2c2d6116101c35780632eb2c2d61461027d5780634294857f146102925780634e1273f4146102b5578063504006ca146102d557600080fd5b8062fdd58e146101f457806301ffc9a71461021a5780630e89341c1461023d5780632a62a4901461025d575b600080fd5b610207610202366004613111565b61059a565b6040519081526020015b60405180910390f35b61022d6102283660046132a3565b610634565b6040519015158152602001610211565b61025061024b366004613204565b610684565b60405161021191906138be565b61027061026b366004613204565b610718565b6040516102119190613a0c565b61029061028b366004612fd0565b6107db565b005b61022d6102a0366004613204565b60009081526007602052604090205460ff1690565b6102c86102c336600461313a565b610872565b60405161021191906137eb565b6102706102e3366004613204565b6109d3565b6102fb6102f6366004613204565b610a59565b60405160ff9091168152602001610211565b61029061031b366004613328565b610ae6565b610290610f71565b60045461033b906001600160a01b031681565b6040516001600160a01b039091168152602001610211565b61033b610361366004613204565b60009081526006602052604090205461010090046001600160a01b031690565b6103ae61038f366004613204565b600090815260066020526040902054600160a81b900463ffffffff1690565b60405163ffffffff9091168152602001610211565b6102906103d1366004612f84565b610fa7565b6102076103e436600461359e565b610ff3565b6003546001600160a01b031661033b565b6102906104083660046132db565b61102b565b61043b61041b366004613204565b600090815260066020526040902054600160c81b900464ffffffffff1690565b60405164ffffffffff9091168152602001610211565b61029061045f3660046130d7565b611061565b610290610472366004613204565b611138565b61020760055481565b61020761048e366004613204565b60009081526006602052604090206007015490565b6102906104b136600461357c565b611227565b6104c96104c4366004613204565b61135a565b6040516102119796959493929190613a1a565b61022d6104ea366004612f9e565b6001600160a01b03918216600090815260016020908152604080832093909416825291909152205460ff1690565b61029061052636600461321c565b6114af565b610290610539366004613075565b611634565b61029061054c366004612f84565b6116bb565b61022d61055f366004613204565b60076020526000908152604090205460ff1681565b61029061058236600461347a565b611753565b61029061059536600461357c565b611a45565b60006001600160a01b03831661060b5760405162461bcd60e51b815260206004820152602b60248201527f455243313135353a2062616c616e636520717565727920666f7220746865207a60448201526a65726f206164647265737360a81b60648201526084015b60405180910390fd5b506000818152602081815260408083206001600160a01b03861684529091529020545b92915050565b60006001600160e01b03198216636cdb3d1360e11b148061066557506001600160e01b031982166303a24d0760e21b145b8061062e57506301ffc9a760e01b6001600160e01b031983161461062e565b60606002805461069390613b9a565b80601f01602080910402602001604051908101604052809291908181526020018280546106bf90613b9a565b801561070c5780601f106106e15761010080835404028352916020019161070c565b820191906000526020600020905b8154815290600101906020018083116106ef57829003601f168201915b50505050509050919050565b610744604080516080810190915260008082526020820190815260200160008152602001600081525090565b60008281526006602090815260409182902082516080810190935260010180546001600160a01b03811684529091830190600160a01b900460ff16600281111561079e57634e487b7160e01b600052602160045260246000fd5b60028111156107bd57634e487b7160e01b600052602160045260246000fd5b81526001820154602082015260029091015460409091015292915050565b6001600160a01b0385163314806107f757506107f785336104ea565b61085e5760405162461bcd60e51b815260206004820152603260248201527f455243313135353a207472616e736665722063616c6c6572206973206e6f74206044820152711bdddb995c881b9bdc88185c1c1c9bdd995960721b6064820152608401610602565b61086b8585858585611ba4565b5050505050565b606081518351146108d75760405162461bcd60e51b815260206004820152602960248201527f455243313135353a206163636f756e747320616e6420696473206c656e677468604482015268040dad2e6dac2e8c6d60bb1b6064820152608401610602565b600083516001600160401b0381111561090057634e487b7160e01b600052604160045260246000fd5b604051908082528060200260200182016040528015610929578160200160208202803683370190505b50905060005b84518110156109cb5761099085828151811061095b57634e487b7160e01b600052603260045260246000fd5b602002602001015185838151811061098357634e487b7160e01b600052603260045260246000fd5b602002602001015161059a565b8282815181106109b057634e487b7160e01b600052603260045260246000fd5b60209081029190910101526109c481613c01565b905061092f565b509392505050565b6109ff604080516080810190915260008082526020820190815260200160008152602001600081525090565b60008281526006602090815260409182902082516080810190935260040180546001600160a01b03811684529091830190600160a01b900460ff16600281111561079e57634e487b7160e01b600052602160045260246000fd5b600081815260066020526040812054600160c81b900464ffffffffff1615801590610aa0575060008281526006602052604090205442600160c81b90910464ffffffffff16105b8015610abe575060008281526006602052604090205460ff16600314155b15610acb57506004919050565b5060009081526006602052604090205460ff1690565b919050565b6004546001600160a01b03163314610b105760405162461bcd60e51b815260040161060290613919565b6000610b1a611d9d565b610b2386611e67565b60405161190160f01b602082015260228101929092526042820152606201604051602081830303815290604052805190602001209050610b698561016001518285611fdf565b610b7885610140015182612154565b60608501515115610bfe57610b958560600151856000015161221a565b610bfe5760405162461bcd60e51b815260206004820152603460248201527f53656c656374656420636f6c6c61746572616c206964206973206e6f7420636f6044820152731b9d185a5b9959081a5b881dda1a5d195b1a5cdd60621b6064820152608401610602565b83602001518560c0015111158015610c1e57508460a00151846020015111155b610c765760405162461bcd60e51b815260206004820152602360248201527f4c6f616e20616d6f756e74206973206e6f7420696e206f6666657265642072616044820152626e676560e81b6064820152608401610602565b836040015163ffffffff1685610120015163ffffffff1611158015610cb0575084610100015163ffffffff16846040015163ffffffff1611155b610d0a5760405162461bcd60e51b815260206004820152602560248201527f4c6f616e206475726174696f6e206973206e6f7420696e206f6666657265642060448201526472616e676560d81b6064820152608401610602565b6000818152600760205260408120805460ff19166001179055600580548290610d3290613c01565b91829055506000818152600660205260409081902080549188015160026001600160a81b03199093166101006001600160a01b03891602179290921763ffffffff60a81b1916600160a81b63ffffffff909316928302178155919250610d989042613b02565b815464ffffffffff91909116600160c81b0264ffffffffff60c81b19909116178155604080516080810190915287516001600160a01b03168152602080890151908201906002811115610dfb57634e487b7160e01b600052602160045260246000fd5b81526040898101516020808401919091528951919092015281516001840180546001600160a01b031981166001600160a01b039093169283178255928401519092909183916001600160a81b03191617600160a01b836002811115610e7057634e487b7160e01b600052602160045260246000fd5b021790555060408281015160018301556060928301516002909201919091558051608080820183528a01516001600160a01b0316808252600060208084018290528b018051848601819052939095018190526004860180546001600160a81b0319169092179091556005850191909155600684015590519087015160e08901516101008a0151610f0293929190610ff3565b8160070181905550610f2b87610160015183600160405180602001604052806000815250612272565b828761016001516001600160a01b0316837f4abc05b9e360a27eb4a6d3e800ce3c1c30abfe23938a429833c76228ab98b20560405160405180910390a450505050505050565b6003546001600160a01b03163314610f9b5760405162461bcd60e51b8152600401610602906139d7565b610fa5600061237c565b565b6003546001600160a01b03163314610fd15760405162461bcd60e51b8152600401610602906139d7565b600480546001600160a01b0319166001600160a01b0392909216919091179055565b60008163ffffffff168463ffffffff168461100e9190613b4b565b6110189190613b2b565b6110229086613aea565b95945050505050565b6003546001600160a01b031633146110555760405162461bcd60e51b8152600401610602906139d7565b61105e816123ce565b50565b336001600160a01b03831614156110cc5760405162461bcd60e51b815260206004820152602960248201527f455243313135353a2073657474696e6720617070726f76616c20737461747573604482015268103337b91039b2b63360b91b6064820152608401610602565b3360008181526001602090815260408083206001600160a01b03871680855290835292819020805460ff191686151590811790915590519081529192917f17307eab39ab6107e8899845ad3d59bd9653f200f220920489ca2b5937696c31910160405180910390a35050565b6004546001600160a01b031633146111625760405162461bcd60e51b815260040161060290613919565b61116b81610a59565b60ff166002146111d15760405162461bcd60e51b815260206004820152602b60248201527f4c6f616e206973206e6f742072756e6e696e6720616e642063616e6e6f74206260448201526a652070616964206261636b60a81b6064820152608401610602565b60008181526006602052604090819020805460ff19166003179055517f0b117c6ee83d9fec759aca04cf1059fc287d6173a4eb3f42c1232cce1d5202f49061121c9083815260200190565b60405180910390a150565b6004546001600160a01b031633146112515760405162461bcd60e51b815260040161060290613919565b61125b818361059a565b6001146112aa5760405162461bcd60e51b815260206004820152601c60248201527f43616c6c6572206973206e6f7420746865206c6f616e206f776e6572000000006044820152606401610602565b60036112b583610a59565b60ff1610156113065760405162461bcd60e51b815260206004820152601960248201527f4c6f616e2063616e277420626520636c61696d656420796574000000000000006044820152606401610602565b60008281526006602052604090819020805460ff19169055517fb15e438728b48d46c9a5505713e60ff50c80559f4523c8f99a246a2069a8684a9061134e9084815260200190565b60405180910390a15050565b60066020908152600091825260409182902080548351608081019094526001820180546001600160a01b03808216875260ff80851697610100860490921696600160a81b860463ffffffff1696600160c81b90960464ffffffffff169594929390840191600160a01b9091041660028111156113e657634e487b7160e01b600052602160045260246000fd5b600281111561140557634e487b7160e01b600052602160045260246000fd5b815260018201546020808301919091526002928301546040928301528151608081019092526004850180546001600160a01b03811684529495949293909291840191600160a01b900460ff169081111561146f57634e487b7160e01b600052602160045260246000fd5b600281111561148e57634e487b7160e01b600052602160045260246000fd5b81526001820154602082015260029091015460409091015260079091015487565b6004546001600160a01b031633146114d95760405162461bcd60e51b815260040161060290613919565b806001600160a01b03166115238585858080601f0160208091040260200160405190810160405280939291908181526020018383808284376000920191909152506123e192505050565b6001600160a01b0316146115795760405162461bcd60e51b815260206004820152601d60248201527f53656e646572206973206e6f7420616e206f66666572207369676e65720000006044820152606401610602565b60008481526007602052604090205460ff16156115ee5760405162461bcd60e51b815260206004820152602d60248201527f4f6666657220697320616c7265616479207265766f6b6564206f72206861732060448201526c1899595b881858d8d95c1d1959609a1b6064820152608401610602565b600084815260076020526040808220805460ff191660011790555185917fc0885ade686cf1ca700832b5b7a2f2b0759e5a483174588f940e3ac048a8f8d091a250505050565b6001600160a01b038516331480611650575061165085336104ea565b6116ae5760405162461bcd60e51b815260206004820152602960248201527f455243313135353a2063616c6c6572206973206e6f74206f776e6572206e6f7260448201526808185c1c1c9bdd995960ba1b6064820152608401610602565b61086b85858585856123fd565b6003546001600160a01b031633146116e55760405162461bcd60e51b8152600401610602906139d7565b6001600160a01b03811661174a5760405162461bcd60e51b815260206004820152602660248201527f4f776e61626c653a206e6577206f776e657220697320746865207a65726f206160448201526564647265737360d01b6064820152608401610602565b61105e8161237c565b6004546001600160a01b0316331461177d5760405162461bcd60e51b815260040161060290613919565b6000611787611d9d565b6117908561251a565b60405161190160f01b6020820152602281019290925260428201526062016040516020818303038152906040528051906020012090506117d68461012001518285611fdf565b6117e584610100015182612154565b6000818152600760205260408120805460ff1916600117905560058054829061180d90613c01565b91829055506000818152600660205260409020805460e088015160026001600160a81b03199092166101006001600160a01b03891602179190911763ffffffff60a81b1916600160a81b63ffffffff909216918202178255919250906118739042613b02565b815464ffffffffff91909116600160c81b0264ffffffffff60c81b19909116178155604080516080810190915286516001600160a01b031681526020808801519082019060028111156118d657634e487b7160e01b600052602160045260246000fd5b815260408881015160208084019190915260608a0151919092015281516001840180546001600160a01b031981166001600160a01b039093169283178255928401519092909183916001600160a81b03191617600160a01b83600281111561194e57634e487b7160e01b600052602160045260246000fd5b021790555060408281015160018301556060928301516002909201919091558051608080820183528901516001600160a01b031680825260006020830181905260a08b018051948401859052929094018490526004850180546001600160a81b03191690911790556005840191909155600683019190915560c087015190516119d79190613aea565b8160070181905550611a0086610120015183600160405180602001604052806000815250612272565b828661012001516001600160a01b0316837f4abc05b9e360a27eb4a6d3e800ce3c1c30abfe23938a429833c76228ab98b20560405160405180910390a4505050505050565b6004546001600160a01b03163314611a6f5760405162461bcd60e51b815260040161060290613919565b611a79818361059a565b600114611ac85760405162461bcd60e51b815260206004820152601c60248201527f43616c6c6572206973206e6f7420746865206c6f616e206f776e6572000000006044820152606401610602565b60008281526006602052604090205460ff1615611b325760405162461bcd60e51b815260206004820152602260248201527f4c6f616e2063616e2774206265206275726e6564206174207468697320737461604482015261676560f01b6064820152608401610602565b6000828152600660208190526040822080546001600160f01b0319168155600180820180546001600160a81b0319908116909155600283018590556003830185905560048301805490911690556005820184905591810183905560070191909155611ba090829084906125af565b5050565b8151835114611c065760405162461bcd60e51b815260206004820152602860248201527f455243313135353a2069647320616e6420616d6f756e7473206c656e677468206044820152670dad2e6dac2e8c6d60c31b6064820152608401610602565b6001600160a01b038416611c2c5760405162461bcd60e51b815260040161060290613948565b3360005b8451811015611d2f576000858281518110611c5b57634e487b7160e01b600052603260045260246000fd5b602002602001015190506000858381518110611c8757634e487b7160e01b600052603260045260246000fd5b602090810291909101810151600084815280835260408082206001600160a01b038e168352909352919091205490915081811015611cd75760405162461bcd60e51b81526004016106029061398d565b6000838152602081815260408083206001600160a01b038e8116855292528083208585039055908b16825281208054849290611d14908490613aea565b9250508190555050505080611d2890613c01565b9050611c30565b50846001600160a01b0316866001600160a01b0316826001600160a01b03167f4a39dc06d4c0dbc64b70af90fd698a233a518aa5d07e595d983b8c0526c8f7fb8787604051611d7f9291906137fe565b60405180910390a4611d95818787878787612729565b505050505050565b6040805180820182526003815262282ba760e91b6020918201528151808301835260018152603160f81b9082015281517f8b73c3c69bb8fe3d512ecc4cf759cc79239f7b179b0ffacaa9a75d522b39400f818301527fbecbc5e7d5b58d6f1c8ea79197877ea15b6d3f333b75c73ffc7ce124e395e163818401527fc89efdaa54c0f20c7adf612882df0950f5a951637e0307cdcb4c672f298b8bc660608201524660808201523060a0808301919091528351808303909101815260c0909101909252815191012090565b6000808260000151836020015184604001518560600151604051602001611e8e9190613696565b60405160208183030381529060405280519060200120604051602001611eb794939291906137bc565b60408051808303601f1901815282825260808681015160a08089015160c08a015160e08b01516001600160a01b0390941660208901529587015260608601949094529084015292506000910160408051808303601f190181528282526101008701516101208801516101408901516101608a01516101808b015163ffffffff9485166020890152939092169486019490945264ffffffffff90931660608501526001600160a01b03909216608084015260a0830191909152915060009060c00160405160208183030381529060405290507f739e116d0107abf216ef01e7cd15f09820b8d836369345801e1ff5e8b367cfb1838383604051602001611fbf94939291906136cc565b604051602081830303815290604052805190602001209350505050919050565b6001600160a01b0383163b156120de57604051630b135d3f60e11b808252906001600160a01b03851690631626ba7e9061201f90869086906004016138a5565b60206040518083038186803b15801561203757600080fd5b505afa15801561204b573d6000803e3d6000fd5b505050506040513d601f19601f8201168201806040525081019061206f91906132bf565b6001600160e01b031916146120d95760405162461bcd60e51b815260206004820152602a60248201527f5369676e6174757265206f6e20626568616c66206f6620636f6e7472616374206044820152691a5cc81a5b9d985b1a5960b21b6064820152608401610602565b505050565b826001600160a01b03166120f283836123e1565b6001600160a01b0316146120d95760405162461bcd60e51b8152602060048201526024808201527f4c656e6465722061646472657373206469646e2774207369676e20746865206f604482015263333332b960e11b6064820152608401610602565b64ffffffffff8216158061216e57508164ffffffffff1642105b6121ad5760405162461bcd60e51b815260206004820152601060248201526f13d999995c881a5cc8195e1c1a5c995960821b6044820152606401610602565b60008181526007602052604090205460ff1615611ba05760405162461bcd60e51b815260206004820152602560248201527f4f66666572206973207265766f6b6564206f7220686173206265656e20616363604482015264195c1d195960da1b6064820152608401610602565b6000805b8351811015612268578284828151811061224857634e487b7160e01b600052603260045260246000fd5b6020026020010151141561226057600191505061062e565b60010161221e565b5060009392505050565b6001600160a01b0384166122d25760405162461bcd60e51b815260206004820152602160248201527f455243313135353a206d696e7420746f20746865207a65726f206164647265736044820152607360f81b6064820152608401610602565b336122ec816000876122e388612894565b61086b88612894565b6000848152602081815260408083206001600160a01b03891684529091528120805485929061231c908490613aea565b909155505060408051858152602081018590526001600160a01b0380881692600092918516917fc3d58168c5ae7397731d063d5bbf3d657854427343f4c083240f7aacaa2d0f62910160405180910390a461086b816000878787876128ed565b600380546001600160a01b038381166001600160a01b0319831681179093556040519116919082907f8be0079c531659141344cd1fd0a4f28419497f9722a3daafe3b4186f6b6457e090600090a35050565b8051611ba0906002906020840190612d44565b60008060006123f085856129b7565b915091506109cb81612a27565b6001600160a01b0384166124235760405162461bcd60e51b815260040161060290613948565b336124338187876122e388612894565b6000848152602081815260408083206001600160a01b038a168452909152902054838110156124745760405162461bcd60e51b81526004016106029061398d565b6000858152602081815260408083206001600160a01b038b81168552925280832087850390559088168252812080548692906124b1908490613aea565b909155505060408051868152602081018690526001600160a01b03808916928a821692918616917fc3d58168c5ae7397731d063d5bbf3d657854427343f4c083240f7aacaa2d0f62910160405180910390a46125118288888888886128ed565b50505050505050565b60007f73fa9d9b2b8a6ae8dd3a6cf0a97956557a9a4e7eb8cddcc915edf2e2fe2f7c6d826000015183602001518460400151856060015186608001518760a001518860c001518960e001518a61010001518b61012001518c61014001516040516020016125929c9b9a99989796959493929190613823565b604051602081830303815290604052805190602001209050919050565b6001600160a01b0383166126115760405162461bcd60e51b815260206004820152602360248201527f455243313135353a206275726e2066726f6d20746865207a65726f206164647260448201526265737360e81b6064820152608401610602565b336126418185600061262287612894565b61262b87612894565b5050604080516020810190915260009052505050565b6000838152602081815260408083206001600160a01b0388168452909152902054828110156126be5760405162461bcd60e51b8152602060048201526024808201527f455243313135353a206275726e20616d6f756e7420657863656564732062616c604482015263616e636560e01b6064820152608401610602565b6000848152602081815260408083206001600160a01b03898116808652918452828520888703905582518981529384018890529092908616917fc3d58168c5ae7397731d063d5bbf3d657854427343f4c083240f7aacaa2d0f62910160405180910390a45050505050565b6001600160a01b0384163b15611d955760405163bc197c8160e01b81526001600160a01b0385169063bc197c819061276d9089908990889088908890600401613719565b602060405180830381600087803b15801561278757600080fd5b505af19250505080156127b7575060408051601f3d908101601f191682019092526127b4918101906132bf565b60015b612864576127c3613c48565b806308c379a014156127fd57506127d8613c60565b806127e357506127ff565b8060405162461bcd60e51b815260040161060291906138be565b505b60405162461bcd60e51b815260206004820152603460248201527f455243313135353a207472616e7366657220746f206e6f6e20455243313135356044820152732932b1b2b4bb32b91034b6b83632b6b2b73a32b960611b6064820152608401610602565b6001600160e01b0319811663bc197c8160e01b146125115760405162461bcd60e51b8152600401610602906138d1565b604080516001808252818301909252606091600091906020808301908036833701905050905082816000815181106128dc57634e487b7160e01b600052603260045260246000fd5b602090810291909101015292915050565b6001600160a01b0384163b15611d955760405163f23a6e6160e01b81526001600160a01b0385169063f23a6e61906129319089908990889088908890600401613777565b602060405180830381600087803b15801561294b57600080fd5b505af192505050801561297b575060408051601f3d908101601f19168201909252612978918101906132bf565b60015b612987576127c3613c48565b6001600160e01b0319811663f23a6e6160e01b146125115760405162461bcd60e51b8152600401610602906138d1565b6000808251604114156129ee5760208301516040840151606085015160001a6129e287828585612c28565b94509450505050612a20565b825160401415612a185760208301516040840151612a0d868383612d15565b935093505050612a20565b506000905060025b9250929050565b6000816004811115612a4957634e487b7160e01b600052602160045260246000fd5b1415612a525750565b6001816004811115612a7457634e487b7160e01b600052602160045260246000fd5b1415612ac25760405162461bcd60e51b815260206004820152601860248201527f45434453413a20696e76616c6964207369676e617475726500000000000000006044820152606401610602565b6002816004811115612ae457634e487b7160e01b600052602160045260246000fd5b1415612b325760405162461bcd60e51b815260206004820152601f60248201527f45434453413a20696e76616c6964207369676e6174757265206c656e677468006044820152606401610602565b6003816004811115612b5457634e487b7160e01b600052602160045260246000fd5b1415612bad5760405162461bcd60e51b815260206004820152602260248201527f45434453413a20696e76616c6964207369676e6174757265202773272076616c604482015261756560f01b6064820152608401610602565b6004816004811115612bcf57634e487b7160e01b600052602160045260246000fd5b141561105e5760405162461bcd60e51b815260206004820152602260248201527f45434453413a20696e76616c6964207369676e6174757265202776272076616c604482015261756560f01b6064820152608401610602565b6000807f7fffffffffffffffffffffffffffffff5d576e7357a4501ddfe92f46681b20a0831115612c5f5750600090506003612d0c565b8460ff16601b14158015612c7757508460ff16601c14155b15612c885750600090506004612d0c565b6040805160008082526020820180845289905260ff881692820192909252606081018690526080810185905260019060a0016020604051602081039080840390855afa158015612cdc573d6000803e3d6000fd5b5050604051601f1901519150506001600160a01b038116612d0557600060019250925050612d0c565b9150600090505b94509492505050565b6000806001600160ff1b03831660ff84901c601b01612d3687828885612c28565b935093505050935093915050565b828054612d5090613b9a565b90600052602060002090601f016020900481019282612d725760008555612db8565b82601f10612d8b57805160ff1916838001178555612db8565b82800160010185558215612db8579182015b82811115612db8578251825591602001919060010190612d9d565b50612dc4929150612dc8565b5090565b5b80821115612dc45760008155600101612dc9565b60006001600160401b03831115612df657612df6613c32565b604051612e0d601f8501601f191660200182613bd5565b809150838152848484011115612e2257600080fd5b83836020830137600060208583010152509392505050565b80356001600160a01b0381168114610ae157600080fd5b600082601f830112612e61578081fd5b81356020612e6e82613ac7565b604051612e7b8282613bd5565b8381528281019150858301600585901b87018401881015612e9a578586fd5b855b85811015612eb857813584529284019290840190600101612e9c565b5090979650505050505050565b600082601f830112612ed5578081fd5b612ee483833560208501612ddd565b9392505050565b803560038110610ae157600080fd5b600060608284031215612f0b578081fd5b604051606081018181106001600160401b0382111715612f2d57612f2d613c32565b80604052508091508235815260208301356020820152612f4f60408401612f5b565b60408201525092915050565b803563ffffffff81168114610ae157600080fd5b803564ffffffffff81168114610ae157600080fd5b600060208284031215612f95578081fd5b612ee482612e3a565b60008060408385031215612fb0578081fd5b612fb983612e3a565b9150612fc760208401612e3a565b90509250929050565b600080600080600060a08688031215612fe7578081fd5b612ff086612e3a565b9450612ffe60208701612e3a565b935060408601356001600160401b0380821115613019578283fd5b61302589838a01612e51565b9450606088013591508082111561303a578283fd5b61304689838a01612e51565b9350608088013591508082111561305b578283fd5b5061306888828901612ec5565b9150509295509295909350565b600080600080600060a0868803121561308c578283fd5b61309586612e3a565b94506130a360208701612e3a565b9350604086013592506060860135915060808601356001600160401b038111156130cb578182fd5b61306888828901612ec5565b600080604083850312156130e9578182fd5b6130f283612e3a565b915060208301358015158114613106578182fd5b809150509250929050565b60008060408385031215613123578182fd5b61312c83612e3a565b946020939093013593505050565b6000806040838503121561314c578182fd5b82356001600160401b0380821115613162578384fd5b818501915085601f830112613175578384fd5b8135602061318282613ac7565b60405161318f8282613bd5565b8381528281019150858301600585901b870184018b10156131ae578889fd5b8896505b848710156131d7576131c381612e3a565b8352600196909601959183019183016131b2565b50965050860135925050808211156131ed578283fd5b506131fa85828601612e51565b9150509250929050565b600060208284031215613215578081fd5b5035919050565b60008060008060608587031215613231578182fd5b8435935060208501356001600160401b038082111561324e578384fd5b818701915087601f830112613261578384fd5b81358181111561326f578485fd5b886020828501011115613280578485fd5b60208301955080945050505061329860408601612e3a565b905092959194509250565b6000602082840312156132b4578081fd5b8135612ee481613ce9565b6000602082840312156132d0578081fd5b8151612ee481613ce9565b6000602082840312156132ec578081fd5b81356001600160401b03811115613301578182fd5b8201601f81018413613311578182fd5b61332084823560208401612ddd565b949350505050565b60008060008060c0858703121561333d578182fd5b84356001600160401b0380821115613353578384fd5b908601906101a08289031215613367578384fd5b61336f613a7b565b61337883612e3a565b815261338660208401612eeb565b6020820152604083013560408201526060830135828111156133a6578586fd5b6133b28a828601612e51565b6060830152506133c460808401612e3a565b608082015260a083013560a082015260c083013560c082015260e083013560e08201526101006133f5818501612f5b565b90820152610120613407848201612f5b565b90820152610140613419848201612f6f565b9082015261016061342b848201612e3a565b90820152610180838101359082015295506134498860208901612efa565b9450608087013591508082111561345e578384fd5b5061346b87828801612ec5565b92505061329860a08601612e3a565b60008060008385036101a0811215613490578182fd5b6101608082121561349f578283fd5b6134a7613aa4565b91506134b286612e3a565b82526134c060208701612eeb565b602083015260408601356040830152606086013560608301526134e560808701612e3a565b608083015260a086013560a083015260c086013560c083015261350a60e08701612f5b565b60e083015261010061351d818801612f6f565b9083015261012061352f878201612e3a565b9083015261014086810135908301529093508401356001600160401b03811115613557578182fd5b61356386828701612ec5565b9250506135736101808501612e3a565b90509250925092565b6000806040838503121561358e578182fd5b82359150612fc760208401612e3a565b600080600080608085870312156135b3578182fd5b843593506135c360208601612f5b565b92506040850135915061329860608601612f5b565b6000815180845260208085019450808401835b83811015613607578151875295820195908201906001016135eb565b509495945050505050565b6000815180845261362a816020860160208601613b6a565b601f01601f19169290920160200192915050565b6003811061365c57634e487b7160e01b600052602160045260246000fd5b9052565b80516001600160a01b03168252602080820151906136809084018261363e565b5060408181015190830152606090810151910152565b815160009082906020808601845b838110156136c0578151855293820193908201906001016136a4565b50929695505050505050565b8481526000602085516136e481838601848a01613b6a565b8551908401906136f981848401858a01613b6a565b855191019061370d81848401858901613b6a565b01019695505050505050565b6001600160a01b0386811682528516602082015260a060408201819052600090613745908301866135d8565b828103606084015261375781866135d8565b9050828103608084015261376b8185613612565b98975050505050505050565b6001600160a01b03868116825285166020820152604081018490526060810183905260a0608082018190526000906137b190830184613612565b979650505050505050565b6001600160a01b0385168152608081016137d9602083018661363e565b60408201939093526060015292915050565b602081526000612ee460208301846135d8565b60408152600061381160408301856135d8565b828103602084015261102281856135d8565b8c81526001600160a01b038c81166020830152610180820190613849604084018e61363e565b606083019b909b52608082019990995296891660a088015260c087019590955260e086019390935263ffffffff9190911661010085015264ffffffffff1661012084015290931661014082015261016001919091529392505050565b8281526040602082015260006133206040830184613612565b602081526000612ee46020830184613612565b60208082526028908201527f455243313135353a204552433131353552656365697665722072656a656374656040820152676420746f6b656e7360c01b606082015260800190565b60208082526015908201527421b0b63632b91034b9903737ba103a343290282ba760591b604082015260600190565b60208082526025908201527f455243313135353a207472616e7366657220746f20746865207a65726f206164604082015264647265737360d81b606082015260800190565b6020808252602a908201527f455243313135353a20696e73756666696369656e742062616c616e636520666f60408201526939103a3930b739b332b960b11b606082015260800190565b6020808252818101527f4f776e61626c653a2063616c6c6572206973206e6f7420746865206f776e6572604082015260600190565b6080810161062e8284613660565b60ff881681526001600160a01b038716602082015263ffffffff8616604082015264ffffffffff851660608201526101a08101613a5a6080830186613660565b613a68610100830185613660565b8261018083015298975050505050505050565b6040516101a081016001600160401b0381118282101715613a9e57613a9e613c32565b60405290565b60405161016081016001600160401b0381118282101715613a9e57613a9e613c32565b60006001600160401b03821115613ae057613ae0613c32565b5060051b60200190565b60008219821115613afd57613afd613c1c565b500190565b600064ffffffffff808316818516808303821115613b2257613b22613c1c565b01949350505050565b600082613b4657634e487b7160e01b81526012600452602481fd5b500490565b6000816000190483118215151615613b6557613b65613c1c565b500290565b60005b83811015613b85578181015183820152602001613b6d565b83811115613b94576000848401525b50505050565b600181811c90821680613bae57607f821691505b60208210811415613bcf57634e487b7160e01b600052602260045260246000fd5b50919050565b601f8201601f191681016001600160401b0381118282101715613bfa57613bfa613c32565b6040525050565b6000600019821415613c1557613c15613c1c565b5060010190565b634e487b7160e01b600052601160045260246000fd5b634e487b7160e01b600052604160045260246000fd5b600060033d1115613c5d57600481823e5160e01c5b90565b600060443d1015613c6e5790565b6040516003193d81016004833e81513d6001600160401b038160248401118184111715613c9d57505050505090565b8285019150815181811115613cb55750505050505090565b843d8701016020828501011115613ccf5750505050505090565b613cde60208286010187613bd5565b509095945050505050565b6001600160e01b03198116811461105e57600080fdfea2646970667358221220d154190f75c744a42f0c5b4a38d5901c448b06879b62d013d5481069fcf6709664736f6c63430008040033",
  "linkReferences": {},
  "deployedLinkReferences": {}
}