{
  "_format": "hh-sol-artifact-1",
  "contractName": "PWN",
  "sourceName": "contracts/PWN.sol",
  "abi": [
    {
      "inputs": [
        {
          "internalType": "address",
          "name": "_PWND",
          "type": "address"
        },
        {
          "internalType": "address",
          "name": "_PWNV",
          "type": "address"
        }
      ],
      "stateMutability": "nonpayable",
      "type": "constructor"
    },
    {
      "anonymous": false,
      "inputs": [
        {
          "indexed": true,
          "internalType": "address",
          "name": "previousOwner",
          "type": "address"
        },
        {
          "indexed": true,
          "internalType": "address",
          "name": "newOwner",
          "type": "address"
        }
      ],
      "name": "OwnershipTransferred",
      "type": "event"
    },
    {
      "inputs": [
        {
          "internalType": "uint256",
          "name": "_did",
          "type": "uint256"
        }
      ],
      "name": "claimDeed",
      "outputs": [
        {
          "internalType": "bool",
          "name": "",
          "type": "bool"
        }
      ],
      "stateMutability": "nonpayable",
      "type": "function"
    },
    {
      "inputs": [
        {
          "components": [
            {
              "internalType": "address",
              "name": "collateralAddress",
              "type": "address"
            },
            {
              "internalType": "enum MultiToken.Category",
              "name": "collateralCategory",
              "type": "uint8"
            },
            {
              "internalType": "uint256",
              "name": "collateralAmount",
              "type": "uint256"
            },
            {
              "internalType": "uint256",
              "name": "collateralId",
              "type": "uint256"
            },
            {
              "internalType": "address",
              "name": "loanAssetAddress",
              "type": "address"
            },
            {
              "internalType": "uint256",
              "name": "loanAmount",
              "type": "uint256"
            },
            {
              "internalType": "uint256",
              "name": "loanYield",
              "type": "uint256"
            },
            {
              "internalType": "uint32",
              "name": "duration",
              "type": "uint32"
            },
            {
              "internalType": "uint40",
              "name": "expiration",
              "type": "uint40"
            },
            {
              "internalType": "address",
              "name": "lender",
              "type": "address"
            },
            {
              "internalType": "bytes32",
              "name": "nonce",
              "type": "bytes32"
            }
          ],
          "internalType": "struct PWNDeed.Offer",
          "name": "_offer",
          "type": "tuple"
        },
        {
          "internalType": "bytes",
          "name": "_signature",
          "type": "bytes"
        }
      ],
      "name": "createDeed",
      "outputs": [
        {
          "internalType": "bool",
          "name": "",
          "type": "bool"
        }
      ],
      "stateMutability": "nonpayable",
      "type": "function"
    },
    {
      "inputs": [
        {
          "components": [
            {
              "internalType": "address",
              "name": "collateralAddress",
              "type": "address"
            },
            {
              "internalType": "enum MultiToken.Category",
              "name": "collateralCategory",
              "type": "uint8"
            },
            {
              "internalType": "uint256",
              "name": "collateralAmount",
              "type": "uint256"
            },
            {
              "internalType": "uint256[]",
              "name": "collateralIdsWhitelist",
              "type": "uint256[]"
            },
            {
              "internalType": "address",
              "name": "loanAssetAddress",
              "type": "address"
            },
            {
              "internalType": "uint256",
              "name": "loanAmountMax",
              "type": "uint256"
            },
            {
              "internalType": "uint256",
              "name": "loanAmountMin",
              "type": "uint256"
            },
            {
              "internalType": "uint256",
              "name": "loanYieldMax",
              "type": "uint256"
            },
            {
              "internalType": "uint32",
              "name": "durationMax",
              "type": "uint32"
            },
            {
              "internalType": "uint32",
              "name": "durationMin",
              "type": "uint32"
            },
            {
              "internalType": "uint40",
              "name": "expiration",
              "type": "uint40"
            },
            {
              "internalType": "address",
              "name": "lender",
              "type": "address"
            },
            {
              "internalType": "bytes32",
              "name": "nonce",
              "type": "bytes32"
            }
          ],
          "internalType": "struct PWNDeed.FlexibleOffer",
          "name": "_offer",
          "type": "tuple"
        },
        {
          "components": [
            {
              "internalType": "uint256",
              "name": "collateralId",
              "type": "uint256"
            },
            {
              "internalType": "uint256",
              "name": "loanAmount",
              "type": "uint256"
            },
            {
              "internalType": "uint32",
              "name": "duration",
              "type": "uint32"
            }
          ],
          "internalType": "struct PWNDeed.OfferInstance",
          "name": "_offerInstance",
          "type": "tuple"
        },
        {
          "internalType": "bytes",
          "name": "_signature",
          "type": "bytes"
        }
      ],
      "name": "createDeedFlexible",
      "outputs": [
        {
          "internalType": "bool",
          "name": "",
          "type": "bool"
        }
      ],
      "stateMutability": "nonpayable",
      "type": "function"
    },
    {
      "inputs": [],
      "name": "deed",
      "outputs": [
        {
          "internalType": "contract PWNDeed",
          "name": "",
          "type": "address"
        }
      ],
      "stateMutability": "view",
      "type": "function"
    },
    {
      "inputs": [],
      "name": "owner",
      "outputs": [
        {
          "internalType": "address",
          "name": "",
          "type": "address"
        }
      ],
      "stateMutability": "view",
      "type": "function"
    },
    {
      "inputs": [],
      "name": "renounceOwnership",
      "outputs": [],
      "stateMutability": "nonpayable",
      "type": "function"
    },
    {
      "inputs": [
        {
          "internalType": "uint256",
          "name": "_did",
          "type": "uint256"
        }
      ],
      "name": "repayLoan",
      "outputs": [
        {
          "internalType": "bool",
          "name": "",
          "type": "bool"
        }
      ],
      "stateMutability": "nonpayable",
      "type": "function"
    },
    {
      "inputs": [
        {
          "internalType": "bytes32",
          "name": "_offerHash",
          "type": "bytes32"
        },
        {
          "internalType": "bytes",
          "name": "_signature",
          "type": "bytes"
        }
      ],
      "name": "revokeOffer",
      "outputs": [
        {
          "internalType": "bool",
          "name": "",
          "type": "bool"
        }
      ],
      "stateMutability": "nonpayable",
      "type": "function"
    },
    {
      "inputs": [
        {
          "internalType": "address",
          "name": "newOwner",
          "type": "address"
        }
      ],
      "name": "transferOwnership",
      "outputs": [],
      "stateMutability": "nonpayable",
      "type": "function"
    },
    {
      "inputs": [],
      "name": "vault",
      "outputs": [
        {
          "internalType": "contract PWNVault",
          "name": "",
          "type": "address"
        }
      ],
      "stateMutability": "view",
      "type": "function"
    }
  ],
  "bytecode": "0x60806040523480156200001157600080fd5b5060405162001a6438038062001a648339810160408190526200003491620000de565b6200003f3362000071565b600180546001600160a01b039384166001600160a01b0319918216179091556002805492909316911617905562000115565b600080546001600160a01b038381166001600160a01b0319831681178455604051919092169283917f8be0079c531659141344cd1fd0a4f28419497f9722a3daafe3b4186f6b6457e09190a35050565b80516001600160a01b0381168114620000d957600080fd5b919050565b60008060408385031215620000f1578182fd5b620000fc83620000c1565b91506200010c60208401620000c1565b90509250929050565b61193f80620001256000396000f3fe608060405234801561001057600080fd5b506004361061009e5760003560e01c8063d01df14611610066578063d01df14614610120578063e9eb101714610133578063ea1fb74f14610146578063f2fde38b14610159578063fbfa77cf1461016c57600080fd5b8063501bb2c1146100a3578063715018a6146100cb5780638da5cb5b146100d5578063ab7b1c89146100fa578063c2f1e6bd1461010d575b600080fd5b6100b66100b136600461120b565b61017f565b60405190151581526020015b60405180910390f35b6100d36103b7565b005b6000546001600160a01b03165b6040516001600160a01b0390911681526020016100c2565b6100b661010836600461144a565b610422565b6001546100e2906001600160a01b031681565b6100b661012e366004611358565b610786565b6100b6610141366004611120565b6109bb565b6100b661015436600461144a565b610a2e565b6100d36101673660046110c1565b610e12565b6002546100e2906001600160a01b031681565b600154604051632f8a91f760e11b81526000916001600160a01b031690635f1523ee906101b6908790879087903390600401611617565b600060405180830381600087803b1580156101d057600080fd5b505af11580156101e4573d6000803e3d6000fd5b505050506000604051806080016040528086600001516001600160a01b031681526020018660200151600281111561022c57634e487b7160e01b600052602160045260246000fd5b815260200186604001518152602001856000015181525090506000604051806080016040528087608001516001600160a01b031681526020016000600281111561028657634e487b7160e01b600052602160045260246000fd5b8152602087810151908201526000604091820152600254905163353dac7560e21b81529192506001600160a01b03169063d4f6b1d4906102cc90859033906004016115c1565b602060405180830381600087803b1580156102e657600080fd5b505af11580156102fa573d6000803e3d6000fd5b505050506040513d601f19601f8201168201806040525081019061031e9190611100565b506002546101608701516040516348ebe6f360e11b81526001600160a01b03909216916391d7cde6916103589185919033906004016115e7565b602060405180830381600087803b15801561037257600080fd5b505af1158015610386573d6000803e3d6000fd5b505050506040513d601f19601f820116820180604052508101906103aa9190611100565b5060019695505050505050565b6000546001600160a01b031633146104165760405162461bcd60e51b815260206004820181905260248201527f4f776e61626c653a2063616c6c6572206973206e6f7420746865206f776e657260448201526064015b60405180910390fd5b6104206000610edd565b565b60015460405163ab7b1c8960e01b8152600481018390526000916001600160a01b03169063ab7b1c8990602401600060405180830381600087803b15801561046957600080fd5b505af115801561047d573d6000803e3d6000fd5b5050600154604051632820036560e11b815260048101869052600093506001600160a01b03909116915063504006ca9060240160806040518083038186803b1580156104c857600080fd5b505afa1580156104dc573d6000803e3d6000fd5b505050506040513d601f19601f820116820180604052508101906105009190611197565b600154604051630ba6bf7960e41b8152600481018690529192506001600160a01b03169063ba6bf7909060240160206040518083038186803b15801561054557600080fd5b505afa158015610559573d6000803e3d6000fd5b505050506040513d601f19601f8201168201806040525081019061057d9190611462565b604080830191909152600254905163353dac7560e21b81526001600160a01b039091169063d4f6b1d4906105b790849033906004016115c1565b602060405180830381600087803b1580156105d157600080fd5b505af11580156105e5573d6000803e3d6000fd5b505050506040513d601f19601f820116820180604052508101906106099190611100565b506002546001546040516302a62a4960e41b8152600481018690526001600160a01b0392831692637c95e34a921690632a62a4909060240160806040518083038186803b15801561065957600080fd5b505afa15801561066d573d6000803e3d6000fd5b505050506040513d601f19601f820116820180604052508101906106919190611197565b600154604051638500d91960e01b8152600481018890526001600160a01b0390911690638500d9199060240160206040518083038186803b1580156106d557600080fd5b505afa1580156106e9573d6000803e3d6000fd5b505050506040513d601f19601f8201168201806040525081019061070d91906110e4565b6040518363ffffffff1660e01b815260040161072a9291906115c1565b602060405180830381600087803b15801561074457600080fd5b505af1158015610758573d6000803e3d6000fd5b505050506040513d601f19601f8201168201806040525081019061077c9190611100565b5060019392505050565b600154604051637cebab3360e11b81526000916001600160a01b03169063f9d75666906107bb9086908690339060040161176c565b600060405180830381600087803b1580156107d557600080fd5b505af11580156107e9573d6000803e3d6000fd5b505050506000604051806080016040528085600001516001600160a01b031681526020018560200151600281111561083157634e487b7160e01b600052602160045260246000fd5b815260200185604001518152602001856060015181525090506000604051806080016040528086608001516001600160a01b031681526020016000600281111561088b57634e487b7160e01b600052602160045260246000fd5b815260a087015160208201526000604091820152600254905163353dac7560e21b81529192506001600160a01b03169063d4f6b1d4906108d190859033906004016115c1565b602060405180830381600087803b1580156108eb57600080fd5b505af11580156108ff573d6000803e3d6000fd5b505050506040513d601f19601f820116820180604052508101906109239190611100565b506002546101208601516040516348ebe6f360e11b81526001600160a01b03909216916391d7cde69161095d9185919033906004016115e7565b602060405180830381600087803b15801561097757600080fd5b505af115801561098b573d6000803e3d6000fd5b505050506040513d601f19601f820116820180604052508101906109af9190611100565b50600195945050505050565b60015460405163ee502d7d60e01b81526000916001600160a01b03169063ee502d7d906109f2908790879087903390600401611578565b600060405180830381600087803b158015610a0c57600080fd5b505af1158015610a20573d6000803e3d6000fd5b506001979650505050505050565b600154604051632e31150760e11b81526004810183905260009182916001600160a01b0390911690635c622a0e9060240160206040518083038186803b158015610a7757600080fd5b505afa158015610a8b573d6000803e3d6000fd5b505050506040513d601f19601f82011682018060405250810190610aaf919061147a565b600154604051636eeaf0d960e11b8152600481018690523360248201529192506001600160a01b03169063ddd5e1b290604401600060405180830381600087803b158015610afc57600080fd5b505af1158015610b10573d6000803e3d6000fd5b505050508060ff1660031415610cad57600154604051632820036560e11b8152600481018590526000916001600160a01b03169063504006ca9060240160806040518083038186803b158015610b6557600080fd5b505afa158015610b79573d6000803e3d6000fd5b505050506040513d601f19601f82011682018060405250810190610b9d9190611197565b600154604051630ba6bf7960e41b8152600481018790529192506001600160a01b03169063ba6bf7909060240160206040518083038186803b158015610be257600080fd5b505afa158015610bf6573d6000803e3d6000fd5b505050506040513d601f19601f82011682018060405250810190610c1a9190611462565b6040808301919091526002549051633e4af1a560e11b81526001600160a01b0390911690637c95e34a90610c5490849033906004016115c1565b602060405180830381600087803b158015610c6e57600080fd5b505af1158015610c82573d6000803e3d6000fd5b505050506040513d601f19601f82011682018060405250810190610ca69190611100565b5050610db2565b8060ff1660041415610db2576002546001546040516302a62a4960e41b8152600481018690526001600160a01b0392831692637c95e34a921690632a62a4909060240160806040518083038186803b158015610d0857600080fd5b505afa158015610d1c573d6000803e3d6000fd5b505050506040513d601f19601f82011682018060405250810190610d409190611197565b336040518363ffffffff1660e01b8152600401610d5e9291906115c1565b602060405180830381600087803b158015610d7857600080fd5b505af1158015610d8c573d6000803e3d6000fd5b505050506040513d601f19601f82011682018060405250810190610db09190611100565b505b600154604051633f34d4cf60e21b8152600481018590523360248201526001600160a01b039091169063fcd3533c90604401600060405180830381600087803b158015610dfe57600080fd5b505af11580156103aa573d6000803e3d6000fd5b6000546001600160a01b03163314610e6c5760405162461bcd60e51b815260206004820181905260248201527f4f776e61626c653a2063616c6c6572206973206e6f7420746865206f776e6572604482015260640161040d565b6001600160a01b038116610ed15760405162461bcd60e51b815260206004820152602660248201527f4f776e61626c653a206e6577206f776e657220697320746865207a65726f206160448201526564647265737360d01b606482015260840161040d565b610eda81610edd565b50565b600080546001600160a01b038381166001600160a01b0319831681178455604051919092169283917f8be0079c531659141344cd1fd0a4f28419497f9722a3daafe3b4186f6b6457e09190a35050565b8035610f38816118e7565b919050565b600082601f830112610f4d578081fd5b8135602067ffffffffffffffff821115610f6957610f696118d1565b8160051b610f788282016118a0565b838152828101908684018388018501891015610f92578687fd5b8693505b85841015610fb4578035835260019390930192918401918401610f96565b50979650505050505050565b600082601f830112610fd0578081fd5b813567ffffffffffffffff811115610fea57610fea6118d1565b610ffd601f8201601f19166020016118a0565b818152846020838601011115611011578283fd5b816020850160208301379081016020019190915292915050565b8035610f38816118fc565b600060608284031215611047578081fd5b6040516060810181811067ffffffffffffffff8211171561106a5761106a6118d1565b8060405250809150823581526020830135602082015261108c60408401611098565b60408201525092915050565b803563ffffffff81168114610f3857600080fd5b803564ffffffffff81168114610f3857600080fd5b6000602082840312156110d2578081fd5b81356110dd816118e7565b9392505050565b6000602082840312156110f5578081fd5b81516110dd816118e7565b600060208284031215611111578081fd5b815180151581146110dd578182fd5b600080600060408486031215611134578182fd5b83359250602084013567ffffffffffffffff80821115611152578384fd5b818601915086601f830112611165578384fd5b813581811115611173578485fd5b876020828501011115611184578485fd5b6020830194508093505050509250925092565b6000608082840312156111a8578081fd5b6040516080810181811067ffffffffffffffff821117156111cb576111cb6118d1565b60405282516111d9816118e7565b815260208301516111e9816118fc565b6020820152604083810151908201526060928301519281019290925250919050565b600080600060a0848603121561121f578081fd5b833567ffffffffffffffff80821115611236578283fd5b908501906101a0828803121561124a578283fd5b611252611852565b61125b83610f2d565b81526112696020840161102b565b602082015260408301356040820152606083013582811115611289578485fd5b61129589828601610f3d565b6060830152506112a760808401610f2d565b608082015260a083013560a082015260c083013560c082015260e083013560e08201526101006112d8818501611098565b908201526101206112ea848201611098565b908201526101406112fc8482016110ac565b9082015261016061130e848201610f2d565b908201526101808381013590820152945061132c8760208801611036565b93506080860135915080821115611341578283fd5b5061134e86828701610fc0565b9150509250925092565b60008082840361018081121561136c578283fd5b6101608082121561137b578384fd5b61138361187c565b915061138e85610f2d565b825261139c6020860161102b565b602083015260408501356040830152606085013560608301526113c160808601610f2d565b608083015260a085013560a083015260c085013560c08301526113e660e08601611098565b60e08301526101006113f98187016110ac565b9083015261012061140b868201610f2d565b90830152610140858101359083015290925083013567ffffffffffffffff811115611434578182fd5b61144085828601610fc0565b9150509250929050565b60006020828403121561145b578081fd5b5035919050565b600060208284031215611473578081fd5b5051919050565b60006020828403121561148b578081fd5b815160ff811681146110dd578182fd5b6000815180845260208085019450808401835b838110156114ca578151875295820195908201906001016114ae565b509495945050505050565b60008151808452815b818110156114fa576020818501810151868301820152016114de565b8181111561150b5782602083870101525b50601f01601f19169290920160200192915050565b6003811061153e57634e487b7160e01b600052602160045260246000fd5b9052565b80516001600160a01b031682526020808201519061156290840182611520565b5060408181015190830152606090810151910152565b848152606060208201528260608201528284608083013760008184016080908101919091526001600160a01b03929092166040820152601f909201601f19169091010192915050565b60a081016115cf8285611542565b6001600160a01b039290921660809190910152919050565b60c081016115f58286611542565b6001600160a01b0393841660808301529190921660a090920191909152919050565b60c0815261163160c0820186516001600160a01b03169052565b6000602086015161164560e0840182611520565b5060408601516101008181850152606088015191506101a0610120818187015261167361026087018561149b565b935060808a0151610140611691818901836001600160a01b03169052565b60a08c0151915061016082818a015260c08d0151925061018083818b015260e08e0151868b0152868e015196506116d16101c08b018863ffffffff169052565b938d015163ffffffff9081166101e08b0152918d015164ffffffffff166102008a01528c01516001600160a01b0316610220890152918b0151610240880152508851602080880191909152890151604080880191909152890151166060860152506117399050565b828103608084015261174b81866114d5565b91505061176360a08301846001600160a01b03169052565b95945050505050565b83516001600160a01b0316815260006101a060208601516117906020850182611520565b50604086015160408401526060860151606084015260808601516117bf60808501826001600160a01b03169052565b5060a086015160a084015260c086015160c084015260e08601516117eb60e085018263ffffffff169052565b506101008681015164ffffffffff1690840152610120808701516001600160a01b03169084015261014080870151908401526101608301819052611831818401866114d5565b91505061184a6101808301846001600160a01b03169052565b949350505050565b6040516101a0810167ffffffffffffffff81118282101715611876576118766118d1565b60405290565b604051610160810167ffffffffffffffff81118282101715611876576118766118d1565b604051601f8201601f1916810167ffffffffffffffff811182821017156118c9576118c96118d1565b604052919050565b634e487b7160e01b600052604160045260246000fd5b6001600160a01b0381168114610eda57600080fd5b60038110610eda57600080fdfea26469706673582212206a7211bc807a6b097815f47b133a2b2e69430c6027a7f6d45ec1b8d72b408a2564736f6c63430008040033",
  "linkReferences": {},
  "deployedLinkReferences": {}
}