{
  "_format": "hh-sol-artifact-1",
  "contractName": "PWN",
  "sourceName": "contracts/PWN.sol",
  "abi": [
    {
      "inputs": [
        {
          "internalType": "address",
          "name": "_PWNL",
          "type": "address"
        },
        {
          "internalType": "address",
          "name": "_PWNV",
          "type": "address"
        }
      ],
      "stateMutability": "nonpayable",
      "type": "constructor"
    },
    {
      "anonymous": false,
      "inputs": [
        {
          "indexed": true,
          "internalType": "address",
          "name": "previousOwner",
          "type": "address"
        },
        {
          "indexed": true,
          "internalType": "address",
          "name": "newOwner",
          "type": "address"
        }
      ],
      "name": "OwnershipTransferred",
      "type": "event"
    },
    {
      "inputs": [],
      "name": "LOAN",
      "outputs": [
        {
          "internalType": "contract PWNLOAN",
          "name": "",
          "type": "address"
        }
      ],
      "stateMutability": "view",
      "type": "function"
    },
    {
      "inputs": [
        {
          "internalType": "uint256",
          "name": "_loanId",
          "type": "uint256"
        }
      ],
      "name": "claimLoan",
      "outputs": [
        {
          "internalType": "bool",
          "name": "",
          "type": "bool"
        }
      ],
      "stateMutability": "nonpayable",
      "type": "function"
    },
    {
      "inputs": [
        {
          "components": [
            {
              "internalType": "address",
              "name": "collateralAddress",
              "type": "address"
            },
            {
              "internalType": "enum MultiToken.Category",
              "name": "collateralCategory",
              "type": "uint8"
            },
            {
              "internalType": "uint256",
              "name": "collateralAmount",
              "type": "uint256"
            },
            {
              "internalType": "bytes32",
              "name": "collateralIdsWhitelistMerkleRoot",
              "type": "bytes32"
            },
            {
              "internalType": "address",
              "name": "loanAssetAddress",
              "type": "address"
            },
            {
              "internalType": "uint256",
              "name": "loanAmountMax",
              "type": "uint256"
            },
            {
              "internalType": "uint256",
              "name": "loanAmountMin",
              "type": "uint256"
            },
            {
              "internalType": "uint256",
              "name": "loanYieldMax",
              "type": "uint256"
            },
            {
              "internalType": "uint32",
              "name": "durationMax",
              "type": "uint32"
            },
            {
              "internalType": "uint32",
              "name": "durationMin",
              "type": "uint32"
            },
            {
              "internalType": "uint40",
              "name": "expiration",
              "type": "uint40"
            },
            {
              "internalType": "address",
              "name": "borrower",
              "type": "address"
            },
            {
              "internalType": "address",
              "name": "lender",
              "type": "address"
            },
            {
              "internalType": "bool",
              "name": "isPersistent",
              "type": "bool"
            },
            {
              "internalType": "bytes32",
              "name": "nonce",
              "type": "bytes32"
            }
          ],
          "internalType": "struct PWNLOAN.FlexibleOffer",
          "name": "_offer",
          "type": "tuple"
        },
        {
          "components": [
            {
              "internalType": "uint256",
              "name": "collateralId",
              "type": "uint256"
            },
            {
              "internalType": "uint256",
              "name": "loanAmount",
              "type": "uint256"
            },
            {
              "internalType": "uint32",
              "name": "duration",
              "type": "uint32"
            },
            {
              "internalType": "bytes32[]",
              "name": "merkleInclusionProof",
              "type": "bytes32[]"
            }
          ],
          "internalType": "struct PWNLOAN.FlexibleOfferValues",
          "name": "_offerValues",
          "type": "tuple"
        },
        {
          "internalType": "bytes",
          "name": "_signature",
          "type": "bytes"
        },
        {
          "internalType": "bytes",
          "name": "_loanAssetPermit",
          "type": "bytes"
        },
        {
          "internalType": "bytes",
          "name": "_collateralPermit",
          "type": "bytes"
        }
      ],
      "name": "createFlexibleLoan",
      "outputs": [
        {
          "internalType": "bool",
          "name": "",
          "type": "bool"
        }
      ],
      "stateMutability": "nonpayable",
      "type": "function"
    },
    {
      "inputs": [
        {
          "components": [
            {
              "internalType": "address",
              "name": "collateralAddress",
              "type": "address"
            },
            {
              "internalType": "enum MultiToken.Category",
              "name": "collateralCategory",
              "type": "uint8"
            },
            {
              "internalType": "uint256",
              "name": "collateralAmount",
              "type": "uint256"
            },
            {
              "internalType": "uint256",
              "name": "collateralId",
              "type": "uint256"
            },
            {
              "internalType": "address",
              "name": "loanAssetAddress",
              "type": "address"
            },
            {
              "internalType": "uint256",
              "name": "loanAmount",
              "type": "uint256"
            },
            {
              "internalType": "uint256",
              "name": "loanYield",
              "type": "uint256"
            },
            {
              "internalType": "uint32",
              "name": "duration",
              "type": "uint32"
            },
            {
              "internalType": "uint40",
              "name": "expiration",
              "type": "uint40"
            },
            {
              "internalType": "address",
              "name": "borrower",
              "type": "address"
            },
            {
              "internalType": "address",
              "name": "lender",
              "type": "address"
            },
            {
              "internalType": "bool",
              "name": "isPersistent",
              "type": "bool"
            },
            {
              "internalType": "bytes32",
              "name": "nonce",
              "type": "bytes32"
            }
          ],
          "internalType": "struct PWNLOAN.Offer",
          "name": "_offer",
          "type": "tuple"
        },
        {
          "internalType": "bytes",
          "name": "_signature",
          "type": "bytes"
        },
        {
          "internalType": "bytes",
          "name": "_loanAssetPermit",
          "type": "bytes"
        },
        {
          "internalType": "bytes",
          "name": "_collateralPermit",
          "type": "bytes"
        }
      ],
      "name": "createLoan",
      "outputs": [
        {
          "internalType": "bool",
          "name": "",
          "type": "bool"
        }
      ],
      "stateMutability": "nonpayable",
      "type": "function"
    },
    {
      "inputs": [],
      "name": "owner",
      "outputs": [
        {
          "internalType": "address",
          "name": "",
          "type": "address"
        }
      ],
      "stateMutability": "view",
      "type": "function"
    },
    {
      "inputs": [],
      "name": "renounceOwnership",
      "outputs": [],
      "stateMutability": "nonpayable",
      "type": "function"
    },
    {
      "inputs": [
        {
          "internalType": "uint256",
          "name": "_loanId",
          "type": "uint256"
        },
        {
          "internalType": "bytes",
          "name": "_loanAssetPermit",
          "type": "bytes"
        }
      ],
      "name": "repayLoan",
      "outputs": [
        {
          "internalType": "bool",
          "name": "",
          "type": "bool"
        }
      ],
      "stateMutability": "nonpayable",
      "type": "function"
    },
    {
      "inputs": [
        {
          "internalType": "bytes32",
          "name": "_offerHash",
          "type": "bytes32"
        },
        {
          "internalType": "bytes",
          "name": "_signature",
          "type": "bytes"
        }
      ],
      "name": "revokeOffer",
      "outputs": [
        {
          "internalType": "bool",
          "name": "",
          "type": "bool"
        }
      ],
      "stateMutability": "nonpayable",
      "type": "function"
    },
    {
      "inputs": [
        {
          "internalType": "address",
          "name": "newOwner",
          "type": "address"
        }
      ],
      "name": "transferOwnership",
      "outputs": [],
      "stateMutability": "nonpayable",
      "type": "function"
    },
    {
      "inputs": [],
      "name": "vault",
      "outputs": [
        {
          "internalType": "contract PWNVault",
          "name": "",
          "type": "address"
        }
      ],
      "stateMutability": "view",
      "type": "function"
    }
  ],
  "bytecode": "0x60806040523480156200001157600080fd5b5060405162001c6c38038062001c6c8339810160408190526200003491620000de565b6200003f3362000071565b600180546001600160a01b039384166001600160a01b0319918216179091556002805492909316911617905562000115565b600080546001600160a01b038381166001600160a01b0319831681178455604051919092169283917f8be0079c531659141344cd1fd0a4f28419497f9722a3daafe3b4186f6b6457e09190a35050565b80516001600160a01b0381168114620000d957600080fd5b919050565b60008060408385031215620000f1578182fd5b620000fc83620000c1565b91506200010c60208401620000c1565b90509250929050565b611b4780620001256000396000f3fe608060405234801561001057600080fd5b506004361061009e5760003560e01c8063a9f79a4711610066578063a9f79a4714610120578063e9eb101714610133578063f1b4fbab14610146578063f2fde38b14610159578063fbfa77cf1461016c57600080fd5b806327c1d8a9146100a357806347dcac88146100cb57806353a469b3146100de578063715018a6146100f15780638da5cb5b146100fb575b600080fd5b6100b66100b136600461159f565b61017f565b60405190151581526020015b60405180910390f35b6100b66100d936600461140e565b6104e6565b6100b66100ec36600461156f565b610723565b6100f9610b5b565b005b6000546001600160a01b03165b6040516001600160a01b0390911681526020016100c2565b6100b661012e36600461126b565b610bc1565b6100b6610141366004611180565b610e01565b600154610108906001600160a01b031681565b6100f9610167366004611125565b610e74565b600254610108906001600160a01b031681565b60015460405163ab7b1c8960e01b8152600481018490526000916001600160a01b03169063ab7b1c8990602401600060405180830381600087803b1580156101c657600080fd5b505af11580156101da573d6000803e3d6000fd5b5050600154604051639695858f60e01b815260048101879052600093506001600160a01b039091169150639695858f9060240160806040518083038186803b15801561022557600080fd5b505afa158015610239573d6000803e3d6000fd5b505050506040513d601f19601f8201168201806040525081019061025d91906111f7565b600154604051630ba6bf7960e41b8152600481018790529192506001600160a01b03169063ba6bf7909060240160206040518083038186803b1580156102a257600080fd5b505afa1580156102b6573d6000803e3d6000fd5b505050506040513d601f19601f820116820180604052508101906102da9190611587565b60408083019190915260025490516328406a4960e11b81526001600160a01b0390911690635080d49290610316908490339088906004016117ca565b602060405180830381600087803b15801561033057600080fd5b505af1158015610344573d6000803e3d6000fd5b505050506040513d601f19601f820116820180604052508101906103689190611164565b506002546001546040516302a62a4960e41b8152600481018790526001600160a01b0392831692637c95e34a921690632a62a4909060240160806040518083038186803b1580156103b857600080fd5b505afa1580156103cc573d6000803e3d6000fd5b505050506040513d601f19601f820116820180604052508101906103f091906111f7565b600154604051638500d91960e01b8152600481018990526001600160a01b0390911690638500d9199060240160206040518083038186803b15801561043457600080fd5b505afa158015610448573d6000803e3d6000fd5b505050506040513d601f19601f8201168201806040525081019061046c9190611148565b6040518363ffffffff1660e01b8152600401610489929190611761565b602060405180830381600087803b1580156104a357600080fd5b505af11580156104b7573d6000803e3d6000fd5b505050506040513d601f19601f820116820180604052508101906104db9190611164565b506001949350505050565b600154604051631110b09560e31b81526000916001600160a01b03169063888584a89061051b9088908890339060040161192b565b600060405180830381600087803b15801561053557600080fd5b505af1158015610549573d6000803e3d6000fd5b505050506000604051806080016040528087600001516001600160a01b031681526020018760200151600281111561059157634e487b7160e01b600052602160045260246000fd5b815260200187604001518152602001876060015181525090506000604051806080016040528088608001516001600160a01b03168152602001600060028111156105eb57634e487b7160e01b600052602160045260246000fd5b815260a08901516020820152600060409182015260025490516328406a4960e11b81529192506001600160a01b031690635080d49290610633908590339089906004016117ca565b602060405180830381600087803b15801561064d57600080fd5b505af1158015610661573d6000803e3d6000fd5b505050506040513d601f19601f820116820180604052508101906106859190611164565b5060025461014088015160405163e13b47f760e01b81526001600160a01b039092169163e13b47f7916106c19185919033908b90600401611787565b602060405180830381600087803b1580156106db57600080fd5b505af11580156106ef573d6000803e3d6000fd5b505050506040513d601f19601f820116820180604052508101906107139190611164565b506001925050505b949350505050565b600154604051632e31150760e11b81526004810183905260009182916001600160a01b0390911690635c622a0e9060240160206040518083038186803b15801561076c57600080fd5b505afa158015610780573d6000803e3d6000fd5b505050506040513d601f19601f820116820180604052508101906107a491906115e4565b600154604051636eeaf0d960e11b8152600481018690523360248201529192506001600160a01b03169063ddd5e1b290604401600060405180830381600087803b1580156107f157600080fd5b505af1158015610805573d6000803e3d6000fd5b505050508060ff16600314156109a257600154604051639695858f60e01b8152600481018590526000916001600160a01b031690639695858f9060240160806040518083038186803b15801561085a57600080fd5b505afa15801561086e573d6000803e3d6000fd5b505050506040513d601f19601f8201168201806040525081019061089291906111f7565b600154604051630ba6bf7960e41b8152600481018790529192506001600160a01b03169063ba6bf7909060240160206040518083038186803b1580156108d757600080fd5b505afa1580156108eb573d6000803e3d6000fd5b505050506040513d601f19601f8201168201806040525081019061090f9190611587565b6040808301919091526002549051633e4af1a560e11b81526001600160a01b0390911690637c95e34a906109499084903390600401611761565b602060405180830381600087803b15801561096357600080fd5b505af1158015610977573d6000803e3d6000fd5b505050506040513d601f19601f8201168201806040525081019061099b9190611164565b5050610aee565b8060ff1660041415610aab576002546001546040516302a62a4960e41b8152600481018690526001600160a01b0392831692637c95e34a921690632a62a4909060240160806040518083038186803b1580156109fd57600080fd5b505afa158015610a11573d6000803e3d6000fd5b505050506040513d601f19601f82011682018060405250810190610a3591906111f7565b336040518363ffffffff1660e01b8152600401610a53929190611761565b602060405180830381600087803b158015610a6d57600080fd5b505af1158015610a81573d6000803e3d6000fd5b505050506040513d601f19601f82011682018060405250810190610aa59190611164565b50610aee565b60405162461bcd60e51b8152602060048201526013602482015272496e76616c69642073746174757320636f646560681b60448201526064015b60405180910390fd5b600154604051633f34d4cf60e21b8152600481018590523360248201526001600160a01b039091169063fcd3533c90604401600060405180830381600087803b158015610b3a57600080fd5b505af1158015610b4e573d6000803e3d6000fd5b5060019695505050505050565b6000546001600160a01b03163314610bb55760405162461bcd60e51b815260206004820181905260248201527f4f776e61626c653a2063616c6c6572206973206e6f7420746865206f776e65726044820152606401610ae5565b610bbf6000610f3f565b565b600154604051631460f7db60e31b81526000916001600160a01b03169063a307bed890610bf89089908990899033906004016117fb565b600060405180830381600087803b158015610c1257600080fd5b505af1158015610c26573d6000803e3d6000fd5b505050506000604051806080016040528088600001516001600160a01b0316815260200188602001516002811115610c6e57634e487b7160e01b600052602160045260246000fd5b815260200188604001518152602001876000015181525090506000604051806080016040528089608001516001600160a01b0316815260200160006002811115610cc857634e487b7160e01b600052602160045260246000fd5b815260208981015190820152600060409182015260025490516328406a4960e11b81529192506001600160a01b031690635080d49290610d10908590339089906004016117ca565b602060405180830381600087803b158015610d2a57600080fd5b505af1158015610d3e573d6000803e3d6000fd5b505050506040513d601f19601f82011682018060405250810190610d629190611164565b5060025461018089015160405163e13b47f760e01b81526001600160a01b039092169163e13b47f791610d9e9185919033908b90600401611787565b602060405180830381600087803b158015610db857600080fd5b505af1158015610dcc573d6000803e3d6000fd5b505050506040513d601f19601f82011682018060405250810190610df09190611164565b506001925050505b95945050505050565b60015460405163ee502d7d60e01b81526000916001600160a01b03169063ee502d7d90610e38908790879087903390600401611718565b600060405180830381600087803b158015610e5257600080fd5b505af1158015610e66573d6000803e3d6000fd5b506001979650505050505050565b6000546001600160a01b03163314610ece5760405162461bcd60e51b815260206004820181905260248201527f4f776e61626c653a2063616c6c6572206973206e6f7420746865206f776e65726044820152606401610ae5565b6001600160a01b038116610f335760405162461bcd60e51b815260206004820152602660248201527f4f776e61626c653a206e6577206f776e657220697320746865207a65726f206160448201526564647265737360d01b6064820152608401610ae5565b610f3c81610f3f565b50565b600080546001600160a01b038381166001600160a01b0319831681178455604051919092169283917f8be0079c531659141344cd1fd0a4f28419497f9722a3daafe3b4186f6b6457e09190a35050565b8035610f9a81611ae1565b919050565b8035610f9a81611af6565b600082601f830112610fba578081fd5b813567ffffffffffffffff811115610fd457610fd4611acb565b610fe7601f8201601f1916602001611a9a565b818152846020838601011115610ffb578283fd5b816020850160208301379081016020019190915292915050565b8035610f9a81611b04565b600060808284031215611031578081fd5b611039611a29565b90508135815260208083013581830152611055604084016110fc565b6040830152606083013567ffffffffffffffff8082111561107557600080fd5b818501915085601f83011261108957600080fd5b81358181111561109b5761109b611acb565b8060051b91506110ac848301611a9a565b8181528481019084860184860187018a10156110c757600080fd5b600095505b838610156110ea5780358352600195909501949186019186016110cc565b50606087015250939695505050505050565b803563ffffffff81168114610f9a57600080fd5b803564ffffffffff81168114610f9a57600080fd5b600060208284031215611136578081fd5b813561114181611ae1565b9392505050565b600060208284031215611159578081fd5b815161114181611ae1565b600060208284031215611175578081fd5b815161114181611af6565b600080600060408486031215611194578182fd5b83359250602084013567ffffffffffffffff808211156111b2578384fd5b818601915086601f8301126111c5578384fd5b8135818111156111d3578485fd5b8760208285010111156111e4578485fd5b6020830194508093505050509250925092565b600060808284031215611208578081fd5b6040516080810181811067ffffffffffffffff8211171561122b5761122b611acb565b604052825161123981611ae1565b8152602083015161124981611b04565b6020820152604083810151908201526060928301519281019290925250919050565b6000806000806000858703610260811215611284578384fd5b6101e080821215611293578485fd5b61129b611a52565b91506112a688610f8f565b82526112b460208901611015565b602083015260408801356040830152606088013560608301526112d960808901610f8f565b608083015260a088013560a083015260c088013560c083015260e088013560e083015261010061130a818a016110fc565b9083015261012061131c8982016110fc565b9083015261014061132e898201611110565b90830152610160611340898201610f8f565b90830152610180611352898201610f8f565b908301526101a0611364898201610f9f565b908301526101c0888101359083015290955086013567ffffffffffffffff8082111561138e578485fd5b61139a89838a01611020565b95506102008801359150808211156113b0578485fd5b6113bc89838a01610faa565b94506102208801359150808211156113d2578283fd5b6113de89838a01610faa565b93506102408801359150808211156113f4578283fd5b5061140188828901610faa565b9150509295509295909350565b600080600080848603610200811215611425578283fd5b6101a080821215611434578384fd5b61143c611a76565b915061144787610f8f565b825261145560208801611015565b6020830152604087013560408301526060870135606083015261147a60808801610f8f565b608083015260a087013560a083015260c087013560c083015261149f60e088016110fc565b60e08301526101006114b2818901611110565b908301526101206114c4888201610f8f565b908301526101406114d6888201610f8f565b908301526101606114e8888201610f9f565b90830152610180878101359083015290945085013567ffffffffffffffff80821115611512578384fd5b61151e88838901610faa565b94506101c0870135915080821115611534578384fd5b61154088838901610faa565b93506101e0870135915080821115611556578283fd5b5061156387828801610faa565b91505092959194509250565b600060208284031215611580578081fd5b5035919050565b600060208284031215611598578081fd5b5051919050565b600080604083850312156115b1578182fd5b82359150602083013567ffffffffffffffff8111156115ce578182fd5b6115da85828601610faa565b9150509250929050565b6000602082840312156115f5578081fd5b815160ff81168114611141578182fd5b60008151808452815b8181101561162a5760208185018101518683018201520161160e565b8181111561163b5782602083870101525b50601f01601f19169290920160200192915050565b6003811061166e57634e487b7160e01b600052602160045260246000fd5b9052565b80516001600160a01b031682526020808201519061169290840182611650565b5060408181015190830152606090810151910152565b600060808301825184526020808401518186015263ffffffff604085015116604086015260608401516080606087015282815180855260a08801915083830194508592505b8083101561170d57845182529383019360019290920191908301906116ed565b509695505050505050565b848152606060208201528260608201528284608083013760008184016080908101919091526001600160a01b03929092166040820152601f909201601f19169091010192915050565b60a0810161176f8285611672565b6001600160a01b039290921660809190910152919050565b6117918186611672565b6001600160a01b038481166080830152831660a082015260e060c082018190526000906117c090830184611605565b9695505050505050565b6117d48185611672565b6001600160a01b038316608082015260c060a08201819052600090610df890830184611605565b84516001600160a01b031681526000610240602087015161181f6020850182611650565b506040870151604084015260608701516060840152608087015161184e60808501826001600160a01b03169052565b5060a087015160a084015260c087015160c084015260e087015160e0840152610100808801516118858286018263ffffffff169052565b50506101208781015163ffffffff16908401526101408088015164ffffffffff1690840152610160808801516001600160a01b039081169185019190915261018080890151909116908401526101a0808801511515908401526101c080880151908401526101e083018190526118fd818401876116a8565b90508281036102008401526119128186611605565b915050610df86102208301846001600160a01b03169052565b83516001600160a01b0316815260006101e0602086015161194f6020850182611650565b506040860151604084015260608601516060840152608086015161197e60808501826001600160a01b03169052565b5060a086015160a084015260c086015160c084015260e08601516119aa60e085018263ffffffff169052565b506101008681015164ffffffffff1690840152610120808701516001600160a01b039081169185019190915261014080880151909116908401526101608087015115159084015261018080870151908401526101a08301819052611a1081840186611605565b91505061071b6101c08301846001600160a01b03169052565b6040516080810167ffffffffffffffff81118282101715611a4c57611a4c611acb565b60405290565b6040516101e0810167ffffffffffffffff81118282101715611a4c57611a4c611acb565b6040516101a0810167ffffffffffffffff81118282101715611a4c57611a4c611acb565b604051601f8201601f1916810167ffffffffffffffff81118282101715611ac357611ac3611acb565b604052919050565b634e487b7160e01b600052604160045260246000fd5b6001600160a01b0381168114610f3c57600080fd5b8015158114610f3c57600080fd5b60038110610f3c57600080fdfea264697066735822122078ec2fb2a40b5398e7ec973219bc938c581f359a49ade5075363f75ea221411564736f6c63430008040033",
  "linkReferences": {},
  "deployedLinkReferences": {}
}