{
  "_format": "hh-sol-artifact-1",
  "contractName": "PWN",
  "sourceName": "contracts/PWN.sol",
  "abi": [
    {
      "inputs": [
        {
          "internalType": "address",
          "name": "_PWNL",
          "type": "address"
        },
        {
          "internalType": "address",
          "name": "_PWNV",
          "type": "address"
        }
      ],
      "stateMutability": "nonpayable",
      "type": "constructor"
    },
    {
      "anonymous": false,
      "inputs": [
        {
          "indexed": true,
          "internalType": "address",
          "name": "previousOwner",
          "type": "address"
        },
        {
          "indexed": true,
          "internalType": "address",
          "name": "newOwner",
          "type": "address"
        }
      ],
      "name": "OwnershipTransferred",
      "type": "event"
    },
    {
      "inputs": [],
      "name": "LOAN",
      "outputs": [
        {
          "internalType": "contract PWNLOAN",
          "name": "",
          "type": "address"
        }
      ],
      "stateMutability": "view",
      "type": "function"
    },
    {
      "inputs": [
        {
          "internalType": "uint256",
          "name": "_loanId",
          "type": "uint256"
        }
      ],
      "name": "claimLoan",
      "outputs": [
        {
          "internalType": "bool",
          "name": "",
          "type": "bool"
        }
      ],
      "stateMutability": "nonpayable",
      "type": "function"
    },
    {
      "inputs": [
        {
          "components": [
            {
              "internalType": "address",
              "name": "collateralAddress",
              "type": "address"
            },
            {
              "internalType": "enum MultiToken.Category",
              "name": "collateralCategory",
              "type": "uint8"
            },
            {
              "internalType": "uint256",
              "name": "collateralAmount",
              "type": "uint256"
            },
            {
              "internalType": "bytes32",
              "name": "collateralIdsWhitelistMerkleRoot",
              "type": "bytes32"
            },
            {
              "internalType": "address",
              "name": "loanAssetAddress",
              "type": "address"
            },
            {
              "internalType": "uint256",
              "name": "loanAmountMax",
              "type": "uint256"
            },
            {
              "internalType": "uint256",
              "name": "loanAmountMin",
              "type": "uint256"
            },
            {
              "internalType": "uint256",
              "name": "loanYieldMax",
              "type": "uint256"
            },
            {
              "internalType": "uint32",
              "name": "durationMax",
              "type": "uint32"
            },
            {
              "internalType": "uint32",
              "name": "durationMin",
              "type": "uint32"
            },
            {
              "internalType": "uint40",
              "name": "expiration",
              "type": "uint40"
            },
            {
              "internalType": "address",
              "name": "borrower",
              "type": "address"
            },
            {
              "internalType": "address",
              "name": "lender",
              "type": "address"
            },
            {
              "internalType": "bool",
              "name": "isPersistent",
              "type": "bool"
            },
            {
              "internalType": "bytes32",
              "name": "nonce",
              "type": "bytes32"
            }
          ],
          "internalType": "struct PWNLOAN.FlexibleOffer",
          "name": "_offer",
          "type": "tuple"
        },
        {
          "components": [
            {
              "internalType": "uint256",
              "name": "collateralId",
              "type": "uint256"
            },
            {
              "internalType": "uint256",
              "name": "loanAmount",
              "type": "uint256"
            },
            {
              "internalType": "uint32",
              "name": "duration",
              "type": "uint32"
            },
            {
              "internalType": "bytes32[]",
              "name": "merkleInclusionProof",
              "type": "bytes32[]"
            }
          ],
          "internalType": "struct PWNLOAN.FlexibleOfferValues",
          "name": "_offerValues",
          "type": "tuple"
        },
        {
          "internalType": "bytes",
          "name": "_signature",
          "type": "bytes"
        }
      ],
      "name": "createFlexibleLoan",
      "outputs": [
        {
          "internalType": "bool",
          "name": "",
          "type": "bool"
        }
      ],
      "stateMutability": "nonpayable",
      "type": "function"
    },
    {
      "inputs": [
        {
          "components": [
            {
              "internalType": "address",
              "name": "collateralAddress",
              "type": "address"
            },
            {
              "internalType": "enum MultiToken.Category",
              "name": "collateralCategory",
              "type": "uint8"
            },
            {
              "internalType": "uint256",
              "name": "collateralAmount",
              "type": "uint256"
            },
            {
              "internalType": "uint256",
              "name": "collateralId",
              "type": "uint256"
            },
            {
              "internalType": "address",
              "name": "loanAssetAddress",
              "type": "address"
            },
            {
              "internalType": "uint256",
              "name": "loanAmount",
              "type": "uint256"
            },
            {
              "internalType": "uint256",
              "name": "loanYield",
              "type": "uint256"
            },
            {
              "internalType": "uint32",
              "name": "duration",
              "type": "uint32"
            },
            {
              "internalType": "uint40",
              "name": "expiration",
              "type": "uint40"
            },
            {
              "internalType": "address",
              "name": "borrower",
              "type": "address"
            },
            {
              "internalType": "address",
              "name": "lender",
              "type": "address"
            },
            {
              "internalType": "bool",
              "name": "isPersistent",
              "type": "bool"
            },
            {
              "internalType": "bytes32",
              "name": "nonce",
              "type": "bytes32"
            }
          ],
          "internalType": "struct PWNLOAN.Offer",
          "name": "_offer",
          "type": "tuple"
        },
        {
          "internalType": "bytes",
          "name": "_signature",
          "type": "bytes"
        }
      ],
      "name": "createLoan",
      "outputs": [
        {
          "internalType": "bool",
          "name": "",
          "type": "bool"
        }
      ],
      "stateMutability": "nonpayable",
      "type": "function"
    },
    {
      "inputs": [],
      "name": "owner",
      "outputs": [
        {
          "internalType": "address",
          "name": "",
          "type": "address"
        }
      ],
      "stateMutability": "view",
      "type": "function"
    },
    {
      "inputs": [],
      "name": "renounceOwnership",
      "outputs": [],
      "stateMutability": "nonpayable",
      "type": "function"
    },
    {
      "inputs": [
        {
          "internalType": "uint256",
          "name": "_loanId",
          "type": "uint256"
        }
      ],
      "name": "repayLoan",
      "outputs": [
        {
          "internalType": "bool",
          "name": "",
          "type": "bool"
        }
      ],
      "stateMutability": "nonpayable",
      "type": "function"
    },
    {
      "inputs": [
        {
          "internalType": "bytes32",
          "name": "_offerHash",
          "type": "bytes32"
        },
        {
          "internalType": "bytes",
          "name": "_signature",
          "type": "bytes"
        }
      ],
      "name": "revokeOffer",
      "outputs": [
        {
          "internalType": "bool",
          "name": "",
          "type": "bool"
        }
      ],
      "stateMutability": "nonpayable",
      "type": "function"
    },
    {
      "inputs": [
        {
          "internalType": "address",
          "name": "newOwner",
          "type": "address"
        }
      ],
      "name": "transferOwnership",
      "outputs": [],
      "stateMutability": "nonpayable",
      "type": "function"
    },
    {
      "inputs": [],
      "name": "vault",
      "outputs": [
        {
          "internalType": "contract PWNVault",
          "name": "",
          "type": "address"
        }
      ],
      "stateMutability": "view",
      "type": "function"
    }
  ],
  "bytecode": "0x60806040523480156200001157600080fd5b5060405162001b3f38038062001b3f8339810160408190526200003491620000de565b6200003f3362000071565b600180546001600160a01b039384166001600160a01b0319918216179091556002805492909316911617905562000115565b600080546001600160a01b038381166001600160a01b0319831681178455604051919092169283917f8be0079c531659141344cd1fd0a4f28419497f9722a3daafe3b4186f6b6457e09190a35050565b80516001600160a01b0381168114620000d957600080fd5b919050565b60008060408385031215620000f1578182fd5b620000fc83620000c1565b91506200010c60208401620000c1565b90509250929050565b611a1a80620001256000396000f3fe608060405234801561001057600080fd5b506004361061009e5760003560e01c8063ab7b1c8911610066578063ab7b1c8914610120578063e9eb101714610133578063f1b4fbab14610146578063f2fde38b14610159578063fbfa77cf1461016c57600080fd5b8063097316af146100a357806353a469b3146100cb578063715018a6146100de5780638b639401146100e85780638da5cb5b146100fb575b600080fd5b6100b66100b13660046113a4565b61017f565b60405190151581526020015b60405180910390f35b6100b66100d93660046114ba565b6103b4565b6100e66107ec565b005b6100b66100f636600461124b565b610852565b6000546001600160a01b03165b6040516001600160a01b0390911681526020016100c2565b6100b661012e3660046114ba565b610a7d565b6100b6610141366004611160565b610de1565b600154610108906001600160a01b031681565b6100e6610167366004611105565b610e54565b600254610108906001600160a01b031681565b600154604051631110b09560e31b81526000916001600160a01b03169063888584a8906101b4908690869033906004016117f6565b600060405180830381600087803b1580156101ce57600080fd5b505af11580156101e2573d6000803e3d6000fd5b505050506000604051806080016040528085600001516001600160a01b031681526020018560200151600281111561022a57634e487b7160e01b600052602160045260246000fd5b815260200185604001518152602001856060015181525090506000604051806080016040528086608001516001600160a01b031681526020016000600281111561028457634e487b7160e01b600052602160045260246000fd5b815260a087015160208201526000604091820152600254905163353dac7560e21b81529192506001600160a01b03169063d4f6b1d4906102ca9085903390600401611667565b602060405180830381600087803b1580156102e457600080fd5b505af11580156102f8573d6000803e3d6000fd5b505050506040513d601f19601f8201168201806040525081019061031c9190611144565b506002546101408601516040516348ebe6f360e11b81526001600160a01b03909216916391d7cde69161035691859190339060040161168d565b602060405180830381600087803b15801561037057600080fd5b505af1158015610384573d6000803e3d6000fd5b505050506040513d601f19601f820116820180604052508101906103a89190611144565b50600195945050505050565b600154604051632e31150760e11b81526004810183905260009182916001600160a01b0390911690635c622a0e9060240160206040518083038186803b1580156103fd57600080fd5b505afa158015610411573d6000803e3d6000fd5b505050506040513d601f19601f8201168201806040525081019061043591906114ea565b600154604051636eeaf0d960e11b8152600481018690523360248201529192506001600160a01b03169063ddd5e1b290604401600060405180830381600087803b15801561048257600080fd5b505af1158015610496573d6000803e3d6000fd5b505050508060ff166003141561063357600154604051639695858f60e01b8152600481018590526000916001600160a01b031690639695858f9060240160806040518083038186803b1580156104eb57600080fd5b505afa1580156104ff573d6000803e3d6000fd5b505050506040513d601f19601f8201168201806040525081019061052391906111d7565b600154604051630ba6bf7960e41b8152600481018790529192506001600160a01b03169063ba6bf7909060240160206040518083038186803b15801561056857600080fd5b505afa15801561057c573d6000803e3d6000fd5b505050506040513d601f19601f820116820180604052508101906105a091906114d2565b6040808301919091526002549051633e4af1a560e11b81526001600160a01b0390911690637c95e34a906105da9084903390600401611667565b602060405180830381600087803b1580156105f457600080fd5b505af1158015610608573d6000803e3d6000fd5b505050506040513d601f19601f8201168201806040525081019061062c9190611144565b505061077f565b8060ff166004141561073c576002546001546040516302a62a4960e41b8152600481018690526001600160a01b0392831692637c95e34a921690632a62a4909060240160806040518083038186803b15801561068e57600080fd5b505afa1580156106a2573d6000803e3d6000fd5b505050506040513d601f19601f820116820180604052508101906106c691906111d7565b336040518363ffffffff1660e01b81526004016106e4929190611667565b602060405180830381600087803b1580156106fe57600080fd5b505af1158015610712573d6000803e3d6000fd5b505050506040513d601f19601f820116820180604052508101906107369190611144565b5061077f565b60405162461bcd60e51b8152602060048201526013602482015272496e76616c69642073746174757320636f646560681b60448201526064015b60405180910390fd5b600154604051633f34d4cf60e21b8152600481018590523360248201526001600160a01b039091169063fcd3533c90604401600060405180830381600087803b1580156107cb57600080fd5b505af11580156107df573d6000803e3d6000fd5b5060019695505050505050565b6000546001600160a01b031633146108465760405162461bcd60e51b815260206004820181905260248201527f4f776e61626c653a2063616c6c6572206973206e6f7420746865206f776e65726044820152606401610776565b6108506000610f1f565b565b600154604051631460f7db60e31b81526000916001600160a01b03169063a307bed8906108899087908790879033906004016116bd565b600060405180830381600087803b1580156108a357600080fd5b505af11580156108b7573d6000803e3d6000fd5b505050506000604051806080016040528086600001516001600160a01b03168152602001866020015160028111156108ff57634e487b7160e01b600052602160045260246000fd5b815260200186604001518152602001856000015181525090506000604051806080016040528087608001516001600160a01b031681526020016000600281111561095957634e487b7160e01b600052602160045260246000fd5b8152602087810151908201526000604091820152600254905163353dac7560e21b81529192506001600160a01b03169063d4f6b1d49061099f9085903390600401611667565b602060405180830381600087803b1580156109b957600080fd5b505af11580156109cd573d6000803e3d6000fd5b505050506040513d601f19601f820116820180604052508101906109f19190611144565b506002546101808701516040516348ebe6f360e11b81526001600160a01b03909216916391d7cde691610a2b91859190339060040161168d565b602060405180830381600087803b158015610a4557600080fd5b505af1158015610a59573d6000803e3d6000fd5b505050506040513d601f19601f820116820180604052508101906107df9190611144565b60015460405163ab7b1c8960e01b8152600481018390526000916001600160a01b03169063ab7b1c8990602401600060405180830381600087803b158015610ac457600080fd5b505af1158015610ad8573d6000803e3d6000fd5b5050600154604051639695858f60e01b815260048101869052600093506001600160a01b039091169150639695858f9060240160806040518083038186803b158015610b2357600080fd5b505afa158015610b37573d6000803e3d6000fd5b505050506040513d601f19601f82011682018060405250810190610b5b91906111d7565b600154604051630ba6bf7960e41b8152600481018690529192506001600160a01b03169063ba6bf7909060240160206040518083038186803b158015610ba057600080fd5b505afa158015610bb4573d6000803e3d6000fd5b505050506040513d601f19601f82011682018060405250810190610bd891906114d2565b604080830191909152600254905163353dac7560e21b81526001600160a01b039091169063d4f6b1d490610c129084903390600401611667565b602060405180830381600087803b158015610c2c57600080fd5b505af1158015610c40573d6000803e3d6000fd5b505050506040513d601f19601f82011682018060405250810190610c649190611144565b506002546001546040516302a62a4960e41b8152600481018690526001600160a01b0392831692637c95e34a921690632a62a4909060240160806040518083038186803b158015610cb457600080fd5b505afa158015610cc8573d6000803e3d6000fd5b505050506040513d601f19601f82011682018060405250810190610cec91906111d7565b600154604051638500d91960e01b8152600481018890526001600160a01b0390911690638500d9199060240160206040518083038186803b158015610d3057600080fd5b505afa158015610d44573d6000803e3d6000fd5b505050506040513d601f19601f82011682018060405250810190610d689190611128565b6040518363ffffffff1660e01b8152600401610d85929190611667565b602060405180830381600087803b158015610d9f57600080fd5b505af1158015610db3573d6000803e3d6000fd5b505050506040513d601f19601f82011682018060405250810190610dd79190611144565b5060019392505050565b60015460405163ee502d7d60e01b81526000916001600160a01b03169063ee502d7d90610e1890879087908790339060040161161e565b600060405180830381600087803b158015610e3257600080fd5b505af1158015610e46573d6000803e3d6000fd5b506001979650505050505050565b6000546001600160a01b03163314610eae5760405162461bcd60e51b815260206004820181905260248201527f4f776e61626c653a2063616c6c6572206973206e6f7420746865206f776e65726044820152606401610776565b6001600160a01b038116610f135760405162461bcd60e51b815260206004820152602660248201527f4f776e61626c653a206e6577206f776e657220697320746865207a65726f206160448201526564647265737360d01b6064820152608401610776565b610f1c81610f1f565b50565b600080546001600160a01b038381166001600160a01b0319831681178455604051919092169283917f8be0079c531659141344cd1fd0a4f28419497f9722a3daafe3b4186f6b6457e09190a35050565b8035610f7a816119b4565b919050565b8035610f7a816119c9565b600082601f830112610f9a578081fd5b813567ffffffffffffffff811115610fb457610fb461199e565b610fc7601f8201601f191660200161196d565b818152846020838601011115610fdb578283fd5b816020850160208301379081016020019190915292915050565b8035610f7a816119d7565b600060808284031215611011578081fd5b6110196118fc565b90508135815260208083013581830152611035604084016110dc565b6040830152606083013567ffffffffffffffff8082111561105557600080fd5b818501915085601f83011261106957600080fd5b81358181111561107b5761107b61199e565b8060051b915061108c84830161196d565b8181528481019084860184860187018a10156110a757600080fd5b600095505b838610156110ca5780358352600195909501949186019186016110ac565b50606087015250939695505050505050565b803563ffffffff81168114610f7a57600080fd5b803564ffffffffff81168114610f7a57600080fd5b600060208284031215611116578081fd5b8135611121816119b4565b9392505050565b600060208284031215611139578081fd5b8151611121816119b4565b600060208284031215611155578081fd5b8151611121816119c9565b600080600060408486031215611174578182fd5b83359250602084013567ffffffffffffffff80821115611192578384fd5b818601915086601f8301126111a5578384fd5b8135818111156111b3578485fd5b8760208285010111156111c4578485fd5b6020830194508093505050509250925092565b6000608082840312156111e8578081fd5b6040516080810181811067ffffffffffffffff8211171561120b5761120b61199e565b6040528251611219816119b4565b81526020830151611229816119d7565b6020820152604083810151908201526060928301519281019290925250919050565b6000806000838503610220811215611261578182fd5b6101e080821215611270578283fd5b611278611925565b915061128386610f6f565b825261129160208701610ff5565b602083015260408601356040830152606086013560608301526112b660808701610f6f565b608083015260a086013560a083015260c086013560c083015260e086013560e08301526101006112e78188016110dc565b908301526101206112f98782016110dc565b9083015261014061130b8782016110f0565b9083015261016061131d878201610f6f565b9083015261018061132f878201610f6f565b908301526101a0611341878201610f7f565b908301526101c0868101359083015290935084013567ffffffffffffffff8082111561136b578283fd5b61137787838801611000565b935061020086013591508082111561138d578283fd5b5061139a86828701610f8a565b9150509250925092565b6000808284036101c08112156113b8578283fd5b6101a0808212156113c7578384fd5b6113cf611949565b91506113da85610f6f565b82526113e860208601610ff5565b6020830152604085013560408301526060850135606083015261140d60808601610f6f565b608083015260a085013560a083015260c085013560c083015261143260e086016110dc565b60e08301526101006114458187016110f0565b90830152610120611457868201610f6f565b90830152610140611469868201610f6f565b9083015261016061147b868201610f7f565b90830152610180858101359083015290925083013567ffffffffffffffff8111156114a4578182fd5b6114b085828601610f8a565b9150509250929050565b6000602082840312156114cb578081fd5b5035919050565b6000602082840312156114e3578081fd5b5051919050565b6000602082840312156114fb578081fd5b815160ff81168114611121578182fd5b60008151808452815b8181101561153057602081850181015186830182015201611514565b818111156115415782602083870101525b50601f01601f19169290920160200192915050565b6003811061157457634e487b7160e01b600052602160045260246000fd5b9052565b80516001600160a01b031682526020808201519061159890840182611556565b5060408181015190830152606090810151910152565b600060808301825184526020808401518186015263ffffffff604085015116604086015260608401516080606087015282815180855260a08801915083830194508592505b8083101561161357845182529383019360019290920191908301906115f3565b509695505050505050565b848152606060208201528260608201528284608083013760008184016080908101919091526001600160a01b03929092166040820152601f909201601f19169091010192915050565b60a081016116758285611578565b6001600160a01b039290921660809190910152919050565b60c0810161169b8286611578565b6001600160a01b0393841660808301529190921660a090920191909152919050565b84516001600160a01b03168152600061024060208701516116e16020850182611556565b506040870151604084015260608701516060840152608087015161171060808501826001600160a01b03169052565b5060a087015160a084015260c087015160c084015260e087015160e0840152610100808801516117478286018263ffffffff169052565b50506101208781015163ffffffff16908401526101408088015164ffffffffff1690840152610160808801516001600160a01b039081169185019190915261018080890151909116908401526101a0808801511515908401526101c080880151908401526101e083018190526117bf818401876115ae565b90508281036102008401526117d4818661150b565b9150506117ed6102208301846001600160a01b03169052565b95945050505050565b83516001600160a01b0316815260006101e0602086015161181a6020850182611556565b506040860151604084015260608601516060840152608086015161184960808501826001600160a01b03169052565b5060a086015160a084015260c086015160c084015260e086015161187560e085018263ffffffff169052565b506101008681015164ffffffffff1690840152610120808701516001600160a01b039081169185019190915261014080880151909116908401526101608087015115159084015261018080870151908401526101a083018190526118db8184018661150b565b9150506118f46101c08301846001600160a01b03169052565b949350505050565b6040516080810167ffffffffffffffff8111828210171561191f5761191f61199e565b60405290565b6040516101e0810167ffffffffffffffff8111828210171561191f5761191f61199e565b6040516101a0810167ffffffffffffffff8111828210171561191f5761191f61199e565b604051601f8201601f1916810167ffffffffffffffff811182821017156119965761199661199e565b604052919050565b634e487b7160e01b600052604160045260246000fd5b6001600160a01b0381168114610f1c57600080fd5b8015158114610f1c57600080fd5b60038110610f1c57600080fdfea264697066735822122019d4135c93ff22b58da0cb651bccb843bea4bf6f909584c3903eb44aa5a6016b64736f6c63430008040033",
  "linkReferences": {},
  "deployedLinkReferences": {}
}