{
  "_format": "hh-sol-artifact-1",
  "contractName": "PWN",
  "sourceName": "contracts/PWN.sol",
  "abi": [
    {
      "inputs": [
        {
          "internalType": "address",
          "name": "_PWNL",
          "type": "address"
        },
        {
          "internalType": "address",
          "name": "_PWNV",
          "type": "address"
        }
      ],
      "stateMutability": "nonpayable",
      "type": "constructor"
    },
    {
      "anonymous": false,
      "inputs": [
        {
          "indexed": true,
          "internalType": "address",
          "name": "previousOwner",
          "type": "address"
        },
        {
          "indexed": true,
          "internalType": "address",
          "name": "newOwner",
          "type": "address"
        }
      ],
      "name": "OwnershipTransferred",
      "type": "event"
    },
    {
      "inputs": [],
      "name": "LOAN",
      "outputs": [
        {
          "internalType": "contract PWNLOAN",
          "name": "",
          "type": "address"
        }
      ],
      "stateMutability": "view",
      "type": "function"
    },
    {
      "inputs": [
        {
          "internalType": "uint256",
          "name": "_loanId",
          "type": "uint256"
        }
      ],
      "name": "claimLoan",
      "outputs": [
        {
          "internalType": "bool",
          "name": "",
          "type": "bool"
        }
      ],
      "stateMutability": "nonpayable",
      "type": "function"
    },
    {
      "inputs": [
        {
          "components": [
            {
              "internalType": "address",
              "name": "collateralAddress",
              "type": "address"
            },
            {
              "internalType": "enum MultiToken.Category",
              "name": "collateralCategory",
              "type": "uint8"
            },
            {
              "internalType": "uint256",
              "name": "collateralAmount",
              "type": "uint256"
            },
            {
              "internalType": "bytes32",
              "name": "collateralIdsWhitelistMerkleRoot",
              "type": "bytes32"
            },
            {
              "internalType": "address",
              "name": "loanAssetAddress",
              "type": "address"
            },
            {
              "internalType": "uint256",
              "name": "loanAmountMax",
              "type": "uint256"
            },
            {
              "internalType": "uint256",
              "name": "loanAmountMin",
              "type": "uint256"
            },
            {
              "internalType": "uint256",
              "name": "loanYieldMax",
              "type": "uint256"
            },
            {
              "internalType": "uint32",
              "name": "durationMax",
              "type": "uint32"
            },
            {
              "internalType": "uint32",
              "name": "durationMin",
              "type": "uint32"
            },
            {
              "internalType": "uint40",
              "name": "expiration",
              "type": "uint40"
            },
            {
              "internalType": "address",
              "name": "lender",
              "type": "address"
            },
            {
              "internalType": "bytes32",
              "name": "nonce",
              "type": "bytes32"
            }
          ],
          "internalType": "struct PWNLOAN.FlexibleOffer",
          "name": "_offer",
          "type": "tuple"
        },
        {
          "components": [
            {
              "internalType": "uint256",
              "name": "collateralId",
              "type": "uint256"
            },
            {
              "internalType": "uint256",
              "name": "loanAmount",
              "type": "uint256"
            },
            {
              "internalType": "uint32",
              "name": "duration",
              "type": "uint32"
            },
            {
              "internalType": "bytes32[]",
              "name": "merkleInclusionProof",
              "type": "bytes32[]"
            }
          ],
          "internalType": "struct PWNLOAN.FlexibleOfferValues",
          "name": "_offerValues",
          "type": "tuple"
        },
        {
          "internalType": "bytes",
          "name": "_signature",
          "type": "bytes"
        }
      ],
      "name": "createFlexibleLoan",
      "outputs": [
        {
          "internalType": "bool",
          "name": "",
          "type": "bool"
        }
      ],
      "stateMutability": "nonpayable",
      "type": "function"
    },
    {
      "inputs": [
        {
          "components": [
            {
              "internalType": "address",
              "name": "collateralAddress",
              "type": "address"
            },
            {
              "internalType": "enum MultiToken.Category",
              "name": "collateralCategory",
              "type": "uint8"
            },
            {
              "internalType": "uint256",
              "name": "collateralAmount",
              "type": "uint256"
            },
            {
              "internalType": "uint256",
              "name": "collateralId",
              "type": "uint256"
            },
            {
              "internalType": "address",
              "name": "loanAssetAddress",
              "type": "address"
            },
            {
              "internalType": "uint256",
              "name": "loanAmount",
              "type": "uint256"
            },
            {
              "internalType": "uint256",
              "name": "loanYield",
              "type": "uint256"
            },
            {
              "internalType": "uint32",
              "name": "duration",
              "type": "uint32"
            },
            {
              "internalType": "uint40",
              "name": "expiration",
              "type": "uint40"
            },
            {
              "internalType": "address",
              "name": "lender",
              "type": "address"
            },
            {
              "internalType": "bytes32",
              "name": "nonce",
              "type": "bytes32"
            }
          ],
          "internalType": "struct PWNLOAN.Offer",
          "name": "_offer",
          "type": "tuple"
        },
        {
          "internalType": "bytes",
          "name": "_signature",
          "type": "bytes"
        }
      ],
      "name": "createLoan",
      "outputs": [
        {
          "internalType": "bool",
          "name": "",
          "type": "bool"
        }
      ],
      "stateMutability": "nonpayable",
      "type": "function"
    },
    {
      "inputs": [],
      "name": "owner",
      "outputs": [
        {
          "internalType": "address",
          "name": "",
          "type": "address"
        }
      ],
      "stateMutability": "view",
      "type": "function"
    },
    {
      "inputs": [],
      "name": "renounceOwnership",
      "outputs": [],
      "stateMutability": "nonpayable",
      "type": "function"
    },
    {
      "inputs": [
        {
          "internalType": "uint256",
          "name": "_loanId",
          "type": "uint256"
        }
      ],
      "name": "repayLoan",
      "outputs": [
        {
          "internalType": "bool",
          "name": "",
          "type": "bool"
        }
      ],
      "stateMutability": "nonpayable",
      "type": "function"
    },
    {
      "inputs": [
        {
          "internalType": "bytes32",
          "name": "_offerHash",
          "type": "bytes32"
        },
        {
          "internalType": "bytes",
          "name": "_signature",
          "type": "bytes"
        }
      ],
      "name": "revokeOffer",
      "outputs": [
        {
          "internalType": "bool",
          "name": "",
          "type": "bool"
        }
      ],
      "stateMutability": "nonpayable",
      "type": "function"
    },
    {
      "inputs": [
        {
          "internalType": "address",
          "name": "newOwner",
          "type": "address"
        }
      ],
      "name": "transferOwnership",
      "outputs": [],
      "stateMutability": "nonpayable",
      "type": "function"
    },
    {
      "inputs": [],
      "name": "vault",
      "outputs": [
        {
          "internalType": "contract PWNVault",
          "name": "",
          "type": "address"
        }
      ],
      "stateMutability": "view",
      "type": "function"
    }
  ],
  "bytecode": "0x60806040523480156200001157600080fd5b5060405162001aa238038062001aa28339810160408190526200003491620000de565b6200003f3362000071565b600180546001600160a01b039384166001600160a01b0319918216179091556002805492909316911617905562000115565b600080546001600160a01b038381166001600160a01b0319831681178455604051919092169283917f8be0079c531659141344cd1fd0a4f28419497f9722a3daafe3b4186f6b6457e09190a35050565b80516001600160a01b0381168114620000d957600080fd5b919050565b60008060408385031215620000f1578182fd5b620000fc83620000c1565b91506200010c60208401620000c1565b90509250929050565b61197d80620001256000396000f3fe608060405234801561001057600080fd5b506004361061009e5760003560e01c8063b8e6839811610066578063b8e6839814610120578063e9eb101714610133578063f1b4fbab14610146578063f2fde38b14610159578063fbfa77cf1461016c57600080fd5b80633271c67e146100a357806353a469b3146100cb578063715018a6146100de5780638da5cb5b146100e8578063ab7b1c891461010d575b600080fd5b6100b66100b1366004611379565b61017f565b60405190151581526020015b60405180910390f35b6100b66100d936600461146b565b6103b4565b6100e66107ec565b005b6000546001600160a01b03165b6040516001600160a01b0390911681526020016100c2565b6100b661011b36600461146b565b610852565b6100b661012e366004611244565b610bb6565b6100b6610141366004611159565b610de1565b6001546100f5906001600160a01b031681565b6100e66101673660046110fa565b610e54565b6002546100f5906001600160a01b031681565b600154604051637cebab3360e11b81526000916001600160a01b03169063f9d75666906101b490869086903390600401611787565b600060405180830381600087803b1580156101ce57600080fd5b505af11580156101e2573d6000803e3d6000fd5b505050506000604051806080016040528085600001516001600160a01b031681526020018560200151600281111561022a57634e487b7160e01b600052602160045260246000fd5b815260200185604001518152602001856060015181525090506000604051806080016040528086608001516001600160a01b031681526020016000600281111561028457634e487b7160e01b600052602160045260246000fd5b815260a087015160208201526000604091820152600254905163353dac7560e21b81529192506001600160a01b03169063d4f6b1d4906102ca9085903390600401611618565b602060405180830381600087803b1580156102e457600080fd5b505af11580156102f8573d6000803e3d6000fd5b505050506040513d601f19601f8201168201806040525081019061031c9190611139565b506002546101208601516040516348ebe6f360e11b81526001600160a01b03909216916391d7cde69161035691859190339060040161163e565b602060405180830381600087803b15801561037057600080fd5b505af1158015610384573d6000803e3d6000fd5b505050506040513d601f19601f820116820180604052508101906103a89190611139565b50600195945050505050565b600154604051632e31150760e11b81526004810183905260009182916001600160a01b0390911690635c622a0e9060240160206040518083038186803b1580156103fd57600080fd5b505afa158015610411573d6000803e3d6000fd5b505050506040513d601f19601f82011682018060405250810190610435919061149b565b600154604051636eeaf0d960e11b8152600481018690523360248201529192506001600160a01b03169063ddd5e1b290604401600060405180830381600087803b15801561048257600080fd5b505af1158015610496573d6000803e3d6000fd5b505050508060ff166003141561063357600154604051639695858f60e01b8152600481018590526000916001600160a01b031690639695858f9060240160806040518083038186803b1580156104eb57600080fd5b505afa1580156104ff573d6000803e3d6000fd5b505050506040513d601f19601f8201168201806040525081019061052391906111d0565b600154604051630ba6bf7960e41b8152600481018790529192506001600160a01b03169063ba6bf7909060240160206040518083038186803b15801561056857600080fd5b505afa15801561057c573d6000803e3d6000fd5b505050506040513d601f19601f820116820180604052508101906105a09190611483565b6040808301919091526002549051633e4af1a560e11b81526001600160a01b0390911690637c95e34a906105da9084903390600401611618565b602060405180830381600087803b1580156105f457600080fd5b505af1158015610608573d6000803e3d6000fd5b505050506040513d601f19601f8201168201806040525081019061062c9190611139565b505061077f565b8060ff166004141561073c576002546001546040516302a62a4960e41b8152600481018690526001600160a01b0392831692637c95e34a921690632a62a4909060240160806040518083038186803b15801561068e57600080fd5b505afa1580156106a2573d6000803e3d6000fd5b505050506040513d601f19601f820116820180604052508101906106c691906111d0565b336040518363ffffffff1660e01b81526004016106e4929190611618565b602060405180830381600087803b1580156106fe57600080fd5b505af1158015610712573d6000803e3d6000fd5b505050506040513d601f19601f820116820180604052508101906107369190611139565b5061077f565b60405162461bcd60e51b8152602060048201526013602482015272496e76616c69642073746174757320636f646560681b60448201526064015b60405180910390fd5b600154604051633f34d4cf60e21b8152600481018590523360248201526001600160a01b039091169063fcd3533c90604401600060405180830381600087803b1580156107cb57600080fd5b505af11580156107df573d6000803e3d6000fd5b5060019695505050505050565b6000546001600160a01b031633146108465760405162461bcd60e51b815260206004820181905260248201527f4f776e61626c653a2063616c6c6572206973206e6f7420746865206f776e65726044820152606401610776565b6108506000610f1f565b565b60015460405163ab7b1c8960e01b8152600481018390526000916001600160a01b03169063ab7b1c8990602401600060405180830381600087803b15801561089957600080fd5b505af11580156108ad573d6000803e3d6000fd5b5050600154604051639695858f60e01b815260048101869052600093506001600160a01b039091169150639695858f9060240160806040518083038186803b1580156108f857600080fd5b505afa15801561090c573d6000803e3d6000fd5b505050506040513d601f19601f8201168201806040525081019061093091906111d0565b600154604051630ba6bf7960e41b8152600481018690529192506001600160a01b03169063ba6bf7909060240160206040518083038186803b15801561097557600080fd5b505afa158015610989573d6000803e3d6000fd5b505050506040513d601f19601f820116820180604052508101906109ad9190611483565b604080830191909152600254905163353dac7560e21b81526001600160a01b039091169063d4f6b1d4906109e79084903390600401611618565b602060405180830381600087803b158015610a0157600080fd5b505af1158015610a15573d6000803e3d6000fd5b505050506040513d601f19601f82011682018060405250810190610a399190611139565b506002546001546040516302a62a4960e41b8152600481018690526001600160a01b0392831692637c95e34a921690632a62a4909060240160806040518083038186803b158015610a8957600080fd5b505afa158015610a9d573d6000803e3d6000fd5b505050506040513d601f19601f82011682018060405250810190610ac191906111d0565b600154604051638500d91960e01b8152600481018890526001600160a01b0390911690638500d9199060240160206040518083038186803b158015610b0557600080fd5b505afa158015610b19573d6000803e3d6000fd5b505050506040513d601f19601f82011682018060405250810190610b3d919061111d565b6040518363ffffffff1660e01b8152600401610b5a929190611618565b602060405180830381600087803b158015610b7457600080fd5b505af1158015610b88573d6000803e3d6000fd5b505050506040513d601f19601f82011682018060405250810190610bac9190611139565b5060019392505050565b60015460405163798a390b60e11b81526000916001600160a01b03169063f314721690610bed90879087908790339060040161166e565b600060405180830381600087803b158015610c0757600080fd5b505af1158015610c1b573d6000803e3d6000fd5b505050506000604051806080016040528086600001516001600160a01b0316815260200186602001516002811115610c6357634e487b7160e01b600052602160045260246000fd5b815260200186604001518152602001856000015181525090506000604051806080016040528087608001516001600160a01b0316815260200160006002811115610cbd57634e487b7160e01b600052602160045260246000fd5b8152602087810151908201526000604091820152600254905163353dac7560e21b81529192506001600160a01b03169063d4f6b1d490610d039085903390600401611618565b602060405180830381600087803b158015610d1d57600080fd5b505af1158015610d31573d6000803e3d6000fd5b505050506040513d601f19601f82011682018060405250810190610d559190611139565b506002546101608701516040516348ebe6f360e11b81526001600160a01b03909216916391d7cde691610d8f91859190339060040161163e565b602060405180830381600087803b158015610da957600080fd5b505af1158015610dbd573d6000803e3d6000fd5b505050506040513d601f19601f820116820180604052508101906107df9190611139565b60015460405163ee502d7d60e01b81526000916001600160a01b03169063ee502d7d90610e189087908790879033906004016115cf565b600060405180830381600087803b158015610e3257600080fd5b505af1158015610e46573d6000803e3d6000fd5b506001979650505050505050565b6000546001600160a01b03163314610eae5760405162461bcd60e51b815260206004820181905260248201527f4f776e61626c653a2063616c6c6572206973206e6f7420746865206f776e65726044820152606401610776565b6001600160a01b038116610f135760405162461bcd60e51b815260206004820152602660248201527f4f776e61626c653a206e6577206f776e657220697320746865207a65726f206160448201526564647265737360d01b6064820152608401610776565b610f1c81610f1f565b50565b600080546001600160a01b038381166001600160a01b0319831681178455604051919092169283917f8be0079c531659141344cd1fd0a4f28419497f9722a3daafe3b4186f6b6457e09190a35050565b8035610f7a81611925565b919050565b600082601f830112610f8f578081fd5b813567ffffffffffffffff811115610fa957610fa961190f565b610fbc601f8201601f19166020016118de565b818152846020838601011115610fd0578283fd5b816020850160208301379081016020019190915292915050565b8035610f7a8161193a565b600060808284031215611006578081fd5b61100e61186d565b9050813581526020808301358183015261102a604084016110d1565b6040830152606083013567ffffffffffffffff8082111561104a57600080fd5b818501915085601f83011261105e57600080fd5b8135818111156110705761107061190f565b8060051b91506110818483016118de565b8181528481019084860184860187018a101561109c57600080fd5b600095505b838610156110bf5780358352600195909501949186019186016110a1565b50606087015250939695505050505050565b803563ffffffff81168114610f7a57600080fd5b803564ffffffffff81168114610f7a57600080fd5b60006020828403121561110b578081fd5b813561111681611925565b9392505050565b60006020828403121561112e578081fd5b815161111681611925565b60006020828403121561114a578081fd5b81518015158114611116578182fd5b60008060006040848603121561116d578182fd5b83359250602084013567ffffffffffffffff8082111561118b578384fd5b818601915086601f83011261119e578384fd5b8135818111156111ac578485fd5b8760208285010111156111bd578485fd5b6020830194508093505050509250925092565b6000608082840312156111e1578081fd5b6040516080810181811067ffffffffffffffff821117156112045761120461190f565b604052825161121281611925565b815260208301516112228161193a565b6020820152604083810151908201526060928301519281019290925250919050565b60008060008385036101e081121561125a578182fd5b6101a080821215611269578283fd5b611271611896565b915061127c86610f6f565b825261128a60208701610fea565b602083015260408601356040830152606086013560608301526112af60808701610f6f565b608083015260a086013560a083015260c086013560c083015260e086013560e08301526101006112e08188016110d1565b908301526101206112f28782016110d1565b908301526101406113048782016110e5565b90830152610160611316878201610f6f565b90830152610180868101359083015290935084013567ffffffffffffffff80821115611340578283fd5b61134c87838801610ff5565b93506101c0860135915080821115611362578283fd5b5061136f86828701610f7f565b9150509250925092565b60008082840361018081121561138d578283fd5b6101608082121561139c578384fd5b6113a46118ba565b91506113af85610f6f565b82526113bd60208601610fea565b602083015260408501356040830152606085013560608301526113e260808601610f6f565b608083015260a085013560a083015260c085013560c083015261140760e086016110d1565b60e083015261010061141a8187016110e5565b9083015261012061142c868201610f6f565b90830152610140858101359083015290925083013567ffffffffffffffff811115611455578182fd5b61146185828601610f7f565b9150509250929050565b60006020828403121561147c578081fd5b5035919050565b600060208284031215611494578081fd5b5051919050565b6000602082840312156114ac578081fd5b815160ff81168114611116578182fd5b60008151808452815b818110156114e1576020818501810151868301820152016114c5565b818111156114f25782602083870101525b50601f01601f19169290920160200192915050565b6003811061152557634e487b7160e01b600052602160045260246000fd5b9052565b80516001600160a01b031682526020808201519061154990840182611507565b5060408181015190830152606090810151910152565b600060808301825184526020808401518186015263ffffffff604085015116604086015260608401516080606087015282815180855260a08801915083830194508592505b808310156115c457845182529383019360019290920191908301906115a4565b509695505050505050565b848152606060208201528260608201528284608083013760008184016080908101919091526001600160a01b03929092166040820152601f909201601f19169091010192915050565b60a081016116268285611529565b6001600160a01b039290921660809190910152919050565b60c0810161164c8286611529565b6001600160a01b0393841660808301529190921660a090920191909152919050565b84516001600160a01b03168152600061020060208701516116926020850182611507565b50604087015160408401526060870151606084015260808701516116c160808501826001600160a01b03169052565b5060a087015160a084015260c087015160c084015260e087015160e0840152610100808801516116f88286018263ffffffff169052565b50506101208781015163ffffffff16908401526101408088015164ffffffffff1690840152610160808801516001600160a01b03169084015261018080880151908401526101a083018190526117508184018761155f565b90508281036101c084015261176581866114bc565b91505061177e6101e08301846001600160a01b03169052565b95945050505050565b83516001600160a01b0316815260006101a060208601516117ab6020850182611507565b50604086015160408401526060860151606084015260808601516117da60808501826001600160a01b03169052565b5060a086015160a084015260c086015160c084015260e086015161180660e085018263ffffffff169052565b506101008681015164ffffffffff1690840152610120808701516001600160a01b0316908401526101408087015190840152610160830181905261184c818401866114bc565b9150506118656101808301846001600160a01b03169052565b949350505050565b6040516080810167ffffffffffffffff811182821017156118905761189061190f565b60405290565b6040516101a0810167ffffffffffffffff811182821017156118905761189061190f565b604051610160810167ffffffffffffffff811182821017156118905761189061190f565b604051601f8201601f1916810167ffffffffffffffff811182821017156119075761190761190f565b604052919050565b634e487b7160e01b600052604160045260246000fd5b6001600160a01b0381168114610f1c57600080fd5b60038110610f1c57600080fdfea2646970667358221220e1d4fea16777fe7154e5e342567c1eff69980cd6c82936f3b59432f42903866b64736f6c63430008040033",
  "linkReferences": {},
  "deployedLinkReferences": {}
}