{
  "_format": "hh-sol-artifact-1",
  "contractName": "PWN",
  "sourceName": "contracts/PWN.sol",
  "abi": [
    {
      "inputs": [
        {
          "internalType": "address",
          "name": "_PWNL",
          "type": "address"
        },
        {
          "internalType": "address",
          "name": "_PWNV",
          "type": "address"
        }
      ],
      "stateMutability": "nonpayable",
      "type": "constructor"
    },
    {
      "anonymous": false,
      "inputs": [
        {
          "indexed": true,
          "internalType": "address",
          "name": "previousOwner",
          "type": "address"
        },
        {
          "indexed": true,
          "internalType": "address",
          "name": "newOwner",
          "type": "address"
        }
      ],
      "name": "OwnershipTransferred",
      "type": "event"
    },
    {
      "inputs": [],
      "name": "LOAN",
      "outputs": [
        {
          "internalType": "contract PWNLOAN",
          "name": "",
          "type": "address"
        }
      ],
      "stateMutability": "view",
      "type": "function"
    },
    {
      "inputs": [
        {
          "internalType": "uint256",
          "name": "_loanId",
          "type": "uint256"
        }
      ],
      "name": "claimLoan",
      "outputs": [
        {
          "internalType": "bool",
          "name": "",
          "type": "bool"
        }
      ],
      "stateMutability": "nonpayable",
      "type": "function"
    },
    {
      "inputs": [
        {
          "components": [
            {
              "internalType": "enum MultiToken.Category",
              "name": "collateralCategory",
              "type": "uint8"
            },
            {
              "internalType": "address",
              "name": "collateralAddress",
              "type": "address"
            },
            {
              "internalType": "bytes32",
              "name": "collateralIdsWhitelistMerkleRoot",
              "type": "bytes32"
            },
            {
              "internalType": "uint256",
              "name": "collateralAmount",
              "type": "uint256"
            },
            {
              "internalType": "address",
              "name": "loanAssetAddress",
              "type": "address"
            },
            {
              "internalType": "uint256",
              "name": "loanAmountMax",
              "type": "uint256"
            },
            {
              "internalType": "uint256",
              "name": "loanAmountMin",
              "type": "uint256"
            },
            {
              "internalType": "uint256",
              "name": "loanYieldMax",
              "type": "uint256"
            },
            {
              "internalType": "uint32",
              "name": "durationMax",
              "type": "uint32"
            },
            {
              "internalType": "uint32",
              "name": "durationMin",
              "type": "uint32"
            },
            {
              "internalType": "uint40",
              "name": "expiration",
              "type": "uint40"
            },
            {
              "internalType": "address",
              "name": "borrower",
              "type": "address"
            },
            {
              "internalType": "address",
              "name": "lender",
              "type": "address"
            },
            {
              "internalType": "bool",
              "name": "isPersistent",
              "type": "bool"
            },
            {
              "internalType": "bytes32",
              "name": "nonce",
              "type": "bytes32"
            }
          ],
          "internalType": "struct PWNLOAN.FlexibleOffer",
          "name": "_offer",
          "type": "tuple"
        },
        {
          "components": [
            {
              "internalType": "uint256",
              "name": "collateralId",
              "type": "uint256"
            },
            {
              "internalType": "uint256",
              "name": "loanAmount",
              "type": "uint256"
            },
            {
              "internalType": "uint32",
              "name": "duration",
              "type": "uint32"
            },
            {
              "internalType": "bytes32[]",
              "name": "merkleInclusionProof",
              "type": "bytes32[]"
            }
          ],
          "internalType": "struct PWNLOAN.FlexibleOfferValues",
          "name": "_offerValues",
          "type": "tuple"
        },
        {
          "internalType": "bytes",
          "name": "_signature",
          "type": "bytes"
        },
        {
          "internalType": "bytes",
          "name": "_loanAssetPermit",
          "type": "bytes"
        },
        {
          "internalType": "bytes",
          "name": "_collateralPermit",
          "type": "bytes"
        }
      ],
      "name": "createFlexibleLoan",
      "outputs": [
        {
          "internalType": "bool",
          "name": "",
          "type": "bool"
        }
      ],
      "stateMutability": "nonpayable",
      "type": "function"
    },
    {
      "inputs": [
        {
          "components": [
            {
              "internalType": "enum MultiToken.Category",
              "name": "collateralCategory",
              "type": "uint8"
            },
            {
              "internalType": "address",
              "name": "collateralAddress",
              "type": "address"
            },
            {
              "internalType": "uint256",
              "name": "collateralId",
              "type": "uint256"
            },
            {
              "internalType": "uint256",
              "name": "collateralAmount",
              "type": "uint256"
            },
            {
              "internalType": "address",
              "name": "loanAssetAddress",
              "type": "address"
            },
            {
              "internalType": "uint256",
              "name": "loanAmount",
              "type": "uint256"
            },
            {
              "internalType": "uint256",
              "name": "loanYield",
              "type": "uint256"
            },
            {
              "internalType": "uint32",
              "name": "duration",
              "type": "uint32"
            },
            {
              "internalType": "uint40",
              "name": "expiration",
              "type": "uint40"
            },
            {
              "internalType": "address",
              "name": "borrower",
              "type": "address"
            },
            {
              "internalType": "address",
              "name": "lender",
              "type": "address"
            },
            {
              "internalType": "bool",
              "name": "isPersistent",
              "type": "bool"
            },
            {
              "internalType": "bytes32",
              "name": "nonce",
              "type": "bytes32"
            }
          ],
          "internalType": "struct PWNLOAN.Offer",
          "name": "_offer",
          "type": "tuple"
        },
        {
          "internalType": "bytes",
          "name": "_signature",
          "type": "bytes"
        },
        {
          "internalType": "bytes",
          "name": "_loanAssetPermit",
          "type": "bytes"
        },
        {
          "internalType": "bytes",
          "name": "_collateralPermit",
          "type": "bytes"
        }
      ],
      "name": "createLoan",
      "outputs": [
        {
          "internalType": "bool",
          "name": "",
          "type": "bool"
        }
      ],
      "stateMutability": "nonpayable",
      "type": "function"
    },
    {
      "inputs": [],
      "name": "owner",
      "outputs": [
        {
          "internalType": "address",
          "name": "",
          "type": "address"
        }
      ],
      "stateMutability": "view",
      "type": "function"
    },
    {
      "inputs": [],
      "name": "renounceOwnership",
      "outputs": [],
      "stateMutability": "nonpayable",
      "type": "function"
    },
    {
      "inputs": [
        {
          "internalType": "uint256",
          "name": "_loanId",
          "type": "uint256"
        },
        {
          "internalType": "bytes",
          "name": "_loanAssetPermit",
          "type": "bytes"
        }
      ],
      "name": "repayLoan",
      "outputs": [
        {
          "internalType": "bool",
          "name": "",
          "type": "bool"
        }
      ],
      "stateMutability": "nonpayable",
      "type": "function"
    },
    {
      "inputs": [
        {
          "internalType": "bytes32",
          "name": "_offerHash",
          "type": "bytes32"
        },
        {
          "internalType": "bytes",
          "name": "_signature",
          "type": "bytes"
        }
      ],
      "name": "revokeOffer",
      "outputs": [
        {
          "internalType": "bool",
          "name": "",
          "type": "bool"
        }
      ],
      "stateMutability": "nonpayable",
      "type": "function"
    },
    {
      "inputs": [
        {
          "internalType": "address",
          "name": "newOwner",
          "type": "address"
        }
      ],
      "name": "transferOwnership",
      "outputs": [],
      "stateMutability": "nonpayable",
      "type": "function"
    },
    {
      "inputs": [],
      "name": "vault",
      "outputs": [
        {
          "internalType": "contract PWNVault",
          "name": "",
          "type": "address"
        }
      ],
      "stateMutability": "view",
      "type": "function"
    }
  ],
  "bytecode": "0x60806040523480156200001157600080fd5b5060405162001c8338038062001c838339810160408190526200003491620000de565b6200003f3362000071565b600180546001600160a01b039384166001600160a01b0319918216179091556002805492909316911617905562000115565b600080546001600160a01b038381166001600160a01b0319831681178455604051919092169283917f8be0079c531659141344cd1fd0a4f28419497f9722a3daafe3b4186f6b6457e09190a35050565b80516001600160a01b0381168114620000d957600080fd5b919050565b60008060408385031215620000f1578182fd5b620000fc83620000c1565b91506200010c60208401620000c1565b90509250929050565b611b5e80620001256000396000f3fe608060405234801561001057600080fd5b506004361061009e5760003560e01c80638da5cb5b116100665780638da5cb5b1461010e578063e9eb101714610133578063f1b4fbab14610146578063f2fde38b14610159578063fbfa77cf1461016c57600080fd5b806312a46082146100a35780631d30a2b0146100cb57806327c1d8a9146100de57806353a469b3146100f1578063715018a614610104575b600080fd5b6100b66100b136600461141c565b61017f565b60405190151581526020015b60405180910390f35b6100b66100d9366004611279565b6103bd565b6100b66100ec3660046115ad565b610610565b6100b66100ff36600461157d565b610974565b61010c610da9565b005b6000546001600160a01b03165b6040516001600160a01b0390911681526020016100c2565b6100b661014136600461118e565b610e0f565b60015461011b906001600160a01b031681565b61010c610167366004611133565b610e82565b60025461011b906001600160a01b031681565b6001546040516342fcbfe160e01b81526000916001600160a01b0316906342fcbfe1906101b49088908890339060040161193c565b600060405180830381600087803b1580156101ce57600080fd5b505af11580156101e2573d6000803e3d6000fd5b50505050600060405180608001604052808760000151600281111561021757634e487b7160e01b600052602160045260246000fd5b815260200187602001516001600160a01b031681526020018760400151815260200187606001518152509050600060405180608001604052806000600281111561027157634e487b7160e01b600052602160045260246000fd5b815260808901516001600160a01b039081166020830152600060408084019190915260a08b0151606090930192909252600254915163140b5e9d60e11b81529293501690632816bd3a906102cd908590339089906004016117d5565b602060405180830381600087803b1580156102e757600080fd5b505af11580156102fb573d6000803e3d6000fd5b505050506040513d601f19601f8201168201806040525081019061031f9190611172565b5060025461014088015160405163230a13fd60e01b81526001600160a01b039092169163230a13fd9161035b9185919033908b90600401611792565b602060405180830381600087803b15801561037557600080fd5b505af1158015610389573d6000803e3d6000fd5b505050506040513d601f19601f820116820180604052508101906103ad9190611172565b506001925050505b949350505050565b600154604051637ea8018560e11b81526000916001600160a01b03169063fd50030a906103f4908990899089903390600401611806565b600060405180830381600087803b15801561040e57600080fd5b505af1158015610422573d6000803e3d6000fd5b50505050600060405180608001604052808860000151600281111561045757634e487b7160e01b600052602160045260246000fd5b815260200188602001516001600160a01b03168152602001876000015181526020018860600151815250905060006040518060800160405280600060028111156104b157634e487b7160e01b600052602160045260246000fd5b815260200189608001516001600160a01b031681526020016000815260200188602001518152509050600260009054906101000a90046001600160a01b03166001600160a01b0316632816bd3a8333876040518463ffffffff1660e01b815260040161051f939291906117d5565b602060405180830381600087803b15801561053957600080fd5b505af115801561054d573d6000803e3d6000fd5b505050506040513d601f19601f820116820180604052508101906105719190611172565b5060025461018089015160405163230a13fd60e01b81526001600160a01b039092169163230a13fd916105ad9185919033908b90600401611792565b602060405180830381600087803b1580156105c757600080fd5b505af11580156105db573d6000803e3d6000fd5b505050506040513d601f19601f820116820180604052508101906105ff9190611172565b506001925050505b95945050505050565b60015460405163ab7b1c8960e01b8152600481018490526000916001600160a01b03169063ab7b1c8990602401600060405180830381600087803b15801561065757600080fd5b505af115801561066b573d6000803e3d6000fd5b5050600154604051639695858f60e01b815260048101879052600093506001600160a01b039091169150639695858f9060240160806040518083038186803b1580156106b657600080fd5b505afa1580156106ca573d6000803e3d6000fd5b505050506040513d601f19601f820116820180604052508101906106ee9190611205565b600154604051630ba6bf7960e41b8152600481018790529192506001600160a01b03169063ba6bf7909060240160206040518083038186803b15801561073357600080fd5b505afa158015610747573d6000803e3d6000fd5b505050506040513d601f19601f8201168201806040525081019061076b9190611595565b606082015260025460405163140b5e9d60e11b81526001600160a01b0390911690632816bd3a906107a4908490339088906004016117d5565b602060405180830381600087803b1580156107be57600080fd5b505af11580156107d2573d6000803e3d6000fd5b505050506040513d601f19601f820116820180604052508101906107f69190611172565b506002546001546040516302a62a4960e41b8152600481018790526001600160a01b039283169263be48d96d921690632a62a4909060240160806040518083038186803b15801561084657600080fd5b505afa15801561085a573d6000803e3d6000fd5b505050506040513d601f19601f8201168201806040525081019061087e9190611205565b600154604051638500d91960e01b8152600481018990526001600160a01b0390911690638500d9199060240160206040518083038186803b1580156108c257600080fd5b505afa1580156108d6573d6000803e3d6000fd5b505050506040513d601f19601f820116820180604052508101906108fa9190611156565b6040518363ffffffff1660e01b815260040161091792919061176c565b602060405180830381600087803b15801561093157600080fd5b505af1158015610945573d6000803e3d6000fd5b505050506040513d601f19601f820116820180604052508101906109699190611172565b506001949350505050565b600154604051632e31150760e11b81526004810183905260009182916001600160a01b0390911690635c622a0e9060240160206040518083038186803b1580156109bd57600080fd5b505afa1580156109d1573d6000803e3d6000fd5b505050506040513d601f19601f820116820180604052508101906109f591906115f2565b600154604051636eeaf0d960e11b8152600481018690523360248201529192506001600160a01b03169063ddd5e1b290604401600060405180830381600087803b158015610a4257600080fd5b505af1158015610a56573d6000803e3d6000fd5b505050508060ff1660031415610bf057600154604051639695858f60e01b8152600481018590526000916001600160a01b031690639695858f9060240160806040518083038186803b158015610aab57600080fd5b505afa158015610abf573d6000803e3d6000fd5b505050506040513d601f19601f82011682018060405250810190610ae39190611205565b600154604051630ba6bf7960e41b8152600481018790529192506001600160a01b03169063ba6bf7909060240160206040518083038186803b158015610b2857600080fd5b505afa158015610b3c573d6000803e3d6000fd5b505050506040513d601f19601f82011682018060405250810190610b609190611595565b606082015260025460405163be48d96d60e01b81526001600160a01b039091169063be48d96d90610b97908490339060040161176c565b602060405180830381600087803b158015610bb157600080fd5b505af1158015610bc5573d6000803e3d6000fd5b505050506040513d601f19601f82011682018060405250810190610be99190611172565b5050610d3c565b8060ff1660041415610cf9576002546001546040516302a62a4960e41b8152600481018690526001600160a01b039283169263be48d96d921690632a62a4909060240160806040518083038186803b158015610c4b57600080fd5b505afa158015610c5f573d6000803e3d6000fd5b505050506040513d601f19601f82011682018060405250810190610c839190611205565b336040518363ffffffff1660e01b8152600401610ca192919061176c565b602060405180830381600087803b158015610cbb57600080fd5b505af1158015610ccf573d6000803e3d6000fd5b505050506040513d601f19601f82011682018060405250810190610cf39190611172565b50610d3c565b60405162461bcd60e51b8152602060048201526013602482015272496e76616c69642073746174757320636f646560681b60448201526064015b60405180910390fd5b600154604051633f34d4cf60e21b8152600481018590523360248201526001600160a01b039091169063fcd3533c90604401600060405180830381600087803b158015610d8857600080fd5b505af1158015610d9c573d6000803e3d6000fd5b5060019695505050505050565b6000546001600160a01b03163314610e035760405162461bcd60e51b815260206004820181905260248201527f4f776e61626c653a2063616c6c6572206973206e6f7420746865206f776e65726044820152606401610d33565b610e0d6000610f4d565b565b60015460405163ee502d7d60e01b81526000916001600160a01b03169063ee502d7d90610e46908790879087903390600401611723565b600060405180830381600087803b158015610e6057600080fd5b505af1158015610e74573d6000803e3d6000fd5b506001979650505050505050565b6000546001600160a01b03163314610edc5760405162461bcd60e51b815260206004820181905260248201527f4f776e61626c653a2063616c6c6572206973206e6f7420746865206f776e65726044820152606401610d33565b6001600160a01b038116610f415760405162461bcd60e51b815260206004820152602660248201527f4f776e61626c653a206e6577206f776e657220697320746865207a65726f206160448201526564647265737360d01b6064820152608401610d33565b610f4a81610f4d565b50565b600080546001600160a01b038381166001600160a01b0319831681178455604051919092169283917f8be0079c531659141344cd1fd0a4f28419497f9722a3daafe3b4186f6b6457e09190a35050565b8035610fa881611af8565b919050565b8035610fa881611b0d565b600082601f830112610fc8578081fd5b813567ffffffffffffffff811115610fe257610fe2611ae2565b610ff5601f8201601f1916602001611ab1565b818152846020838601011115611009578283fd5b816020850160208301379081016020019190915292915050565b8035610fa881611b1b565b60006080828403121561103f578081fd5b611047611a40565b905081358152602080830135818301526110636040840161110a565b6040830152606083013567ffffffffffffffff8082111561108357600080fd5b818501915085601f83011261109757600080fd5b8135818111156110a9576110a9611ae2565b8060051b91506110ba848301611ab1565b8181528481019084860184860187018a10156110d557600080fd5b600095505b838610156110f85780358352600195909501949186019186016110da565b50606087015250939695505050505050565b803563ffffffff81168114610fa857600080fd5b803564ffffffffff81168114610fa857600080fd5b600060208284031215611144578081fd5b813561114f81611af8565b9392505050565b600060208284031215611167578081fd5b815161114f81611af8565b600060208284031215611183578081fd5b815161114f81611b0d565b6000806000604084860312156111a2578182fd5b83359250602084013567ffffffffffffffff808211156111c0578384fd5b818601915086601f8301126111d3578384fd5b8135818111156111e1578485fd5b8760208285010111156111f2578485fd5b6020830194508093505050509250925092565b600060808284031215611216578081fd5b6040516080810181811067ffffffffffffffff8211171561123957611239611ae2565b604052825161124781611b1b565b8152602083015161125781611af8565b6020820152604083810151908201526060928301519281019290925250919050565b6000806000806000858703610260811215611292578384fd5b6101e0808212156112a1578485fd5b6112a9611a69565b91506112b488611023565b82526112c260208901610f9d565b602083015260408801356040830152606088013560608301526112e760808901610f9d565b608083015260a088013560a083015260c088013560c083015260e088013560e0830152610100611318818a0161110a565b9083015261012061132a89820161110a565b9083015261014061133c89820161111e565b9083015261016061134e898201610f9d565b90830152610180611360898201610f9d565b908301526101a0611372898201610fad565b908301526101c0888101359083015290955086013567ffffffffffffffff8082111561139c578485fd5b6113a889838a0161102e565b95506102008801359150808211156113be578485fd5b6113ca89838a01610fb8565b94506102208801359150808211156113e0578283fd5b6113ec89838a01610fb8565b9350610240880135915080821115611402578283fd5b5061140f88828901610fb8565b9150509295509295909350565b600080600080848603610200811215611433578283fd5b6101a080821215611442578384fd5b61144a611a8d565b915061145587611023565b825261146360208801610f9d565b6020830152604087013560408301526060870135606083015261148860808801610f9d565b608083015260a087013560a083015260c087013560c08301526114ad60e0880161110a565b60e08301526101006114c081890161111e565b908301526101206114d2888201610f9d565b908301526101406114e4888201610f9d565b908301526101606114f6888201610fad565b90830152610180878101359083015290945085013567ffffffffffffffff80821115611520578384fd5b61152c88838901610fb8565b94506101c0870135915080821115611542578384fd5b61154e88838901610fb8565b93506101e0870135915080821115611564578283fd5b5061157187828801610fb8565b91505092959194509250565b60006020828403121561158e578081fd5b5035919050565b6000602082840312156115a6578081fd5b5051919050565b600080604083850312156115bf578182fd5b82359150602083013567ffffffffffffffff8111156115dc578182fd5b6115e885828601610fb8565b9150509250929050565b600060208284031215611603578081fd5b815160ff8116811461114f578182fd5b60008151808452815b818110156116385760208185018101518683018201520161161c565b818111156116495782602083870101525b50601f01601f19169290920160200192915050565b6003811061167c57634e487b7160e01b600052602160045260246000fd5b9052565b61168b82825161165e565b6020818101516001600160a01b03169083015260408082015190830152606090810151910152565b600060808301825184526020808401518186015263ffffffff604085015116604086015260608401516080606087015282815180855260a08801915083830194508592505b8083101561171857845182529383019360019290920191908301906116f8565b509695505050505050565b848152606060208201528260608201528284608083013760008184016080908101919091526001600160a01b03929092166040820152601f909201601f19169091010192915050565b60a0810161177a8285611680565b6001600160a01b039290921660809190910152919050565b61179c8186611680565b6001600160a01b038481166080830152831660a082015260e060c082018190526000906117cb90830184611613565b9695505050505050565b6117df8185611680565b6001600160a01b038316608082015260c060a0820181905260009061060790830184611613565b600061024061181683885161165e565b602087015161183060208501826001600160a01b03169052565b506040870151604084015260608701516060840152608087015161185f60808501826001600160a01b03169052565b5060a087015160a084015260c087015160c084015260e087015160e0840152610100808801516118968286018263ffffffff169052565b50506101208781015163ffffffff16908401526101408088015164ffffffffff1690840152610160808801516001600160a01b039081169185019190915261018080890151909116908401526101a0808801511515908401526101c080880151908401526101e0830181905261190e818401876116b3565b90508281036102008401526119238186611613565b9150506106076102208301846001600160a01b03169052565b60006101e061194c83875161165e565b602086015161196660208501826001600160a01b03169052565b506040860151604084015260608601516060840152608086015161199560808501826001600160a01b03169052565b5060a086015160a084015260c086015160c084015260e08601516119c160e085018263ffffffff169052565b506101008681015164ffffffffff1690840152610120808701516001600160a01b039081169185019190915261014080880151909116908401526101608087015115159084015261018080870151908401526101a08301819052611a2781840186611613565b9150506103b56101c08301846001600160a01b03169052565b6040516080810167ffffffffffffffff81118282101715611a6357611a63611ae2565b60405290565b6040516101e0810167ffffffffffffffff81118282101715611a6357611a63611ae2565b6040516101a0810167ffffffffffffffff81118282101715611a6357611a63611ae2565b604051601f8201601f1916810167ffffffffffffffff81118282101715611ada57611ada611ae2565b604052919050565b634e487b7160e01b600052604160045260246000fd5b6001600160a01b0381168114610f4a57600080fd5b8015158114610f4a57600080fd5b60038110610f4a57600080fdfea2646970667358221220b7f4714b5be90c8730787e684d398bdfa4c8d00fa68181b0b75f671e5b75114864736f6c63430008040033",
  "linkReferences": {},
  "deployedLinkReferences": {}
}