{
  "_format": "hh-sol-artifact-1",
  "contractName": "PWN",
  "sourceName": "contracts/PWN.sol",
  "abi": [
    {
      "inputs": [
        {
          "internalType": "address",
          "name": "_PWNL",
          "type": "address"
        },
        {
          "internalType": "address",
          "name": "_PWNV",
          "type": "address"
        }
      ],
      "stateMutability": "nonpayable",
      "type": "constructor"
    },
    {
      "anonymous": false,
      "inputs": [
        {
          "indexed": true,
          "internalType": "address",
          "name": "previousOwner",
          "type": "address"
        },
        {
          "indexed": true,
          "internalType": "address",
          "name": "newOwner",
          "type": "address"
        }
      ],
      "name": "OwnershipTransferred",
      "type": "event"
    },
    {
      "inputs": [
        {
          "internalType": "uint256",
          "name": "_loanId",
          "type": "uint256"
        }
      ],
      "name": "claimLoan",
      "outputs": [
        {
          "internalType": "bool",
          "name": "",
          "type": "bool"
        }
      ],
      "stateMutability": "nonpayable",
      "type": "function"
    },
    {
      "inputs": [
        {
          "components": [
            {
              "internalType": "address",
              "name": "collateralAddress",
              "type": "address"
            },
            {
              "internalType": "enum MultiToken.Category",
              "name": "collateralCategory",
              "type": "uint8"
            },
            {
              "internalType": "uint256",
              "name": "collateralAmount",
              "type": "uint256"
            },
            {
              "internalType": "uint256",
              "name": "collateralId",
              "type": "uint256"
            },
            {
              "internalType": "address",
              "name": "loanAssetAddress",
              "type": "address"
            },
            {
              "internalType": "uint256",
              "name": "loanAmount",
              "type": "uint256"
            },
            {
              "internalType": "uint256",
              "name": "loanYield",
              "type": "uint256"
            },
            {
              "internalType": "uint32",
              "name": "duration",
              "type": "uint32"
            },
            {
              "internalType": "uint40",
              "name": "expiration",
              "type": "uint40"
            },
            {
              "internalType": "address",
              "name": "lender",
              "type": "address"
            },
            {
              "internalType": "bytes32",
              "name": "nonce",
              "type": "bytes32"
            }
          ],
          "internalType": "struct PWNLoan.Offer",
          "name": "_offer",
          "type": "tuple"
        },
        {
          "internalType": "bytes",
          "name": "_signature",
          "type": "bytes"
        }
      ],
      "name": "createLoan",
      "outputs": [
        {
          "internalType": "bool",
          "name": "",
          "type": "bool"
        }
      ],
      "stateMutability": "nonpayable",
      "type": "function"
    },
    {
      "inputs": [
        {
          "components": [
            {
              "internalType": "address",
              "name": "collateralAddress",
              "type": "address"
            },
            {
              "internalType": "enum MultiToken.Category",
              "name": "collateralCategory",
              "type": "uint8"
            },
            {
              "internalType": "uint256",
              "name": "collateralAmount",
              "type": "uint256"
            },
            {
              "internalType": "bytes32",
              "name": "collateralIdsWhitelistMerkleRoot",
              "type": "bytes32"
            },
            {
              "internalType": "address",
              "name": "loanAssetAddress",
              "type": "address"
            },
            {
              "internalType": "uint256",
              "name": "loanAmountMax",
              "type": "uint256"
            },
            {
              "internalType": "uint256",
              "name": "loanAmountMin",
              "type": "uint256"
            },
            {
              "internalType": "uint256",
              "name": "loanYieldMax",
              "type": "uint256"
            },
            {
              "internalType": "uint32",
              "name": "durationMax",
              "type": "uint32"
            },
            {
              "internalType": "uint32",
              "name": "durationMin",
              "type": "uint32"
            },
            {
              "internalType": "uint40",
              "name": "expiration",
              "type": "uint40"
            },
            {
              "internalType": "address",
              "name": "lender",
              "type": "address"
            },
            {
              "internalType": "bytes32",
              "name": "nonce",
              "type": "bytes32"
            }
          ],
          "internalType": "struct PWNLoan.FlexibleOffer",
          "name": "_offer",
          "type": "tuple"
        },
        {
          "components": [
            {
              "internalType": "uint256",
              "name": "collateralId",
              "type": "uint256"
            },
            {
              "internalType": "uint256",
              "name": "loanAmount",
              "type": "uint256"
            },
            {
              "internalType": "uint32",
              "name": "duration",
              "type": "uint32"
            },
            {
              "internalType": "bytes32[]",
              "name": "merkleInclusionProof",
              "type": "bytes32[]"
            }
          ],
          "internalType": "struct PWNLoan.FlexibleOfferValues",
          "name": "_offerValues",
          "type": "tuple"
        },
        {
          "internalType": "bytes",
          "name": "_signature",
          "type": "bytes"
        }
      ],
      "name": "createLoanFlexible",
      "outputs": [
        {
          "internalType": "bool",
          "name": "",
          "type": "bool"
        }
      ],
      "stateMutability": "nonpayable",
      "type": "function"
    },
    {
      "inputs": [],
      "name": "loan",
      "outputs": [
        {
          "internalType": "contract PWNLoan",
          "name": "",
          "type": "address"
        }
      ],
      "stateMutability": "view",
      "type": "function"
    },
    {
      "inputs": [],
      "name": "owner",
      "outputs": [
        {
          "internalType": "address",
          "name": "",
          "type": "address"
        }
      ],
      "stateMutability": "view",
      "type": "function"
    },
    {
      "inputs": [],
      "name": "renounceOwnership",
      "outputs": [],
      "stateMutability": "nonpayable",
      "type": "function"
    },
    {
      "inputs": [
        {
          "internalType": "uint256",
          "name": "_loanId",
          "type": "uint256"
        }
      ],
      "name": "repayLoan",
      "outputs": [
        {
          "internalType": "bool",
          "name": "",
          "type": "bool"
        }
      ],
      "stateMutability": "nonpayable",
      "type": "function"
    },
    {
      "inputs": [
        {
          "internalType": "bytes32",
          "name": "_offerHash",
          "type": "bytes32"
        },
        {
          "internalType": "bytes",
          "name": "_signature",
          "type": "bytes"
        }
      ],
      "name": "revokeOffer",
      "outputs": [
        {
          "internalType": "bool",
          "name": "",
          "type": "bool"
        }
      ],
      "stateMutability": "nonpayable",
      "type": "function"
    },
    {
      "inputs": [
        {
          "internalType": "address",
          "name": "newOwner",
          "type": "address"
        }
      ],
      "name": "transferOwnership",
      "outputs": [],
      "stateMutability": "nonpayable",
      "type": "function"
    },
    {
      "inputs": [],
      "name": "vault",
      "outputs": [
        {
          "internalType": "contract PWNVault",
          "name": "",
          "type": "address"
        }
      ],
      "stateMutability": "view",
      "type": "function"
    }
  ],
  "bytecode": "0x60806040523480156200001157600080fd5b5060405162001a6038038062001a608339810160408190526200003491620000de565b6200003f3362000071565b600180546001600160a01b039384166001600160a01b0319918216179091556002805492909316911617905562000115565b600080546001600160a01b038381166001600160a01b0319831681178455604051919092169283917f8be0079c531659141344cd1fd0a4f28419497f9722a3daafe3b4186f6b6457e09190a35050565b80516001600160a01b0381168114620000d957600080fd5b919050565b60008060408385031215620000f1578182fd5b620000fc83620000c1565b91506200010c60208401620000c1565b90509250929050565b61193b80620001256000396000f3fe608060405234801561001057600080fd5b506004361061009e5760003560e01c8063d285b7b411610066578063d285b7b414610120578063e579eab714610133578063e9eb101714610146578063f2fde38b14610159578063fbfa77cf1461016c57600080fd5b80633271c67e146100a357806353a469b3146100cb578063715018a6146100de5780638da5cb5b146100e8578063ab7b1c891461010d575b600080fd5b6100b66100b1366004611337565b61017f565b60405190151581526020015b60405180910390f35b6100b66100d9366004611429565b6103b4565b6100e66107a5565b005b6000546001600160a01b03165b6040516001600160a01b0390911681526020016100c2565b6100b661011b366004611429565b610810565b6001546100f5906001600160a01b031681565b6100b6610141366004611202565b610b74565b6100b6610154366004611117565b610d9f565b6100e66101673660046110b8565b610e12565b6002546100f5906001600160a01b031681565b600154604051637cebab3360e11b81526000916001600160a01b03169063f9d75666906101b490869086903390600401611745565b600060405180830381600087803b1580156101ce57600080fd5b505af11580156101e2573d6000803e3d6000fd5b505050506000604051806080016040528085600001516001600160a01b031681526020018560200151600281111561022a57634e487b7160e01b600052602160045260246000fd5b815260200185604001518152602001856060015181525090506000604051806080016040528086608001516001600160a01b031681526020016000600281111561028457634e487b7160e01b600052602160045260246000fd5b815260a087015160208201526000604091820152600254905163353dac7560e21b81529192506001600160a01b03169063d4f6b1d4906102ca90859033906004016115d6565b602060405180830381600087803b1580156102e457600080fd5b505af11580156102f8573d6000803e3d6000fd5b505050506040513d601f19601f8201168201806040525081019061031c91906110f7565b506002546101208601516040516348ebe6f360e11b81526001600160a01b03909216916391d7cde6916103569185919033906004016115fc565b602060405180830381600087803b15801561037057600080fd5b505af1158015610384573d6000803e3d6000fd5b505050506040513d601f19601f820116820180604052508101906103a891906110f7565b50600195945050505050565b600154604051632e31150760e11b81526004810183905260009182916001600160a01b0390911690635c622a0e9060240160206040518083038186803b1580156103fd57600080fd5b505afa158015610411573d6000803e3d6000fd5b505050506040513d601f19601f820116820180604052508101906104359190611459565b600154604051636eeaf0d960e11b8152600481018690523360248201529192506001600160a01b03169063ddd5e1b290604401600060405180830381600087803b15801561048257600080fd5b505af1158015610496573d6000803e3d6000fd5b505050508060ff166003141561063357600154604051632820036560e11b8152600481018590526000916001600160a01b03169063504006ca9060240160806040518083038186803b1580156104eb57600080fd5b505afa1580156104ff573d6000803e3d6000fd5b505050506040513d601f19601f82011682018060405250810190610523919061118e565b600154604051630ba6bf7960e41b8152600481018790529192506001600160a01b03169063ba6bf7909060240160206040518083038186803b15801561056857600080fd5b505afa15801561057c573d6000803e3d6000fd5b505050506040513d601f19601f820116820180604052508101906105a09190611441565b6040808301919091526002549051633e4af1a560e11b81526001600160a01b0390911690637c95e34a906105da90849033906004016115d6565b602060405180830381600087803b1580156105f457600080fd5b505af1158015610608573d6000803e3d6000fd5b505050506040513d601f19601f8201168201806040525081019061062c91906110f7565b5050610738565b8060ff1660041415610738576002546001546040516302a62a4960e41b8152600481018690526001600160a01b0392831692637c95e34a921690632a62a4909060240160806040518083038186803b15801561068e57600080fd5b505afa1580156106a2573d6000803e3d6000fd5b505050506040513d601f19601f820116820180604052508101906106c6919061118e565b336040518363ffffffff1660e01b81526004016106e49291906115d6565b602060405180830381600087803b1580156106fe57600080fd5b505af1158015610712573d6000803e3d6000fd5b505050506040513d601f19601f8201168201806040525081019061073691906110f7565b505b600154604051633f34d4cf60e21b8152600481018590523360248201526001600160a01b039091169063fcd3533c90604401600060405180830381600087803b15801561078457600080fd5b505af1158015610798573d6000803e3d6000fd5b5060019695505050505050565b6000546001600160a01b031633146108045760405162461bcd60e51b815260206004820181905260248201527f4f776e61626c653a2063616c6c6572206973206e6f7420746865206f776e657260448201526064015b60405180910390fd5b61080e6000610edd565b565b60015460405163ab7b1c8960e01b8152600481018390526000916001600160a01b03169063ab7b1c8990602401600060405180830381600087803b15801561085757600080fd5b505af115801561086b573d6000803e3d6000fd5b5050600154604051632820036560e11b815260048101869052600093506001600160a01b03909116915063504006ca9060240160806040518083038186803b1580156108b657600080fd5b505afa1580156108ca573d6000803e3d6000fd5b505050506040513d601f19601f820116820180604052508101906108ee919061118e565b600154604051630ba6bf7960e41b8152600481018690529192506001600160a01b03169063ba6bf7909060240160206040518083038186803b15801561093357600080fd5b505afa158015610947573d6000803e3d6000fd5b505050506040513d601f19601f8201168201806040525081019061096b9190611441565b604080830191909152600254905163353dac7560e21b81526001600160a01b039091169063d4f6b1d4906109a590849033906004016115d6565b602060405180830381600087803b1580156109bf57600080fd5b505af11580156109d3573d6000803e3d6000fd5b505050506040513d601f19601f820116820180604052508101906109f791906110f7565b506002546001546040516302a62a4960e41b8152600481018690526001600160a01b0392831692637c95e34a921690632a62a4909060240160806040518083038186803b158015610a4757600080fd5b505afa158015610a5b573d6000803e3d6000fd5b505050506040513d601f19601f82011682018060405250810190610a7f919061118e565b600154604051638500d91960e01b8152600481018890526001600160a01b0390911690638500d9199060240160206040518083038186803b158015610ac357600080fd5b505afa158015610ad7573d6000803e3d6000fd5b505050506040513d601f19601f82011682018060405250810190610afb91906110db565b6040518363ffffffff1660e01b8152600401610b189291906115d6565b602060405180830381600087803b158015610b3257600080fd5b505af1158015610b46573d6000803e3d6000fd5b505050506040513d601f19601f82011682018060405250810190610b6a91906110f7565b5060019392505050565b60015460405163798a390b60e11b81526000916001600160a01b03169063f314721690610bab90879087908790339060040161162c565b600060405180830381600087803b158015610bc557600080fd5b505af1158015610bd9573d6000803e3d6000fd5b505050506000604051806080016040528086600001516001600160a01b0316815260200186602001516002811115610c2157634e487b7160e01b600052602160045260246000fd5b815260200186604001518152602001856000015181525090506000604051806080016040528087608001516001600160a01b0316815260200160006002811115610c7b57634e487b7160e01b600052602160045260246000fd5b8152602087810151908201526000604091820152600254905163353dac7560e21b81529192506001600160a01b03169063d4f6b1d490610cc190859033906004016115d6565b602060405180830381600087803b158015610cdb57600080fd5b505af1158015610cef573d6000803e3d6000fd5b505050506040513d601f19601f82011682018060405250810190610d1391906110f7565b506002546101608701516040516348ebe6f360e11b81526001600160a01b03909216916391d7cde691610d4d9185919033906004016115fc565b602060405180830381600087803b158015610d6757600080fd5b505af1158015610d7b573d6000803e3d6000fd5b505050506040513d601f19601f8201168201806040525081019061079891906110f7565b60015460405163ee502d7d60e01b81526000916001600160a01b03169063ee502d7d90610dd690879087908790339060040161158d565b600060405180830381600087803b158015610df057600080fd5b505af1158015610e04573d6000803e3d6000fd5b506001979650505050505050565b6000546001600160a01b03163314610e6c5760405162461bcd60e51b815260206004820181905260248201527f4f776e61626c653a2063616c6c6572206973206e6f7420746865206f776e657260448201526064016107fb565b6001600160a01b038116610ed15760405162461bcd60e51b815260206004820152602660248201527f4f776e61626c653a206e6577206f776e657220697320746865207a65726f206160448201526564647265737360d01b60648201526084016107fb565b610eda81610edd565b50565b600080546001600160a01b038381166001600160a01b0319831681178455604051919092169283917f8be0079c531659141344cd1fd0a4f28419497f9722a3daafe3b4186f6b6457e09190a35050565b8035610f38816118e3565b919050565b600082601f830112610f4d578081fd5b813567ffffffffffffffff811115610f6757610f676118cd565b610f7a601f8201601f191660200161189c565b818152846020838601011115610f8e578283fd5b816020850160208301379081016020019190915292915050565b8035610f38816118f8565b600060808284031215610fc4578081fd5b610fcc61182b565b90508135815260208083013581830152610fe86040840161108f565b6040830152606083013567ffffffffffffffff8082111561100857600080fd5b818501915085601f83011261101c57600080fd5b81358181111561102e5761102e6118cd565b8060051b915061103f84830161189c565b8181528481019084860184860187018a101561105a57600080fd5b600095505b8386101561107d57803583526001959095019491860191860161105f565b50606087015250939695505050505050565b803563ffffffff81168114610f3857600080fd5b803564ffffffffff81168114610f3857600080fd5b6000602082840312156110c9578081fd5b81356110d4816118e3565b9392505050565b6000602082840312156110ec578081fd5b81516110d4816118e3565b600060208284031215611108578081fd5b815180151581146110d4578182fd5b60008060006040848603121561112b578182fd5b83359250602084013567ffffffffffffffff80821115611149578384fd5b818601915086601f83011261115c578384fd5b81358181111561116a578485fd5b87602082850101111561117b578485fd5b6020830194508093505050509250925092565b60006080828403121561119f578081fd5b6040516080810181811067ffffffffffffffff821117156111c2576111c26118cd565b60405282516111d0816118e3565b815260208301516111e0816118f8565b6020820152604083810151908201526060928301519281019290925250919050565b60008060008385036101e0811215611218578182fd5b6101a080821215611227578283fd5b61122f611854565b915061123a86610f2d565b825261124860208701610fa8565b6020830152604086013560408301526060860135606083015261126d60808701610f2d565b608083015260a086013560a083015260c086013560c083015260e086013560e083015261010061129e81880161108f565b908301526101206112b087820161108f565b908301526101406112c28782016110a3565b908301526101606112d4878201610f2d565b90830152610180868101359083015290935084013567ffffffffffffffff808211156112fe578283fd5b61130a87838801610fb3565b93506101c0860135915080821115611320578283fd5b5061132d86828701610f3d565b9150509250925092565b60008082840361018081121561134b578283fd5b6101608082121561135a578384fd5b611362611878565b915061136d85610f2d565b825261137b60208601610fa8565b602083015260408501356040830152606085013560608301526113a060808601610f2d565b608083015260a085013560a083015260c085013560c08301526113c560e0860161108f565b60e08301526101006113d88187016110a3565b908301526101206113ea868201610f2d565b90830152610140858101359083015290925083013567ffffffffffffffff811115611413578182fd5b61141f85828601610f3d565b9150509250929050565b60006020828403121561143a578081fd5b5035919050565b600060208284031215611452578081fd5b5051919050565b60006020828403121561146a578081fd5b815160ff811681146110d4578182fd5b60008151808452815b8181101561149f57602081850181015186830182015201611483565b818111156114b05782602083870101525b50601f01601f19169290920160200192915050565b600381106114e357634e487b7160e01b600052602160045260246000fd5b9052565b80516001600160a01b0316825260208082015190611507908401826114c5565b5060408181015190830152606090810151910152565b600060808301825184526020808401518186015263ffffffff604085015116604086015260608401516080606087015282815180855260a08801915083830194508592505b808310156115825784518252938301936001929092019190830190611562565b509695505050505050565b848152606060208201528260608201528284608083013760008184016080908101919091526001600160a01b03929092166040820152601f909201601f19169091010192915050565b60a081016115e482856114e7565b6001600160a01b039290921660809190910152919050565b60c0810161160a82866114e7565b6001600160a01b0393841660808301529190921660a090920191909152919050565b84516001600160a01b031681526000610200602087015161165060208501826114c5565b506040870151604084015260608701516060840152608087015161167f60808501826001600160a01b03169052565b5060a087015160a084015260c087015160c084015260e087015160e0840152610100808801516116b68286018263ffffffff169052565b50506101208781015163ffffffff16908401526101408088015164ffffffffff1690840152610160808801516001600160a01b03169084015261018080880151908401526101a0830181905261170e8184018761151d565b90508281036101c0840152611723818661147a565b91505061173c6101e08301846001600160a01b03169052565b95945050505050565b83516001600160a01b0316815260006101a0602086015161176960208501826114c5565b506040860151604084015260608601516060840152608086015161179860808501826001600160a01b03169052565b5060a086015160a084015260c086015160c084015260e08601516117c460e085018263ffffffff169052565b506101008681015164ffffffffff1690840152610120808701516001600160a01b0316908401526101408087015190840152610160830181905261180a8184018661147a565b9150506118236101808301846001600160a01b03169052565b949350505050565b6040516080810167ffffffffffffffff8111828210171561184e5761184e6118cd565b60405290565b6040516101a0810167ffffffffffffffff8111828210171561184e5761184e6118cd565b604051610160810167ffffffffffffffff8111828210171561184e5761184e6118cd565b604051601f8201601f1916810167ffffffffffffffff811182821017156118c5576118c56118cd565b604052919050565b634e487b7160e01b600052604160045260246000fd5b6001600160a01b0381168114610eda57600080fd5b60038110610eda57600080fdfea264697066735822122079ebe476e1a5a6b4b8cd60017fcada488cc07300dc749440fe842f2ae8bbcf0f64736f6c63430008040033",
  "linkReferences": {},
  "deployedLinkReferences": {}
}